:020000040000FA
:10200000086F001069410000714100007341000039
:102010007541000077410000794100000000000098
:102020000000000000000000000000007B410000F4
:102030007D410000000000007F4100008141000060
:102040008341000083410000834100008341000080
:1020500083410000AB54000015550000834100008F
:102060008341000083410000574D0000534E0000A3
:10207000554F000083410000834100008341000070
:10208000834100005D5B000083410000834100004C
:102090008341000083410000BD43000083410000F4
:1020A0008341000083410000834100008341000020
:1020B0006D4900008341000083410000834100001E
:1020C00083410000834100008341000000F002F8DA
:1020D00000F0BDF80AA090E8000C82448344AAF105
:1020E0000107DA4501D100F0B2F8AFF2090EBAE803
:1020F0000F0013F0010F18BFFB1A43F0010318473C
:10210000B0380100D03801000A444FF0000C10F83C
:10211000013B13F0070408BF10F8014B1D1108BF65
:1021200010F8015B641E05D010F8016B641E01F805
:10213000016BF9D113F0080F1EBF10F8014BAD1C55
:102140000C1B09D16D1E58BF01F801CBFAD505E073
:1021500014F8016B01F8016B6D1EF9D59142D6D3CD
:10216000704700000023002400250026103A28BFF5
:1021700078C1FBD8520728BF30C148BF0B607047F9
:102180006E2904F01983702904F0088466290EF082
:10219000718365290EF06E8367290EF06B836129C8
:1021A0000EF06A8303681B0A28BF41F08001692989
:1021B00004F0C682642904F0C382752904F0C08249
:1021C0006F2904F09383782904F0D483E92905F07A
:1021D000AB85E42905F0A885F52905F0A585EF294B
:1021E00004F09083F82904F0D3830368DB0928BF47
:1021F00041F08001632905F0B683732905F0BB83A4
:10220000E32905F0C683F32905F0CB83002070474E
:102210001FB59DE8030005F0D7FA05F0B5FA0400F4
:10222000002000210EF0FAFA401C6060002000211E
:102230000EF00AFBE060002000210EF0D9FA2061C8
:1022400006F0C4F91FBD10B506F029FA10BD06F05E
:1022500060FA1146FFF7DCFF00F070F906F082FF2C
:1022600003B4FFF7F0FF03BC02F09BF8F9A009F0FC
:1022700031BE00B5C5B00020ADF8040102E06846EB
:1022800009F018FD6946F4A009F044FD0028F6D0D5
:1022900045B000BD4FF4E131002003F075B80A46A7
:1022A0000146002003F0E7B810B5044604F08EFEA6
:1022B00021460246BDE81040002003F0DCB801468C
:1022C000002003F0C8B8E548016E41F000710166D6
:1022D000016E41F080610166816F41F0007181679C
:1022E000816F41F0806181677047DC4920B1C86F20
:1022F00040F00070C8677047886F40F000708867D2
:102300007047D64920B1C86F40F08060C8677047F9
:10231000886F40F0806088677047D048406F00F059
:102320000070E2E7CD48406F00F08060E9E7F8B563
:10233000064617460C4688B20EF078F80546224647
:10234000314604F062FEA0B20090C5482B4642F22E
:102350002772394680780EF04DF9F8BD70B5049DAE
:10236000642D0AD8BE4C08682A4660631946BD48E9
:1023700004F04BFE01206561E061012070BD10B5E5
:10238000AFF22702032100200EF060F8B4498870F4
:10239000BDE8104042F227710EF086B810B54FF03C
:1023A000E0200069C0030BD50EF020F8AC480121F5
:1023B000C162416242780A2A03D3002242708162DC
:1023C00010BD521C427010BD10B5A54CE06A01282A
:1023D0000BD100200146E0620422A3480CF0E2FB8E
:1023E000216B084301D10120206310BD7FB59C4CB7
:1023F000D4E9030181422BDC9CA1206A04F075FD25
:10240000050025D020690022C0EB001041002846BD
:1024100004F0A0FC93482B461E220121823806F0CE
:1024200096FD904C823C207A01F08EFB2079E37976
:10243000A27961798DE80F00E378A278617820783D
:1024400001F036FC04B02846BDE8704004F074BDCD
:102450007FBD70B5824CC4B084A1206A04F045FDF4
:102460004FF00005ADF8045125610600257018D025
:102470006946206A09F04EFC60B94098A0601E28A9
:1024800008D3012161601E21B0FBF1F0E060FFF78D
:10249000ADFF02E076A065602062304604F04CFD9E
:1024A00002E073A06560206203F0CBFA44B070BD17
:1024B0001FB56B4800246EA144600162204601F004
:1024C00043FB00230094019402941A4619461846CF
:1024D000039401F0EDFBBDE81F4003F0B2BA10B564
:1024E00002F0EDFE634864210068B0FBF1F14FF0AB
:1024F000E020491E416105210161002009F038FDFD
:102500000CF03CF8FFF73BFF42F2277001F07DFD35
:10251000FFF7C0FE03F02BFB03F040FB03F0AEFA25
:1025200003F0AEFC03F0ABFD03F062FEFFF7CBFE61
:1025300001F0FEFBBDE810404FA0B5E61FB5002638
:10254000FFF7CDFF464C606808B1FFF782FFDFF868
:102550003091DFF830A1A046002700BFFFF71EFF33
:102560000CF082FAFFF730FFD8F824004446012827
:1025700017D167626068A0B13A488238417A207802
:1025800081420CD82770D4E90310491E884201DB30
:10259000276101E0401C2061FFF728FF01E0401C9B
:1025A0002070A06A01280ED1A762606810B1FFF701
:1025B000B9FE02E00020FFF7A4FE0EB1012000E00A
:1025C0000020FFF792FEE069A046012816D1C8F866
:1025D0001C7044462348D8F8141001F007FC012869
:1025E0000CD120482049643801F021FC0146A0614B
:1025F0001B4A1C4834326438FFF799FE00263546E2
:10260000C5EB451109EB81046079032800D101264F
:10261000606F012800D16767A06F012800D1A7670C
:10262000206F01284DD12767A01DE16E01F01AFC33
:10263000072846D2DFE800F04504282B3034390063
:10264000A01DE16E01F040FCC8F82000FFF701FF7B
:1026500037E00000533A00002A2E2A0000C009206B
:1026600000000010C2010010306100107200000074
:1026700000000000AC000010496E69740A00000000
:10268000BC050010B4000010FFF712FF19E0617BD9
:10269000207B01F0B7FA14E0207B01F055FA10E03E
:1026A000617B207B01F024FB0BE0207CE37CA27C9F
:1026B000617C8DE80F00E37BA27B617B207B01F0D6
:1026C000F7FA6D1CEDB2022D9AD3DAF800005446E9
:1026D00000283FF443AF002002F048FE27600020AE
:1026E00002F04BFE3AE70000FAA070472DE9F043F4
:1026F000804687B0282007F0D1FBDFF8F493054629
:1027000002AC05AF04AE2822294640460BF03AF849
:102710008046287800281DD0F6A128460CF0E1FD5F
:10272000012818D0F4A128460CF0DBFD012827D0A1
:10273000F3A128460CF0D5FD012836D0F1A128469A
:102740000CF0CFFD012845D0F0A128460CF0C9FDC2
:10275000012854D067E0231D02AAEEA1E81CCDE9B0
:10276000006704F0EDF9029989F80010039989F8DF
:102770000110049989F80210059989F8031052E0B4
:10278000231D02AAE3A1281DCDE9006704F0D8F9B2
:10279000029889F80800039889F80900049889F8D4
:1027A0000A00059889F80B003DE0231D02AAD9A173
:1027B000E81CCDE9006704F0C3F9029989F8041018
:1027C000039989F80510049989F80610059989F884
:1027D000071028E0231D02AACEA1681DCDE90067DD
:1027E00004F0AEF9029989F80C10039989F80D10DC
:1027F000049989F80E10059989F80F1013E0231D2C
:1028000002AAC4A1681DCDE9006704F099F90298F5
:1028100089F81000039889F81100049889F81200CB
:10282000059889F81300B8F1000F7FF46CAF2846C3
:1028300009F0F8FB07B0BDE8F0832DE9F74F002061
:1028400092B08046119010900E90039081460F90A8
:1028500083460290824601900D90049014460D46E6
:10286000CC2003F026FE06467C2003F022FE07461D
:102870001298D8B3AA4F01280BD0022821D00328E0
:1028800004D13868002801D004F056FB15B0BDE82B
:10289000F08F2C4603E05C2800D16C1C6D1C28785E
:1028A0000028F8D120780028F0D0002009F060FB43
:1028B00008B1002003E09BA1204604F016FB38601D
:1028C000E4E739684FF400700029DFD08046260025
:1028D000DCD0464500D946463246012128463B68B1
:1028E00006F0C3FBA01B354484B2F0E7FFE7002CE1
:1028F000CCD0282007F0D2FA0446282221462846C8
:102900000AF040FF0546207800287DD086A12046A9
:102910000CF0E7FC012812D087A120460CF0E1FC66
:10292000012811D089A120460CF0DBFC01280ED033
:102930008BA120460CF0D5FC01281DD022E004F12B
:102940000C0009F0B7F91DE0012011901AE004F124
:102950001000009009F0AEF9A0B98648006888B16F
:1029600085480099006804F03BFC58B9FFF7A0FDCA
:1029700008E0824809F09EF9804981A009F0CAF96F
:102980000028F6D080A120460CF0ABFC012812D024
:1029900081A120460CF0A5FC012815D082A120467B
:1029A0000CF09FFC012812D082A120460CF099FC6B
:1029B000012815D016E004AA82A104F10C0004F04D
:1029C000BFF84FF0010B0DE0012002900AE004AACD
:1029D0007CA104F10A0004F0B3F80120039001E0A7
:1029E00001200E9078A120460CF07BFC01280ED02F
:1029F00079A120460CF075FC012811D079A1204660
:102A00000CF06FFC012800E0CBE112D013E00DAA1E
:102A10006CA104F10C0004F093F84FF0010A0AE0F5
:102A20000DAA68A104F10A0004F08AF801200190BF
:102A300001E001200F906FA120460CF052FC01280C
:102A400018D06FA120460CF04CFC01281BD06FA1C0
:102A500020460CF046FC012820D06FA120460CF047
:102A600040FC01281FD06FA120460CF03AFC012841
:102A70001ED027E004F10901301D009104F082FA14
:102A8000381D00991CE004F1090106F12C000091A9
:102A900004F078FA07F12C00009911E004F10B0121
:102AA00006F154000CE004F10A0106F17C0007E095
:102AB000A11D06F1A40004F065FAA11D07F1540060
:102AC00004F060FA59A120460CF00BFC012800D05C
:102AD000B6E0E6E0746578742F786D6C3B2063682F
:102AE00061727365743D7574662D380D0A000000BF
:102AF0003061001069703D006D736B3D0000000097
:102B000067773D0070646E733D00000073646E7300
:102B10003D00000025642E25642E25642E256400CA
:102B2000380000107700000066696C655F64656CB2
:102B30006574653D00000000666F726D61745F66CC
:102B40006C6173683D79657300000000616E695FB8
:102B500066696C655F64656C6574653D00000000C6
:102B600064656C6574655F616C6C5F616E693D790D
:102B700065730000040000102000001028020010FF
:102B80002A2E616E6900000064656C6574655F756E
:102B90007365723D0000000064656C6574655F7567
:102BA000736572733D000000736176655F757365D0
:102BB000723D00006164645F757365723D79657391
:102BC000000000002564000064656C6574655F6149
:102BD000646D696E3D000000736176655F61646DD0
:102BE000696E3D006164645F61646D696E3D796525
:102BF00073000000757365726E616D653D000000C5
:102C000070617373776F72643D0000006669727360
:102C1000745F6E616D653D006C6173745F6E616DB4
:102C2000653D0000656D61696C3D0000736E7470F8
:102C30005F74696D655F6C6F61643D7965730000F9
:102C4000F6A120460CF04DFB01282ED0F7A120461E
:102C50000CF047FB01282AD0F8A120460CF041FBDC
:102C6000012826D0F9A120460CF03BFB012822D0F8
:102C7000FAA120460CF035FB01281ED0FBA120460E
:102C80000CF02FFB01281AD0FCA120460CF029FBE8
:102C9000012817D0FDA120460CF023FB012814D0F9
:102CA0001BE001208046109017E0FC4A0FE0FB4A31
:102CB00006E0FA4A07E0F94A08E0F94A07E0F84A6C
:102CC000521C04E0F64A921C01E0F54AD21CAFF215
:102CD0000C1104F10C0003F033FFF2A120460CF0BC
:102CE00000FB01280CD0F3A120460CF0FAFA0128D1
:102CF00009D0F4A120460CF0F4FA01280AD011E022
:102D0000F648C06801E0F548006904F10C0104F0E0
:102D100039F905E004F1170003F0D8FFF049087015
:102D20004FF00108EFA120460CF0DBFA012806D095
:102D3000F0A120460CF0D5FA012808D013E006AB2C
:102D400007AAF0A104F10C0003F0FAFE08E008A8BD
:102D5000009009AB0AAAEDA104F10C0003F0F0FE0B
:102D60004FF00109C846ECA120460CF0BAFA012840
:102D700006D0EEA120460CF0B4FA01280FD010E0E6
:102D8000204604F023F90F3803F093FBEC49086068
:102D900004F1100104F0F6F8FFF75BFB01E0FFF728
:102DA00087FB002D7FF4A9AD204609F03BF911986F
:102DB00001281BD0109801281BD0B9F1010F1BD09E
:102DC0000398012824D00198012866D0BBF1010F97
:102DD0007DD0BAF1010F7BD00F98012879D00E98E1
:102DE000012877D00298012875D093E0FFF741FAC7
:102DF00090E002F0C9FF8DE0B949002009AC0870ED
:102E00000FCC8DE80F0005AC0FCC02F0DBFE81E0AB
:102E1000304603F06DF9E0BB0498CA4C00EB00109B
:102E200000EB400004EB8000001D311D04F0AAF807
:102E3000049806F12C0100EB001000EB400004EBBD
:102E400080002C3004F09EF8049806F1540100EB49
:102E5000001000EB400004EB8000543004F092F8C6
:102E6000049806F17C0100EB001000EB400004EB3D
:102E700080007C3004F086F8049806F1A40100EB91
:102E8000001000EB400004EB8000A43004F07AF85E
:102E900000E02CE003F08FF93CE0384602F094FFAC
:102EA00028BB0D98A84CC0EB401004EB8000001D1F
:102EB000391D04F067F80D9807F12C01C0EB4010A4
:102EC00004EB80002C3004F05DF80D9804E00FE076
:102ED00012E015E018E01BE0C0EB401004EB8000AE
:102EE000543007F1540104F04DF802F0AEFF11E048
:102EF000049803F03AFA0DE00D9803F070F809E039
:102F0000384602F0ECFF05E0304603F0A4F901E09A
:102F100003F083FAB8F1010F01D102F092FD3046BF
:102F200003F0F6FA384603F0F3FAAFE42DE9F04780
:102F30000C460026017896B01D463746442967D0D6
:102F40000CDCDFF80892DFF808820DF1140A412941
:102F50000BD042293DD043295BD138E1452959D0D6
:102F6000462958D05A29F7D199E380784128F3D1DE
:102F7000286840B9A9F804710020C8F8047008F066
:102F8000F7FF0028E8D1686828B120466F4A7149E8
:102F900003F05CFBD4E26D496FA008F0BBFE002893
:102FA000DAD14E4605AA0021D9F8000101F05EFDF4
:102FB000CDE9006AD8F8042066492046634B4446B0
:102FC000521C683903F042FBF3E02968491C296070
:102FD00084E280784128BFD1286840B9A9F80471FB
:102FE0000020C8F8047008F0C3FF0028B4D1686856
:102FF00090B12046554A594903F028FB86B25848FB
:10300000006850B14E485149006804F0E9F8A9E061
:10301000C2E12DE12FE20DE3ACE0A4E0736E747029
:103020005F69705F315F303D00000000736E747047
:103030005F69705F315F313D00000000736E747036
:103040005F69705F315F323D00000000736E747025
:103050005F69705F315F333D00000000736E747014
:103060005F69705F325F303D00000000736E747006
:103070005F69705F325F313D00000000736E7470F5
:103080005F69705F325F323D00000000736E7470E4
:103090005F69705F325F333D00000000F400001094
:1030A000F800001074696D655F666F726D61743D44
:1030B00000000000646174655F666F726D61743D4D
:1030C0000000000074696D657A6F6E655F6F6666FB
:1030D0007365745F73656C6563743D00C8000010B0
:1030E000C40000106D616E75616C5F74696D653D43
:1030F000000000006D616E75616C5F646174653D18
:103100000000000025643A256400000025642D2598
:10311000642D256400000000616E696D6174696F43
:103120006E5F73746172743D00000000616E696DC2
:103130006174696F6E5F73746F703D7965730000C1
:10314000200000102C5D0010345C001038030010CB
:1031500038000010E40801002A2E2A00240A010089
:103160000400001068B3A019F74AF84903F06EFA9A
:103170003044E5E1F449AFF2F85008F0CBFD002807
:1031800076D14E4605AA0021D9F8000101F06EFC67
:10319000D6F800011E21B0FBF1F00096CDE901A0A8
:1031A000D8F804202046E84B4446521CE84903F076
:1031B0004DFA616880B2491C61606968491C6960A8
:1031C00003E7E249A0199C3903F040FAD0E781787F
:1031D000E04D00F10807412904D042292DD04329B0
:1031E000CED1A6E001793029CAD18079302802D029
:1031F0003128C5D10DE00EA802F004FD12AE0FCEAD
:103200008DE80F000EAE0FCE02F022FD0346EA68F5
:103210000CE00EA802F0F6FC12AE0FCE8DE80F0007
:103220000EAE0FCE02F014FD2A690346142109A840
:1032300004F00EF9204609AA8FE00179302902D066
:1032400031299DD109E08079302802D0312897D1E9
:1032500001E0EA6880E02A697EE0BF49827991F95D
:103260000010302A05D0312A26D0322A88D148E0F1
:1032700034E0007A30380A2830D2DFE800F0050761
:10328000090B0D0F111315170C3110E00B310EE067
:103290000A310CE009310AE0083108E0C91D06E0F6
:1032A000891D04E0491D02E0091D00E0C91C002938
:1032B00096D12046A9A16CE0007A30380A28DBD2EA
:1032C000DFE800F00608050A0D101316191CEEE7DA
:1032D000891CECE7491CEAE70129EAD0C6E102298A
:1032E000E7D0C3E10329E4D0C0E10429E1D0BDE186
:1032F0000529DED0BAE10629DBD0B7E10729D8D00D
:10330000B4E1007A30380528E8D2DFE800F003069F
:10331000090C0F000829CCD0A8E10929C9D0A5E1E2
:103320000A29C6D0A2E10B29C3D09FE10C29C0D045
:103330009CE101793029D1D182798B48303A8B498F
:103340000A2ACBD2DFE802F005070D0F1117191B6F
:103350001D1F027800E042782046394603F076F9D6
:1033600083E18278F8E7C278F6E781480CE081A132
:103370000FE08FA10DE00A78EEE74A78ECE78A7853
:10338000EAE7CA78E8E79848006800282046F0D0C5
:10339000EDE703F05BF968E18178412902D0422929
:1033A00060D160E002F08CFD296888425ADD02F0AD
:1033B00087FD002856DD2A688C49C2EB421001EBDC
:1033C00080006968082942D2DFE801F0040B131875
:1033D0002124353B001D5D49531C009020469C3143
:1033E00004E0001D009020462823814903F02EF9B7
:1033F0002BE000F12C0328227E4904E07D4928229D
:1034000000F15403A031204603F020F91DE02046CE
:10341000794913E078492046743103F017F984B2F2
:1034200002F04EFD012802DD6868401C01E068687A
:10343000C01C686014E070492046F43103F006F9BE
:1034400003E020466D4903F001F984B2ECE7204621
:103450006BA103F0FBF884B26F602868401C286001
:1034600044F4004602E10179302903D0312901D02A
:10347000322935D1DAE08178412902D042292FD191
:10348000D0E002F0D8FE2968884229DD02F0D3FEA0
:10349000002825DD2A685E4902EB021000EB40009F
:1034A00001EB800069680A2946D2DFE801F0050CCB
:1034B0001A1F242A33363A40001D5049531C0090ED
:1034C0002046843104E0001D009020462823514905
:1034D00003F0BCF8696880B2491C696040F400469A
:1034E000C4E000F12C03282242490FE000F154030C
:1034F000282249490AE04849282200F17C03A431E6
:1035000004E03D49282200F1A4039C39204603F041
:103510009DF8DFE72046414906E0404920467031EA
:1035200007E03E492046F03103F090F8D2E720460C
:103530003B4903F08BF8CDE7204631A103F086F834
:1035400080B26F6041E5000038030010580B0100A5
:1035500068090100C8000010C400001073656C65A4
:103560006374656400000000F4000010F8000010AF
:10357000FC0000103C696D67207372633D22737418
:10358000617475735F6C65645F677265656E2E70DC
:103590006E672220636C6173733D22736E74705F7B
:1035A0007374617475735F6C6564222F3E00000054
:1035B0003C696D67207372633D2273746174757327
:1035C0005F6C65645F7265642E706E672220636C49
:1035D0006173733D22736E74705F7374617475737D
:1035E0005F6C6564222F3E0000010010345C001007
:1035F000A00C0100A80D0100E40E01006010010004
:103600003C2F7461626C653E3C62723E00000000BB
:103610002C5D00108C11010090120100D8130100E4
:10362000501501000179303904291FD82822811D45
:10363000204693E682786049303A052A16D2DFE8C0
:1036400002F0030A19202700CB788A78CDE90023FD
:103650004B780A7805E0CB7A8A7ACDE900234B7A59
:103660000A7A011D204602F0F1FF86B216B03046FC
:10367000BDE8F087CB798A79CDE900234B790A79C7
:10368000EFE7CB7B8A7BCDE900234B7B0A7BE8E726
:10369000CB7C8A7CCDE900234B7C0A7CE1E70AF0F5
:1036A0005FF868B10AF05CF80028DFD00AF058F83B
:1036B000054602F005FC8542D8DC20463F4968E615
:1036C00020463F4965E62DE9F0410E46804600243C
:1036D0003C4D13E0C4EB441055F8201001290CD1E7
:1036E00005EB8007391D404603F07AFD28B907F144
:1036F0002C01304603F074FD38B1641C02F0E0FB8D
:10370000A042E7DC0024304F1AE0641CE0B2BDE8C0
:10371000F08100BF04EB041000EB400057F82010CC
:1037200001290CD107EB8005291D404603F058FD07
:1037300028B905F12C01304603F052FD30B1641C6C
:1037400002F079FDA042E5DC0020E0E702F0B8FBE2
:103750002044401CC0B2DAE770B50C00054629D001
:1037600002F0AEFBA04207DB18A1284603F038FDAB
:10377000002820D019A118E018A1284603F030FD38
:10378000002818D018A1284603F02AFD002812D0DE
:1037900018A1284603F024FD00280CD00BA12846D0
:1037A00003F01EFD002806D015A1284603F018FDE1
:1037B000002800D0012070BD30610010E01601002B
:1037C000D4150100345C00102C5D00106469726532
:1037D00063746F72792E63676900000061646D69BC
:1037E0006E732E636769000075736572732E63676D
:1037F0006900000074696D652E6367690000000050
:103800006E6574776F726B2E6367690003F06DBB32
:1038100003F092BB10B50C4603460121204605F08B
:1038200096FB80B210BD10B50C4603460121204620
:1038300005F01BFC80B210BD10B5044608F03AFA42
:1038400008B1002010BD7E48006838B17D48611C79
:10385000006803F0C5FC08B9FEF72AFE012010BD80
:1038600010B508F02BFC08B1002010BD012010BDE0
:103870002DE9F843744C90460D460746042802D2C1
:103880000020A4F80401002608F088FD20B96E4944
:10389000404608F03FFA48B108F080FD002874D097
:1038A00069496AA008F036FA00286ED120782E28DF
:1038B00008D194F901000028E6D02E28E4D1A078A0
:1038C0000028E1D0062F60D2DFE807F003071C23B1
:1038D0001C2360A1D4F8002116E004F584745FA1D4
:1038E000E07800902379E288284602F0AFFE064691
:1038F000A078009063782278A8195CA102F0A6FE57
:10390000064442E0504A5DA1284602F09FFE06466A
:103910003BE0B4F80E016421B0FBF1F201FB1200B0
:10392000009094F80B3194F80C2156A1284602F02F
:103930008DFE064694F808010C21B0FBF1F201FB64
:10394000120202B90C220C2801D252A000E052A0AF
:10395000009094F80931A81950A102F077FE0644AE
:1039600094F80601C00603D5A81950A253A103E09C
:10397000A81954A1D4F8002102F068FE841928196E
:10398000314A52A102F062FE0619B0B2BDE8F883D6
:103990002DE9F0414F4F504D0E46040018D002F073
:1039A0008FFAA04239DBC4EB441007EB8001503999
:1039B0003DE000BFC4EB441057F82010012906D1A8
:1039C00007EB8001091D304603F00AFC30B1641C8E
:1039D00002F076FAA042EDDC002413E0641CE0B2B1
:1039E000BDE8F08104EB041000EB400055F8201016
:1039F000012906D105EB8001091D304603F0F0FBDB
:103A000028B1641C02F017FCA042EBDC13E002F0CA
:103A100057FA2044401CC0B2E2E702F051FA201AE3
:103A200000EB001000EB400005EB8001A0393046B0
:103A300003F0D6FB08B10020D2E72046D0E7000013
:103A40000400001020000010480400102A2E616EAF
:103A50006900000025640D0A000000002530346470
:103A60002530326425303264000000002530326495
:103A700025303264253032640D0A000025730D0AAA
:103A800000000000253032642D253032642D2530B1
:103A900032640000414D0000504D000020202530D0
:103AA00032643A2530326425730000002020202043
:103AB0002020203C4449523E00000000252D323198
:103AC0007300000025323164000000002025730DD2
:103AD0000A000000345C00102C5D001019A103F0F6
:103AE00004BA03F029BA10B50C460346012120465A
:103AF00005F02DFA80B210BD10B513460C460246F3
:103B00001946204603F0EFF8002800D0012010BD30
:103B100070B506464FF4887006F0C0F904460020E0
:103B2000A4F8040105462146304608F0F3F820B910
:103B300004F5847009F014FD0546204608F072FA79
:103B4000284670BD720000009A49C20704D08A69F5
:103B500042F040028A6103E0CA6942F04002CA6151
:103B6000820704D58A6942F020028A6103E0CA69AB
:103B700042F02002CA61420706D5D1F8982042F0EF
:103B80008052C1F8982005E0D1F89C2042F0805284
:103B9000C1F89C20020704D58A6942F010028A61AC
:103BA00003E0CA6942F01002CA61C20604D58A6DF8
:103BB00042F001028A6503E0CA6D42F00102CA6563
:103BC000820604D58A6942F400728A6103E0CA69F8
:103BD00042F40072CA61420604D58A6942F080024A
:103BE0008A6103E0CA6942F08002CA61000604D516
:103BF000886940F4807088617047C86940F48070BB
:103C0000C86170476B4A39B308280DD2DFE800F06D
:103C100004080D0F13181C20906940F0400002E0CA
:103C2000906940F0200090617047983226E09069DA
:103C300040F01000F7E7906D40F00100906570478C
:103C4000906940F40070EEE7906940F08000EAE788
:103C5000906940F48070E6E70828F0D2DFE800F0D1
:103C600004080D13171C2024D06940F0400002E026
:103C7000D06940F02000D06170479C32106840F05D
:103C8000805010607047D06940F01000F3E7D06DAD
:103C900040F00100D0657047D06940F40070EAE759
:103CA000D06940F08000E6E7D06940F48070E2E738
:103CB0002DE9F047914608AA9846F0CA0B460246FD
:103CC000C021002001F0C7FD43464A46D021002014
:103CD00001F0C1FD2B462246C821002001F0BBFDAA
:103CE0003B463246BDE8F047D821002001F0B3BD85
:103CF000102803DA0B46C2B2C02115E0A0F1100271
:103D0000102A03D20B46D2B2D0210DE0A0F120023E
:103D1000102A03D20B46D2B2C82105E03038102851
:103D200005D20B46C2B2D821002001F033BD704746
:103D3000204810B5016841F47C710160D0F8801012
:103D400041F08051C0F88010016C41F00101016424
:103D500000210846FFF756FF00210120FFF752FF20
:103D600000210220FFF74EFF00210320FFF74AFF4A
:103D700000210420FFF746FF00210520FFF742FF46
:103D800000210620FFF73EFF00210720FFF73AFF42
:103D9000C021002001F034FCD021002001F030FCD3
:103DA000C821002001F02CFCD821BDE810400020E3
:103DB00001F026BC00C00920484000218C22C30726
:103DC00002D082EA500000E04008491C0829F6DBD6
:103DD000704770B5064642200D46002403E0315D71
:103DE000FFF7EAFF641CAC42F9D370BD30B504465E
:103DF00000780D46EE2816D16078EE2813D1A07811
:103E0000CC2810D1691E2046FFF7E3FF611911F895
:103E1000011C884207D12079E17800EB0120A842FB
:103E200001D1607908B1002030BD012030BD30B52E
:103E30000446EE2020706070CC20A0700020E0705E
:103E40000B25257160710878A0714878E071887839
:103E50002072C87860720A212046FFF7BAFFA0726C
:103E6000284630BD30B5044600780D46EE2829D1ED
:103E70006078EE2826D1A078CC2823D1691E204670
:103E8000FFF7A7FF611911F8011C88421AD12079A8
:103E9000E17800EB0120A84214D16079103806289F
:103EA00010D2DFE800F0030507090B0D012030BD3B
:103EB000022030BD032030BD042030BD052030BDC0
:103EC000062030BD002030BD70B506460C46881F68
:103ED00002F0EFFA0546E21FB11D03F056F900208B
:103EE000291901F8070C284670BD00000221417114
:103EF00000210160C16670475A4A0121C1EB41139C
:103F000002EB830313F8783C834201D1C8B27047B7
:103F1000491C0229F2DD0020704773B506460124D2
:103F200020460BF0DFFA0546224601A903F06DF8A2
:103F300002B0224629463046BDE870400CF0B2B8C7
:103F40002DE9F041074694B20E4620460BF0CAFA1E
:103F500005462246314603F058F82246294638469F
:103F6000BDE8F0410CF09EB82DE9F04107460E4641
:103F7000084603F02BF884B220460BF0B3FA05464E
:103F80002246314603F041F8224629463846BDE82C
:103F9000F0410CF087B8344902220D230A60314900
:103FA00064390B700A234B70CAE72DE9F0411E46B5
:103FB00017468C46FFF7A0FF002824D02949C0EB04
:103FC000401001EB80047C3C0125BCF1060F19D2A6
:103FD000DFE80CF0180803030C0F2046FFF786FFFC
:103FE000A5670FE00320607165670BE0002020608B
:103FF00008E0642E06D832463946A01D03F005F8C5
:10400000C4E91B650120BDE8F0812DE9F0470025DA
:10401000144F81462E464CF2503A4FF0010800BF33
:10402000C5EB451007EB80042660E66626676667E9
:10403000AFF28903524600210120A6670BF084FAF3
:10404000207184F80580C0B238B11FFA89F10BF0F5
:10405000BFFA012801D1022060716D1C022DDFDB47
:10406000BDE8F087BC05001040000010FEE710B569
:1040700007F048FD0AF0FAFB0AF09AF90CF008FA8A
:104080000BF09AFA09F0B4FB08F098F90AF094FDE5
:1040900006F07CFCBDE810400BF062B810B507F0EC
:1040A0004BFD0AF0E9FB0AF0F1F90BF055FB09F0C2
:1040B0007DFF08F0A5FC06F08FFDBDE810400BF079
:1040C000A3B8002070477047002070470020704759
:1040D000214800218160491EC160402101614FF0EB
:1040E000487141611D4981611D4941601D49C1619E
:1040F00070474FF0FF3070474FF0FF3070474FF080
:10410000FF3070474FF0FF3070474FF0FF3070477F
:104110004FF0FF3070474FF0FF3070474FF0FF30E7
:1041200070470020014670474FF0FF3070474FF056
:10413000FF30704701207047002070470120704712
:10414000FF20704701207047002070470120704712
:1041500000207047012070475C2F0010EC520100D6
:10416000F454010080F0FA020948804709480047EA
:10417000FEE7FEE7FEE7FEE7FEE7FEE7FEE7FEE717
:10418000FEE7FEE704480549054A064B7047000074
:10419000BF520000CD20000008630010086F00101F
:1041A000086B0010086B001010B5504C2068804759
:1041B000002805D06169BDE8104048F2E8000847D2
:1041C00010BD4A48406800477CB50D46E8218DF88F
:1041D0000010014616460DF1010000F079F8434C3D
:1041E0000020A1698847E36808216846984722694A
:1041F000294630469047A1690120884701207CBDAF
:10420000F8B505468DF800001E4617460DF1010071
:1042100000F05EF8354C0020A1698847E26804216F
:1042200068469047842D03D1E2683146384690476E
:10423000A16901208847A16900208847A168D7208B
:104240008847A168FF208847A168FF2088470006AB
:10425000FAD5A16901208847F8BD2DE9F04117463C
:104260000D4606464FF404781DE000231A463146F9
:104270005320FFF7C5FFB6FBF8F108FB1160C0F54E
:104280000474AC4200D92C4623463A463146842079
:10429000FFF7B6FF00231A4631468320FFF7B0FF31
:1042A000264427442D1B002DDFD10120BDE8F081DD
:1042B00070B50546002400231A4629465020FFF712
:1042C0009FFF641C05F58455402CF4D3012070BD7C
:1042D0004FF40473B1FBF3F203FB121141EA8221A4
:1042E0000A0C02700A0A4270817070472C55010056
:1042F000704770B50C4605462AA102F071FF78B1EF
:104300002AA1284602F06CFF68B12AA1284602F0D3
:1043100067FF58B121462846BDE8704005F0B2BCA1
:1043200048F2010070BD48F2020070BD48F203007F
:1043300070BDB0F5004F01DD0020704705F034BCC2
:10434000B0F5004F02DD4FF0FF30704705F058BD6B
:10435000B0F5004F02DD4FF0FF30704705F0FABCBA
:10436000B0F5004F01DD0120704700207047B0F527
:10437000004F02DD4FF0FF30704705F01BBDB0F578
:10438000004F02DD4FF0FF30704705F037BCB0F54D
:10439000004F01DD0020704705F054BC012070473C
:1043A0007047FEE7535444494E0000005354444FB5
:1043B00055540000535444455252000078B5864885
:1043C000026B864D12F47F4F4FF0010638D06968BA
:1043D000491C69605FF00001C2F3072206FA01F38D
:1043E000134226D0082924D2DFE801F004080C107B
:1043F00014181C20016900910121EDE74169009129
:104400000221E9E7816900910321E5E7C169009193
:104410000421E1E7016A00910521DDE7416A00918D
:104420000621D9E7816A00910721D5E7C16A009189
:1044300002E0491C0829CFDB0168694A114042E0CB
:10444000684C002106FA01F3134236D0082934D211
:10445000DFE801F0040A10161C22282E0169C1F3BE
:104460000B1121600121EDE74169C1F30B1161607E
:104470000221E7E78169C1F30B11A1600321E1E7A4
:10448000C169C1F30B11E1600421DBE7016AC1F3EB
:104490000B1121610521D5E7416AC1F30B1161615F
:1044A0000621CFE7816AC1F30B11A1610721C9E79A
:1044B000C16AC1F30B11E16102E0491C0829C1DBAB
:1044C000016821F0E06101602E6078BD464A10B5B8
:1044D000116841F4805142F8C4190021414C0B4647
:1044E00044F82130491C0829FAD340490B6823F0CD
:1044F000F0030B600B6843F0A0030B604B6823F4E0
:104500007F134B604B6843F4AA134B60CB6843F0B6
:104510007043CB600B6C23F0F0030B640B6C43F027
:10452000A0030B644B6C23F47F134B644B6C43F47C
:104530002A134B64CB6C23F07043CB64CB6C43F0F9
:104540002043CB64D2F8A811C1F301622849012AA3
:10455000096808D0022A03D0032A03D0890802E0A0
:10456000490800E0C908B1FBF0F06FF0FE0101EB73
:10457000002040F40011184801601E494FF48002E9
:104580000A6040F2FF11C16010BD082800D300206E
:1045900011490A6822F0FF020A600A680123834079
:1045A00043F080731A430A6070470B48016811F0AA
:1045B000E06F03D0016821F0E0610160016821F043
:1045C000FF010160016841F0FF010160016841F4F1
:1045D00080310160704700000040034084000010FB
:1045E000FFFFFEF8802F0010C4C00F4000C0024043
:1045F000AC00001000E100E0C1F12002904010B5D5
:10460000FD4A4FF4007453150EE0002801DA94655A
:1046100000E0D46500BF00BF00BF936500BF00BFCE
:1046200000BFD3654000491E0029EED110BD70B512
:104630000446F2480078012813D04FF0A04044F41B
:10464000807181620121416200210213436BDB070B
:1046500002D0491C9142F9D300214162046BA0B2FF
:1046600070BDE54D286C40F40070286420214FF0A7
:10467000FF30FFF7C1FF04210620FFF7BDFF052132
:104680000120FFF7B9FF05212046FFF7B5FF00F035
:10469000CDF90024204669156400A96500BF00BF5C
:1046A00000BFE9656A6D920501D544F00104401C24
:1046B0001028F1D300F0BAF9D1E770B50546CF481C
:1046C0000C46007801280ED04FF0A04245F48070CF
:1046D0009062D46200201113536BDB0702D0401CA0
:1046E0008842F9D370BDC448016C41F40071016483
:1046F00020214FF0FF30FFF77FFF04210520FFF757
:104700007BFF05210120FFF777FF05212846FFF7F2
:1047100073FF02210846FFF76FFF10212046FFF7C5
:104720006BFFBDE8704000F081B92DE9FC47B34C48
:10473000002536202570009069466268084690473B
:1047400001982521B1EB106F01D101202070AC48F8
:10475000016841F080410160AB48AA49816021783D
:10476000002961D0016921F470210161A248016C26
:1047700041F48071C0F840104FF0A0444FF44F4016
:1047800020607820C4F800016220401EFDD14FF067
:104790000208C4F80080302060604001606143F28C
:1047A0000F7020611227E7607801C4F800014FF410
:1047B0000060A0616226761EFDD1A5614FF4004124
:1047C0000020FFF77AFF4FF480190020FFF72FFF3A
:1047D00010F4084F02D0761C4E45F6D30220FFF7A6
:1047E00026FF06460320FFF722FF4FF6F071084030
:1047F000864940EA064088420DD14FF440510020DE
:10480000FFF75BFF00260120FFF711FF800602D4AF
:10481000761C4E45F7D300264FF480391020FFF761
:1048200006FFC10709D105E0C16821F00F01491D4C
:10483000C160A1E7761C4E45F0D341070CD56168F5
:1048400041F001016160D4F8001141F48061C4F8C5
:1048500000111521A16000E0A760800701D5A561C6
:1048600002E04FF48070A06169488188216441882A
:1048700061640088A064674B674EA3F16402002066
:1048800002F1200100EB400703EB472742F83070AC
:1048900002EBC0077E6041F8305001EBC007401CBE
:1048A0007D600428EED3C4F80821C4F80C1103205D
:1048B000C4F81001C4F8185156490020574B243948
:1048C00001F1180200EB400603EB462641F8306088
:1048D00001EBC006756042F82050401C0328F1D35C
:1048E000AC3421676267C4F87880E5672620C4F895
:1048F00054014B4988200860091D4FF6FF7008607D
:10490000606D40F00300606554F8AC0D40F00100AC
:104910002060BDE8FC8743484FF08051016070473C
:1049200040484FF08051803001607047F0B54FF043
:10493000A045D5F82811374E0388243E021D56F8AD
:104940003140DB1C9B0803D080CA5B1E80C4FBD1B6
:10495000008806EBC102401E40F04040491C5060F8
:10496000032900D10021C5F82811F0BD2DE9F0413F
:104970002B4F4FF0A0463F1FDFF8A48034E02849BA
:10498000091D086000072FD5D6F8184128E02148F6
:10499000443850F8340041001CD5C0F30A05ED1E20
:1049A00040F2EA518D4215D81F49084212D145F014
:1049B000004005F073FA68B1164A011D643AED1C17
:1049C00052F83430AA0803D020CB521E20C1FBD1AC
:1049D0000AF0B0FA641C042C00D10024C6F8184177
:1049E000D6F81401A042D2D13868D8F80010084097
:1049F000C5D1BDE8F081000000C009208C00001086
:104A0000C4C00F400501155000C00240905C00205A
:104A10005400001004300010FF050080044800100E
:104A2000E40F005000E100E00000901B0748016C1B
:104A300021F4007101644115816500BF00BF00BF12
:104A4000C16500BF00BF00BF7047000000C0092063
:104A500070B5054602F0BAFA401C01F02AFD0400C8
:104A600002D0294602F08EFA204670BD2DE9F041B1
:104A70001546314A2F4E821A4FF47A7471F10002B2
:104A800023D32D4A002301F06AFD174602469846BB
:104A90002AA1284601F0DAFD05443846414632464F
:104AA000002301F05CFD164602461F4624A128465D
:104AB00001F0CCFD0544304639462246002301F082
:104AC0004EFD1346024620A127E01A4A821A71F1D0
:104AD000000215D33246002301F041FD164602467E
:104AE0001F4616A1284601F0B1FD0544304639465F
:104AF0002246002301F033FD1346024616A10CE0C6
:104B00004FF47A72821A71F100020BD3224600230D
:104B100001F025FD1346024613A12846BDE8F041E9
:104B200001F094BD02462846BDE8F04111A101F014
:104B30008DBD000040420F0000CA9A3B25642E0044
:104B4000253033642E000000253033642E253033A9
:104B50006420474200000000253033642E253033A6
:104B600064204D420000000025642E25303364206F
:104B70006B4200002564204200000000FE4910B591
:104B80000A6842F080020A60FC494A6822F07072AA
:104B90004A604A6842F0A0724A60F94C6C22A261F5
:104BA0000028C86F04D040F00500C867082003E063
:104BB00020F00500C8678020606120610A2000F0B5
:104BC0005BFA4020206010BDEB4910B50A6842F442
:104BD00000220A60E94998B1486820F47070486082
:104BE000486840F470704860486C20F47070486405
:104BF000486C40F420704864886E40F4C01012E0A5
:104C0000086820F00F000860086840F00F00086096
:104C1000086C20F00F000864086C40F00A0008647B
:104C2000886E40F003008866D64C6C20A06180201E
:104C3000606120610B2000F01FFA4020206010BD51
:104C4000CD4810B5016841F080610160CB48016832
:104C500021F470010160016841F420010160016CE0
:104C600021F470010164016C41F420010164816E42
:104C700041F440618166C44C6C20A0618020606179
:104C800020610C2000F0F8F94020206010BDBF49E1
:104C900010B5002241F82020BD4B202253F82030CF
:104CA0001A60A1F10C026FF07F4400BF52F820306F
:104CB000012B05D051F82030A34203D3002010BDB2
:104CC000012010BD51F820305B1C41F82030EDE789
:104CD000AF49102251F820301A6051F820300822D4
:104CE0009A6151F820000168C906FCD40120704780
:104CF00070B5A84A002188B1012812D09160516195
:104D0000A34C202354F820100B60A04A06210C3A33
:104D100042F820109D496FF07F4512E01160D1608C
:104D2000EEE751601161EBE751F82060AE4203D32A
:104D30000B2142F8201008E051F82060761C41F861
:104D4000206052F82060062EEED054F820108B61BF
:104D500052F8200070BD2DE9F04F8C484FF0000C48
:104D6000C0F800C086484168884CC9B211F0070FEE
:104D7000A4F10C044FF0080269D14FEAE1081025B4
:104D80000427844904F1180604F5D27A04F5CC7995
:104D90004FF00C0B04F1D80EB8F10C0F57D2DFE82E
:104DA00008F0560609155223325635523F47C1F8CE
:104DB0000CC001E0C1F800C0CA68B318521CCA6038
:104DC0001978816028218161BDE8F08FDAF8003020
:104DD000012B02D10560072113E0CB68F4185B1C9E
:104DE000CB602178816030E0DAF80030CF68BB42D8
:104DF000F3D8D9F8001011B12021016025E0056039
:104E00005946216021E005600921FAE7D9F8003010
:104E10000968491C8B4201D9076016E0876114E0DC
:104E200084680B680EEB03055B1C0B602C70EDE7D0
:104E300086680B680EEB03075B1C0B603E70C4F8C2
:104E400000B0056001E0056022608261BCE70A21D4
:104E5000D7E72DE9F04F4D484FF0000CC0F804C0E3
:104E600048484168494CC9B211F0070FA4F10C043D
:104E70004FF008026CD14FEAE1081025042745499C
:104E800004F1180604F5D27A04F5CC794FF00C0B36
:104E900004F1D80EB8F10C0F5AD2DFE808F0590629
:104EA00009155524335936554049C1F810C001E061
:104EB000C1F804C00A69B318521C0A6193F8401083
:104EC0008160282181617FE7DAF80430012B02D16B
:104ED0000560072114E00B69F4185B1C0B6194F862
:104EE0004010816032E0DAF804300F69BB42F2D83A
:104EF000D9F8041011B12021016027E0056059465E
:104F0000616023E005600921FAE7D9F804304968B7
:104F1000491C8B4201D9076018E0876116E084685C
:104F20004B680EEB03055B1C4B6085F84040ECE7DB
:104F300086684B680EEB03075B1C4B6087F840608C
:104F4000C4F804B0056001E00560626082613BE77F
:104F50000A21D5E72DE9F04F0C484FF0000CC0F8BE
:104F600008C009484168094CC9B211F0070FA4F103
:104F70000C044FF008020FE0C4C00F4000C0024014
:104F800000C0014000C0054000000A40105A001057
:104F900020550100940000106CD14FEAE108102563
:104FA00004273B4904F1180604F5D27A04F5CC79BC
:104FB0004FF00C0B04F1D80EB8F10C0F5AD2DFE809
:104FC00008F0590609155524335936554049C1F89A
:104FD00014C001E0C1F808C04A69B318521C4A6104
:104FE00093F88010816028218161EDE6DAF80830BD
:104FF000012B02D10560072114E04B69F4185B1CFA
:105000004B6194F88010816032E0DAF808304F6923
:10501000BB42F2D8D9F8081011B12021016027E075
:1050200005605946A16023E005600921FAE7D9F837
:1050300008308968491C8B4201D9076018E08761F4
:1050400016E084688B680EEB03055B1C8B6085F8AB
:105050008040ECE786688B680EEB03075B1C8B6077
:1050600087F88060C4F808B0056001E00560A260C0
:105070008261A9E60A21D5E700F01F0201219140D3
:1050800040094FF0E02202EB8000C0F800117047A9
:1050900094000010554951F86C0C40F4001041F890
:1050A0006C0C5348026842F480320260426942F458
:1050B000803242614F48426822F003024260026837
:1050C00022F040420260026842F000420260426800
:1050D00022F03C024260426842F028024260C86FFF
:1050E00020F44060C867C86F40F48060C8674248D9
:1050F000FA2101610721016002214160012070470E
:105100003B48016821F4803101603A48416821F050
:1051100003014160016821F040410160416821F0D4
:105120003C01416031487C30016821F440610160FC
:105130003148016921F0FF01016101686FF30F013E
:105140000160416821F00F014160012070472A4948
:105150008860C868C006FCD48868C0B2704710B5C3
:105160000023254A06E0C45C9460D468A407FCD5FB
:1051700094685B1C8B42F6D300E09068D06810F016
:10518000140FFAD1012010BD30B500221A4BFF24B4
:1051900006E09C60DD686D07FCD59D688554521C57
:1051A0008A42F6D3012030BD00F5C3319F31B1FBF7
:1051B000F0F000B90220C10700D0401CFE2800D941
:1051C000FE200D49086101207047094A4FF48031E3
:1051D00008B1916100E0D1610120704704490020CD
:1051E00094310968890000D40120704730C10F4014
:1051F00000C0092000C002400080084070B5534C38
:10520000D4F88800524D6FEA10608007D4F80C0182
:1052100000F003000CD028B1012841D0022845D06D
:1052200003282ED1D4F804014A49C0B2401C43E0FF
:10523000002128B101280ED0022823D0032820D134
:1052400054F8880FC0F307422068521CC0F30E00C8
:10525000401C414909E054F8880FC0F30742206818
:10526000521CC0F30E003D49401CA0FB010100236D
:1052700001F075F9E26F0023D2B2521C01F06FF910
:10528000286070BD54F8880FC0F307422068521C94
:10529000C0F30E00401C090441EA10410004E6E797
:1052A000D4F804012E49C0B2401C05E0D4F8040132
:1052B0004FF40041C0B2401CB1FBF0F0E0E730B564
:1052C00022482021C0F8A011D0F8A011890603D5EA
:1052D000D0F8A0114906FBD500F180000324C0F8E6
:1052E00084404FF00001C0F82811C0F82C114FF095
:1052F0000105C0F88C501B4A42604FF0AA02C26000
:105300004FF05503C3600560C260C360A0F1800028
:10531000D0F888506D01FBD540F8804FC260C36063
:10532000B0F18000D0F88820C2F30162032AF9D1DD
:10533000C0F808110C4AC0F8C420C0F8C8110168B0
:1053400021F4704141F48041016030BD00C00F4044
:10535000AC00001000093D0000127A0000366E011A
:10536000001BB70063000500DE872804062110B18A
:105370008948416070478948FBE7072110B186489A
:10538000416070478548FBE72DE9F047864A844E27
:10539000844F12684FF00308950854084FF0830CAF
:1053A0004FF00709D30820B1012829D00020BDE81B
:1053B000F087306820F0F0003060306840F0500036
:1053C0003060D7F8A801C0F38110012808D0022866
:1053D00003D0032803D02A4602E0224600E01A4602
:1053E0006E4E86F80CC01009B0FBF1F0010A317165
:1053F000307086F80C804C4686F80890052025E031
:10540000306920F00F003061306940F00A003061EF
:10541000D7F8A801C0F30120012808D0022803D042
:10542000032803D02A4602E0224600E01A465A4EDC
:1054300086F80CC01009B0FBF1F0010A3171307030
:1054400086F80C804C4686F80890062000F098F804
:1054500074600120ABE710B5544A002330B1145CEE
:10546000E407FCD04C4C2170135410BD145CE407CD
:10547000FCD04A4CF7E770B514460D46064605E0E9
:1054800029783046FFF7E7FF6D1C641E002CF7D12A
:1054900070BD28B14048017DC907FCD00078704735
:1054A0003E48017DC907FCD0F8E770B53B498868E4
:1054B0003E4DC0F342020C3500233D4CA5F10800DF
:1054C000032A0CD0022A13D0062A1CD0012A05D1A7
:1054D000087D810635481BD50121017070BD0A7D0C
:1054E00012F09E0F02D02A60087870BDD207FCD05F
:1054F00009780268A1540168491C016001684029CB
:10550000F3D1036070BD286840F48070286070BDDE
:10551000037070BD70B5204B9868244D244AC0F3C9
:1055200042010C3500244032A5F1080003290CD0BB
:10553000022913D006291CD0012905D1187D810626
:105540001A481BD50121417070BD197D11F09E0FC5
:1055500002D06960187870BDC907FCD0197843681B
:1055600099544168491C416041684029F3D1446025
:1055700070BD686840F48070686070BD447070BD34
:1055800000F01F020121914040094FF0E02202EBA0
:105590008000C0F8001170470000014000C00040CA
:1055A00000C0024000C00F40AC000010B00000106E
:1055B000B45B0010014600208A0700D00C2011F0D7
:1055C0000C0F01D040F0030011F0300F01D040F07B
:1055D000C000890901D040F03000704730B4D14D8F
:1055E000032445F82040D04D002445F82040CF4CFE
:1055F00004EB801421706270A37030BCFFF778BB9D
:1056000070B50D4604007DD0012C7CD0FFF718FB4F
:1056100000231A4629462046FFF7E0FF0023012217
:1056200029462046FFF7DAFFFF23022229462046BB
:10563000FFF7D4FFFF23032229462046FFF7CEFFC2
:10564000FF23042229462046FFF7C8FFFF23052237
:1056500029462046FFF7C2FFFF230622294620469F
:10566000FFF7BCFFFF23072229462046FFF7B6FFBE
:10567000FF23082229462046FFF7B0FFFF23092217
:1056800029462046FFF7AAFFFF230A222946204683
:10569000FFF7A4FFFF230B2229462046FFF79EFFBA
:1056A000FF230C2229462046FFF798FFFF230D22F7
:1056B00029462046FFF792FFFF230E222946204667
:1056C000FFF78CFFFF230F2229462046FFF786FFB6
:1056D000FF23102229462046FFF780FFFF231122D7
:1056E00029462046FFF77AFFFF231222294620464B
:1056F000FFF774FF0023132229462046FFF76EFFB1
:10570000002301E018E01BE0142229462046FFF7A1
:1057100065FF0023152229462046FFF75FFF00237F
:10572000162229462046FFF759FF29462046BDE8A4
:1057300070400023172251E70020FFF71FFA67E7A8
:105740000020FFF741FA63E72DE9F041754F044669
:1057500002200E4647F82400DFF8CC81002148F8EB
:105760002410724800EB84152E706A702046FFF7F3
:10577000BFFA012047F8240048F8240046F0010051
:1057800028702046FFF7B4FA694800EB84100078CF
:10579000BDE8F0812DE9F047570003251E46144669
:1057A00088468146042A0DD21422FFF7CDFF6200FD
:1057B0000321914016B10143CBB201E020EA01037D
:1057C000142241E0201F04280FD215224846FFF77B
:1057D000BBFF6200083A0321914016B10143CBB2EE
:1057E00001E020EA010315222EE0A4F108000428BC
:1057F00013D216224846FFF7A7FF103F0346BD40CD
:10580000E8B21EB1FFF7D6FE034304E0FFF7D2FE75
:10581000C043C0B20340162216E0A2F10C04042CCF
:1058200017D217224846FFF78FFF183F0346BD40A7
:10583000E8B21EB1FFF7BEFE034304E0FFF7BAFE75
:10584000C043C0B20340172241464846BDE8F04776
:10585000C4E6BDE8F0872DE9F04700251E4617464F
:10586000884681465FF0010404FA05F33B40EAB242
:1058700041464846FFF78EFF6D1C082DF4DB0825D6
:10588000A5F1080004FA00F33340EAB24146484665
:10589000FFF780FF6D1C102DF2DBDAE730B41C46F9
:1058A000102A3AD2DFE802F0080B0E1114171A1D65
:1058B000202326292C2F3235234602222BE0234693
:1058C000032228E02346042225E02346052222E085
:1058D000234606221FE0234607221CE02346082217
:1058E00019E02346092216E023460A2213E0234644
:1058F0000B2210E023460C220DE023460D220AE085
:1059000023460E2207E023460F2204E023461022FE
:1059100001E02346112230BC60E630BC70471346DC
:1059200012225BE6A85B00109C5B00101C5A001062
:10593000DC5A001030B5764887B0C2788178CDE95E
:1059400000124378027873A102A800F07FFE02A83B
:1059500001F03CFB401C00F0ACFD714C02A9606002
:1059600001F010FB6F48C2788178CDE900124378CE
:10597000027868A102A800F069FE02A801F026FBE7
:10598000401C00F096FD02A9A06001F0FBFA042083
:1059900000F08FFDE061201F63A190F9002002A8B4
:1059A00000F054FE02A9E06901F0ECFA5F4D2868AE
:1059B00001F00CFB00F07DFD2062296801F0E2FAA5
:1059C000012000F076FD5A4960620968012904D07F
:1059D00058A10988018007B030BD57A1F9E71CB56F
:1059E0004B484F4CC01C411ECDE900104B1E8A1E77
:1059F00048A1606801F0A4F84A48C01C411ECDE9E6
:105A000000104B1E8A1E43A1A06801F099F8E069BE
:105A100001F05CF9211F0870206A01F0D7FA00F04C
:105A200048FD42490860216A01F0ACFA42A1606A6F
:105A300001F0D6FB3E4910B1002008601CBD0120DA
:105A4000FBE770B50024FFF775FF3CA13CA001F017
:105A50004CFA050011D0324E294656F8240001F0C8
:105A600067F929463AA001F063F9641C0A2CF3DBBC
:105A70002846BDE8704001F05FBA70BD30B5B3B0E4
:105A8000002434A12EA001F030FA10B101F054FA34
:105A900001E0FFF7D6FF2FA129A001F026FA0500AB
:105AA00028D133B030BD00BF9DF800002F2821D091
:105AB0009DF801002F281DD025A1684601F090FB1C
:105AC000C0B125A1684601F08BFB98B1684601F092
:105AD0007DFA0DEB0002002102F8011C401C00F0D1
:105AE000E8FC0F4941F82400694601F04BFA641CB8
:105AF0000A2C06DC2A46C821684601F0F4F8002882
:105B0000D2D1284601F018FAFFF769FFC9E7000073
:105B1000F400001025642E25642E25642E256400D3
:105B2000C8000010F80000102564000020000010DC
:105B30000400001030000000310000007700000079
:105B40006465766963652E73657474696E67730046
:105B50000A000000720000000D0A00005C48017895
:105B600041F0010101705B4901200860704759490B
:105B70000020086058490A6842F400720A605449DB
:105B800091F85C20D20605D591F85C2042F0100215
:105B900081F85C2008740873087270474C48017AD9
:105BA00041F0010101720121017070474848017AFA
:105BB00021F00101017270474548017A41F002016C
:105BC00001727047F0B505ACB4E8E010404C2034E9
:105BD00020702171227223732774A4F814C02576D3
:105BE000A683F0BDF0B505ACB4E8E010384C6034E5
:105BF00020702171227223732774A4F814C02576B3
:105C0000A683F0BD324900B5203189B00A780092F0
:105C10000A7901920A7A02920A7B03920A7C06921E
:105C20008A8A07920A7E0492898B0591202269460E
:105C300001F030FA09B000BD254800212030017084
:105C40000171017201730174818201768183704751
:105C5000F0B58DB00DF1480CBCE8F000CDE90001C5
:105C60001E480DF1080C641E90F90000A5F26C7539
:105C70001044ACE8F900684601F013FB0B900BA848
:105C800001F0EEFA0DB0F0BD10B58AB0044608A8D8
:105C9000089101F0E5FA016800914168019181687D
:105CA0000291C168039181690691C16907910169F7
:105CB0002022491C04914069694600F26C700590ED
:105CC000204601F0E7F90AB010BD01490874704799
:105CD00000400240F0000010C4C00F40C40000109B
:105CE00010B5364C90B0A8B101466846FFF7CCFF1E
:105CF0002022694608A801F0CDF90DF1300CBCE86E
:105D00000F008DE80F000DF1200CBCE80F00FFF72D
:105D100059FF0120E06010B010BD70B52748002485
:105D2000001D051F017829B9417819B9817809B991
:105D3000C07830B121482249001D09F0CFF901286F
:105D400000D0EC6070BD10B51C4C90B0B8B10146ED
:105D50006846FFF799FF2022694608A801F09AF9E2
:105D60000DF1300CBCE80F008DE80F000DF1200C98
:105D7000BCE80F00FFF726FF0120A060CBE7002062
:105D8000A060FFF7CAFFC6E770B50C4C002520469F
:105D9000A560E560017829B9417819B9817809B918
:105DA000C07838B10749054809F098F9012800D0B2
:105DB000A56070BDBDE87040AFE70000F4000010C2
:105DC000E15C0000475D000010B50446001D06D0F0
:105DD000201D01F0FBF8042801DA012010BD14F1A8
:105DE0002C0005D001F0F2F8002801DA022010BDE5
:105DF00014F1540005D001F0E9F8042801DA032079
:105E000010BD002010BD2DE9F041054617460E4695
:105E10007C2000F04EFB04462946001D01F0B2F83C
:105E2000314604F12C0001F0ADF8394604F154007C
:105E300001F0A8F82046BDE8F0810021017180F84A
:105E40002C1080F854100160704770B500249BA19D
:105E50009BA001F04AF8050011D09C4EC4EB441001
:105E600006EB80002B467C22012103F0FEF8641C27
:105E7000022CF3DB2846BDE8704001F05DB870BD30
:105E800010B5924B002200BFC2EB421003EB800022
:105E9000FFF7D3FF521C022AF6DB8DA188A001F088
:105EA00024F804000AD00346F8220121874803F0B1
:105EB0004EF8204601F040F8012010BD002010BD32
:105EC0000020824A014600BFC1EB411352F8233043
:105ED000012B00D1401C491C0229F5DB70472DE93C
:105EE000F047002706464FF00109B846FFF76CFF60
:105EF000050018D1754C00BFC7EB471054F82010AF
:105F000009B94FF0000904EB8000001D311D01F0BC
:105F100067F908B94FF001087F1C022FECDBB9F1DB
:105F2000000F03D005252846BDE8F0875FEA08008A
:105F300001D00425F7E7C0EB401154F8211031B12E
:105F4000401C0228F7DB00BFFFF77FFFEBE70121D2
:105F5000C0EB4010316004EB80007C22314601F040
:105F600099F8F1E770B506004FF0000516D001F082
:105F70002DF898B1554C0DE0C5EB451054F82010A4
:105F8000012906D104EB8000001D314601F028F9FB
:105F900030B16D1CFFF794FFA842EDDC002070BD0E
:105FA000C5EB451004EB8000FFF747FF0FE000BF93
:105FB000C5EB451004EB800303F17C0631467C22DF
:105FC000184601F067F83046FFF737FF6D1CFFF702
:105FD00077FFA842ECDCFFF738FF012070BD70B5F9
:105FE0000446FFF76DFFA04206DD384DC4EB4410B8
:105FF00055F82010012901D0002070BD05EB80006C
:10600000FFF71BFF0FE000BFC4EB441005EB80035C
:1060100003F17C0631467C22184601F03BF83046FD
:10602000FFF70BFF641CFFF74BFFA042ECDCFFF710
:106030000CFF012070BD70B505004FF0000417D0B3
:1060400000F0C4FFA0B1214E0EE000BFC4EB44102D
:1060500056F82010012906D106EB8000001D2946C4
:1060600001F0BEF830B1641CFFF72AFFA042EDDC5E
:10607000002070BDC4EB441006EB800070BD10B56D
:106080000024FFF71DFF38B912A216A116A0FFF7D2
:10609000BAFEFFF724FF0446204610BD10B50B4B97
:1060A000002200BFC2EB421003EB8000FFF7C5FEE9
:1060B000521C022AF6DBBDE81040C6E6770000005D
:1060C000616C6C2E61646D696E730000345C00104D
:1060D0007200000061646D696E4061646D696E2ECE
:1060E000636F6D000000000061646D696E00000068
:1060F00010B50446001D06D0201D00F067FF0428DF
:1061000001DA012010BD14F12C0005D000F05EFF73
:10611000002801DA022010BD14F1540005D000F06F
:1061200055FF042801DA032010BD14F17C0005D0CE
:1061300000F04CFF042801DA042010BD14F1A40083
:1061400005D000F043FF042801DA052010BD00202F
:1061500010BD2DE9F0470546994690460F46CC20E4
:10616000089E00F0A6F904462946001D00F00AFF2B
:10617000394604F12C0000F005FF414604F15400BB
:1061800000F000FF494604F17C0000F0FBFE3146C0
:1061900004F1A40000F0F6FE2046BDE8F0870021DF
:1061A000017180F82C1080F8541080F87C1080F871
:1061B000A4100160704770B50024B7A1B7A000F02B
:1061C00094FE050013D0B84E04EB041000EB400021
:1061D00006EB80002B46CC22012102F046FF641C16
:1061E000042CF1DB2846BDE8704000F0A5BE70BD70
:1061F00010B5AD4B002200BF02EB021000EB4000D7
:1062000003EB8000FFF7CBFF521C042AF4DBA7A1AD
:10621000A2A000F06AFE04000BD003464FF44C72BB
:106220000121A14802F093FE204600F085FE0120E6
:1062300010BD002010BD00209B4A014601EB011358
:1062400003EB430352F82330012B00D1401C491CBF
:106250000429F3DB70472DE9F047002706464FF08D
:106260000109B846FFF744FF05001AD18E4C00BF64
:1062700007EB071000EB400054F8201009B94FF06D
:10628000000904EB8000001D311D00F0A9FF08B9D2
:106290004FF001087F1C042FEADBB9F1000F02D098
:1062A0000725284679E75FEA080001D00625F8E7C8
:1062B00000EB001101EB410154F8211029B1401C01
:1062C0000428F5DBFFF777FFEBE7012100EB001077
:1062D00000EB4000316004EB8000CC22314600F03E
:1062E000D9FEEFE770B506004FF0000518D000F0BA
:1062F0006DFEA8B16C4C0FE005EB051000EB400003
:1063000054F82010012906D104EB8000001D31460D
:1063100000F066FF30B16D1CFFF78DFFA842EBDC8B
:10632000002070BD05EB051000EB400004EB800081
:10633000FFF735FF11E000BF05EB051000EB400053
:1063400004EB800303F1CC063146CC22184600F062
:10635000A1FE3046FFF723FF6D1CFFF76CFFA8423C
:10636000EADCFFF728FF012070BD70B50446FFF797
:1063700062FFA04208DD04EB04104B4D00EB40002F
:1063800055F82010012901D0002070BD05EB8000D8
:10639000FFF705FF11E000BF04EB041000EB400025
:1063A00005EB800303F1CC063146CC22184600F001
:1063B00071FE3046FFF7F3FE641CFFF73CFFA0427E
:1063C000EADCFFF7F8FE012070BD70B505004FF064
:1063D000000419D000F0FAFDB0B1334E10E000BF58
:1063E00004EB041000EB400056F82010012906D100
:1063F00006EB8000001D294600F0F2FE30B1641C5F
:10640000FFF719FFA042EBDC002070BD04EB041085
:1064100000EB400006EB800070BD10B5224B00225F
:1064200002EB021000EB400003EB8000FFF7B7FE29
:10643000521C042AF4DBBDE81040BCE62DE9F04113
:1064400006460024001D00F0C1FDF8B106F12C0045
:10645000804600F0BBFDC8B1134F00BF04EB041031
:1064600000EB400057F8201001290CD107EB800504
:10647000281D311D00F0B4FE28B905F12C0041465D
:1064800000F0AEFE28B1641C042CE7DB0020BDE860
:10649000F0810120FBE7000077000000616C6C2EAA
:1064A00075736572730000002C5D001072000000AF
:1064B000704770B5064601F063F9056806F10B00F8
:1064C00020F00704B4429CBF002070BD2B466A68D0
:1064D000BAB11068A04210D304F1080188423CBF51
:1064E0005068586007D35168101941601168091B42
:1064F000016058601460101D70BD13465268002A78
:10650000E7D12146284601F04BF90028DED170BDC5
:1065100070B50446051F01F033F90068002C14BF64
:10652000446870BD002C18BFAC423CBF2046646874
:10653000F8D301680A18AA4218BF456003D12A6837
:1065400005461144016028684119A1421CBF6C60D6
:1065500070BD6168696021680844286070BD53EAB5
:10656000020C00F069802DE9F04B4FF00006002B83
:106570001FBFB3FA83F503FA05F424FA05F65E406B
:1065800012BF1643B2FA82F502FA05F4C5F12005EE
:106590001EBF22FA05FC44EA0C04203556EA044CDE
:1065A0004FEA144418BF641C4FF000084FF0000974
:1065B000904271EB030C39D3002919BFB1FA81F76E
:1065C00001FA07F6B0FA80F700FA07F6C7F12007DC
:1065D0001EBF20FA07FC46EA0C062037B6FBF4FC87
:1065E000A7EB0507103F07F01F0BCBF120060CFAB5
:1065F0000BFB2CFA06F644BFB3460026202FA4BF9F
:106600005E464FF0000B5BEA060C08BF4FF0010B33
:1066100019EB0B09ABFB027C48EB0608C01B06FB21
:1066200002CC0BFB03CC71EB0C01C1E70B4602461D
:1066300041464846BDE8F08B13B54FF000004FF0DF
:106640000001AFF30080BDE81C4070470FB41CB5DB
:10665000084B06AA7B4469460090059801F061F951
:1066600004460020694601F06FF920461CBC5DF825
:1066700014FB0000F112000070B504468569006843
:10668000C10601D5302600E02026C00708D070BD25
:10669000D4E9012130469047206A00F101002062D0
:1066A0006D1EF5D570BD70B5044685690078C007CC
:1066B00008D170BDD4E9012120209047206A00F163
:1066C000010020626D1EF5D570BD09684A0501D52F
:1066D00040B27047C905FCD500B2704709684A0549
:1066E00001D5C0B27047C905FCD580B2704770B5FE
:1066F0000C460546012A05D02878800600D5EA69AF
:10670000002302E0012305E05B1C934202D2E05C1F
:106710000028F9D1A869E618C01AA861286A1844A7
:1067200028622846FFF7A8FF04E0D5E9012114F804
:10673000010B9047B442F8D32846FFF7B4FF70BD71
:106740002DE9F0410646002410687529314616A54A
:1067500011D0FFF7BAFF002803DAC0F1000013A53B
:1067600007E031688A0701D511A502E0490704D581
:1067700010A5012401E0FFF7B1FF00210A2306F173
:10678000240707E0B0FBF3F203FB1200303078542B
:106790001046491C0028F5D123462A463046BDE85C
:1067A000F04101F05DB80000000000002D00000085
:1067B0002B0000002000000011680268006A5305E9
:1067C00001D508700BE0D30501D5088007E013065A
:1067D00003D5C217C1E9000201E05206086001209A
:1067E000704700002DE9FF5F15468A460446DFF832
:1067F000AC80F8440027D8E900103E46CDE90010EF
:1068000011E03AF816106A4602A801F0EBF9411CB3
:1068100007D02178890603D5E269391891420ED84C
:10682000074406F101062078800602D5E069B842E7
:1068300005DDAE42E5DB3AF816000028E1D1A0699B
:10684000C01BA0612046FFF717FFD8E90010CDE973
:106850000010002016E03AF818106A4602A801F06D
:10686000C1F98146401C0BD000250DF1080B05E055
:10687000D4E901211BF8050090476D1C4D45F7D365
:1068800008F10100B0428046E5DB206A384420620E
:106890002046FFF708FFBDE8FF9F000052F0000010
:1068A00030B4002100F124040CE002F0070505F1EA
:1068B00030054FEAD20242EA4372655401F1010108
:1068C0004FEAD30352EA0305EFD10468002310A274
:1068D000250708D504F020040C4304D0C469012323
:1068E0000CA2641EC46130BC00F0BABF10B50446EF
:1068F00021461068FFF7F2FE02462046BDE8104030
:106900000023CDE7D21D22F00701D1E90023C7E71C
:106910000000000030000000F0B40D4601880905B9
:1069200002D5234C7C4402E0214C7C440E340021EF
:1069300000F124060BE002F00F074FEA1212E75DA8
:1069400042EA03724FEA1313775401F1010152EA4C
:106950000307F0D102780023120704D5702D06D06A
:1069600009B1113402232246F0BC00F079BF103483
:106970000123F8E770B504460D4621461068FFF77D
:10698000ADFE024629462046BDE870400023C3E71D
:10699000D21D22F00703D3E90023BDE70368126884
:1069A00043F0200303600823C3610023B4E7000021
:1069B00028EF00002DE9F05F894604464FF0000AF9
:1069C000DFF878B1FB44C0F820A02046E168884792
:1069D000002875D0252806D0D4E901219047206AE7
:1069E000401C2062F1E700265F462046E1688847A8
:1069F0002028054608DB312D06D207EB050010F8EC
:106A0000200C08B10643F0E7B00701D526F00406D4
:106A1000C4F81CA00027C4F818A02A2D09D02846C5
:106A200003F01AFA38B304EB8708303DC8F8185061
:106A300019E059F8041B204604EB87029161E168D4
:106A40008847012F054618D1E069002820DA26F092
:106A500020061DE0D8F8180000EB800005EB400090
:106A60003038C8F818002046E1688847054603F02A
:106A7000F3F90028EED1012F0AD02E2D08D120469F
:106A8000E16888477F1C0546022F46F02006C4DBDC
:106A9000A069002803DA404246F00106A061F00731
:106AA00001D026F010066C2D0BD0682D09D04C2D8E
:106AB00039D06A2D35D0742D35D07A2D33D016E0EB
:106AC00038E0E1682F4620468847B842054609D19C
:106AD0006C2F26D04FF48060E1680643204688473B
:106AE000054604E06C2F1AD04FF4807006430DB3B6
:106AF000A5F14100192802D8203546F400664A461F
:106B00002946204626604E46FBF73AFB80B1012815
:106B10000BD0F61D26F0070000F1080955E74020CC
:106B2000E4E78020D8E70020D6E706F104094CE727
:106B3000284651E7206ABDE8F09F0000B0EE000053
:106B40000FB400B58DB010A9099000910B904FF0D3
:106B5000FF300A9000200C900648784406900648C2
:106B600078446A4607900F9909A800F033FF0DB0EA
:106B70005DF814FB970E0000AF0E00002DE9FF5FDB
:106B80001D464FF0FF3B91464FF000085F46D5E9A8
:106B90000146A96901987F1C8847296A824688476F
:106BA0000028F6D11AF101000CD0002E24F4C064A4
:106BB00019DD600614D5BAF12B0F09D0BAF12D0FEB
:106BC0000ED103E0584604B0BDE8F09F44F4806461
:106BD000A96901987F1C8847761E8246002E02DD37
:106BE000BAF1300F03D0B9F1000F26D032E0A96915
:106BF000761E01987F1C44F400748847002E82465C
:106C000005DDBAF1780F06D0BAF1580F03D0B9F10B
:106C1000000F10D01EE0B9F1000F02D0B9F1100F33
:106C200018D1A969761E01987F1C24F40074884746
:106C30008246102002E0082000E00A20814609E098
:106C4000A96908FB0908761E01987F1C44F40074AA
:106C500088478246002E05DD4946504600F0A5FED5
:106C60000028EDDAE96901988847A00502D46FF0A1
:106C70000100A8E7E00727D1600614D5600502D51A
:106C8000C8F1000000E04046296801F104022A60D2
:106C90000968220501D5087016E0220701D5088091
:106CA00012E0086010E0286800F104012960006823
:106CB000210502D580F8008006E0210702D5A0F862
:106CC000008001E0C0F8008038467CE770B50646D9
:106CD00000F05EFD0468054630460A22002100F0FF
:106CE000A9FE2C6070BD2DE9F04117460D46044603
:106CF0000646012913DD384605F02EF9411C0CD05B
:106D0000C0B20A2804F8010B02D06D1E012DF2DC7E
:106D1000002020703046BDE8F081B44201D100204F
:106D2000F9E7384600F0BEFE0028F1D00026EFE774
:106D300070B50D46044604E0294605F066F9401C8E
:106D400004D014F8010B0028F6D170BD4FF0FF30CD
:106D500070BD00002DE9F041044616460D46476916
:106D6000007B80072ED03846FDF7FAFA50BB3EB3C1
:106D7000012E02D0022E25D104E0204600F096FE1E
:106D800005441DE03846FDF702FBE168002841F0AC
:106D90001001E16005DA204600F0ACFE0120BDE8FC
:106DA000F081C9030BD56268E16A914200D81146AF
:106DB000A26911442269891A814200DD084605440E
:106DC000002D01DA0220EAE7E16A6068E2688142A8
:106DD00006D29103E06203D522F4003141F01002A3
:106DE000A6690027AE4213DCE16A814201D90B4655
:106DF00000E0034603EB060C2369ACEB030CAC4547
:106E000006DD814201D98C4600E084469C4505D1CF
:106E1000A760276042F02000A5620DE0AD1BE66987
:106E2000AE1B8142A66000D90846C01A281A20600D
:106E30005819606022F0200003490840E0600020FB
:106E400084F84870ABE70000BFCFD7FF2DE9F041D1
:106E50000C4607461646104600F06EF82078611C76
:106E600061280AD0722802D077283CD102E001259F
:106E7000002405E00225042402E0082448F202056B
:106E800011F8010B2B2806D0622809D011F8010C4B
:106E900074280AD00BE045F0030544F00204EFE744
:106EA00045F0040544F00104EAE744F010043846D4
:106EB0002146FDF71EFA411C15D000213161716099
:106EC0004FF40071F560F1617061200704D5304620
:106ED00002220021FFF73EFF306D40F001003065D7
:106EE0003046BDE8F0810020FBE72DE9F0410D467A
:106EF0000646104C206DC10704D0410804D020F094
:106F00000104F7E722460EE05420FFF7D2FA07000B
:106F10000ED0206D47F0010108435421206538460A
:106F200000F00CF93A4629463046BDE8F0418DE7BD
:106F30000020D6E7A86100102DE9F04704464FF085
:106F400000094FF0FF37C568D4E90486A80707D0C9
:106F5000204600F003FE3046FDF7EBF9002802DA88
:106F60003846BDE8F087280502D54046FFF7D0FA3D
:106F70004C21204600F0E2F8206D20F00100206551
:106F80004846EEE740EA0103024630B59B0710D1C0
:106F90004FF0013400E008C208C91D1B9D4315EAEB
:106FA000C41FF8D013F0FF0102F8011B0DD01B0A1B
:106FB000F8E711F8013B002B02F8013B05D011F86E
:106FC000013B002B02F8013BF3D130BD10B5431C4F
:106FD00002E010F8011B71B18107FAD14FF00132C4
:106FE00002C88C1A8C4314EAC211F9D0C01A0A06DE
:106FF00003D0C01E10BDC01A10BD0A0401D0801EEF
:1070000010BD0902FCD0401E10BD032A40F23080A2
:1070100010F0030C00F0158011F8013BBCF1020FD9
:10702000624498BF11F801CB00F8013B38BF11F85A
:10703000013BA2F1040298BF00F801CB38BF00F871
:10704000013B11F0030300F02580083AC0F00880EE
:1070500051F8043B083A51F804CBA0E80810F5E7D2
:10706000121D5CBF51F8043B40F8043BAFF30080B5
:10707000D20724BF11F8013B11F801CB48BF11F82A
:10708000012B24BF00F8013B00F801CB48BF00F8FA
:10709000012B704710B5203AC0F00B80B1E81850B2
:1070A000203AA0E81850B1E81850A0E81850BFF4F2
:1070B000F5AF5FEA027C24BFB1E81850A0E8185091
:1070C00044BF18C918C0BDE810405FEA827C24BFE5
:1070D00051F8043B40F8043B08BF7047D20728BF73
:1070E00031F8023B48BF11F8012B28BF20F8023BC2
:1070F00048BF00F8012B70474FF000020429C0F090
:10710000128010F0030C00F01B80CCF1040CBCF1D9
:10711000020F18BF00F8012BA8BF20F8022BA1EB2B
:107120000C0100F00DB85FEAC17C24BF00F8012B10
:1071300000F8012B48BF00F8012B70474FF0000208
:1071400000B5134694469646203922BFA0E80C505D
:10715000A0E80C50B1F12001BFF4F7AF090728BF38
:10716000A0E80C5048BF0CC05DF804EB890028BFB4
:1071700040F8042B08BF704748BF20F8022B11F0DD
:10718000804F18BF00F8012B704710B5044610F06F
:10719000030F08BF11F0030F40F015804FF0013EC0
:1071A000121FC0F20E8051F8043BA3EB0E0C2CEA28
:1071B000030C1CEACE1C08BF40F8043BF0D0A1F140
:1071C000040102F10402521E08DB11F8013B002BFE
:1071D00000F8013BF7D11146FFF78EFF204610BDA6
:1071E0004FF0013C50F8042B51F8043B9A4221D156
:1071F000A2EB0C03934313EACC1317D150F8042BE2
:1072000051F8043B9A4215D1A2EB0C03934313EAC5
:10721000CC130BD150F8042B51F8043B9A4209D1FE
:10722000A2EB0C03934313EACC13DBD04FF0000026
:10723000704700BFD01A01BAB1FA81F101F018010C
:1072400022FA01F0CB40C1F12001DBB2C0B2C01A7A
:107250002CFA01F3D11A914311EAC311E6D1704718
:10726000014900F0DFBC00007C61001030B503680C
:107270001C1404EB21459BB289B2194495FBF2F42E
:1072800002FB145301EB034191FBF2F302FB1311D8
:1072900001E05B1E11440029FBDB016003EB0440AD
:1072A00030BD2DE9F04704464FF0FF3A86B0006844
:1072B000029060680390A0680490E06801902069E3
:1072C00000906569B5F1804F7EDCB5F1404F7BDB06
:1072D0003C22002102A8FFF7C9FF3C22014603A877
:1072E000FFF7C4FF1822014604A8FFF7BFFF411EA5
:1072F00040F2B55201A8FFF7B9FF0C2206466846D6
:107300000021FFF7B3FF00EB860028443E4D002626
:107310007D440FE09A1A491CCDE90012022902D0DF
:107320000C2907D104E0810704D0521C019201E02E
:10733000401C00960099019B6A5C9A42EADD012993
:1073400006D11C2B04D1810702D00221CDE9001601
:10735000A0F146018B2940D20199009B00220F46E3
:1073600002E0AE5C521C31449A42FADB012B02DD92
:10737000820700D0491E40F2B55540F26D16C21783
:1073800000EB927292106A4300F0030505FB06229F
:1073900085070A4400D1521E049D02EB4206DDF827
:1073A0000C80A94605EBC605184EC5EB0515DDF8A2
:1073B00008C008EB850535442E14ADB2C6EB0616A1
:1073C000C5EB0515B60000E007E00CEB850506EB04
:1073D000154666F31F45360C03D0504606B0BDE88F
:1073E000F0877F1CC4E90430521C072092FBF0F3A5
:1073F00004F1180600FB1320A6E803042846C4E99C
:107400000297C4E900C8E9E775E50000A039CEFDA0
:1074100070B5054601B90721541A241DB4F5B67F8D
:1074200009DD286800F060F9A04204DC2868401CEF
:107430002860012070BD002C05DA2868401E2860F5
:1074400000F052F90444072094FBF0F0401C70BD9A
:107450002DE9F04F1F4615468B468246002689B01F
:1074600000F092F9D0F810800024BBF1000F70D02A
:1074700015F8010B10B125280DD10FE024B1641EC1
:1074800006A850F82450F3E7002130460AF8061009
:1074900009B0BDE8F08F0AF80600CCE0E94615F81F
:1074A000010B592870D023DC49286ED014DC442805
:1074B0006DD008DC2528EED041283ED0422849D0A6
:1074C00043282CD157E04528E9D0462868D04728E2
:1074D00076D0482823D17CE04D380C281FD2DFE835
:1074E00000F0891E061E1E9FA5AEB9BBC7D6D6E703
:1074F0005A38212813D2DFE800F0111212121212AA
:10750000121A2637435012592D127612127A7F1210
:1075100081128A129BA812B9C3D11100A8E72520B5
:107520000AF80600761C5E4513D26D1EA0E7D8F857
:107530000010BA69D8F8240011E0D8F80410BA692C
:10754000D8F828000BE0D8F808103A69D8F82C00D1
:1075500005E0B5E0D8F80C103A69D8F8300002FB25
:10756000001101EB0809ADE006A840F82450D8F856
:107570001810641C51E07969642091FBF0F293E0EB
:10758000FA6891E0484621E090E024E0FFE706A891
:1075900040F82450641C65A56AE7FA6866A1F1E723
:1075A00006A840F82450641C64A561E7384600F042
:1075B000B0F8642190FBF1F201FB12025EE0FFE7FC
:1075C000384600F0A6F802465FA1684600F032F99E
:1075D00078E0BA6868E0B8680B300C2190FBF1F2F3
:1075E00001FB120204E0FA6958A1521CCAE73A6989
:1075F000521C59E07A6857E00A211AE0B8680C2852
:1076000002DAD8F81010ACE7D8F81410A9E706A8E9
:1076100040F82450D8F83410641C01EB080527E723
:1076200006A840F82450641C4AA521E73A683BE0CC
:1076300009210AF80610761C5E45ADD340E006A885
:1076400040F82450641C45A512E7BA6902B9072224
:1076500045A197E700210CE0786900F26C70089072
:10766000D7E9061208A8FFF7D3FE06E0BA69EFE7EC
:107670000121D7E9062000F02AF802463CA1A4E740
:1076800006A840F82450D8F81C10641CC5E706A8CA
:1076900040F82450D8F82010641CBEE779696420B3
:1076A00091FBF0F200FB121231A16BE77A6926A17F
:1076B00002F26C7266E70AF80600761C5E4501D39A
:1076C0000020E5E619F8010B0028A8D0F3E7511ACD
:1076D00001D501F10701401A01D5002070470721AB
:1076E00090FBF1F0401C704781070CD1642190FBA6
:1076F000F1F201FB120151B94FF4C87190FBF1F2A4
:1077000001FB120018B1002000F26D10704701203B
:10771000FAE708B5416901F26C710091D0E90612EF
:107720006846FFF775FE009808BD0000256D2F25FF
:10773000642F2579000000002532640025592D258D
:107740006D2D25640000000025640000252E3364A3
:107750000000000025483A254D00000025483A2544
:107760004D3A255300000000252E31640000000032
:10777000252E3264000000007047704770470000FB
:1077800000487047AC62001000487047C4620010A7
:1077900000487047A46200107047704770477047F8
:1077A00038B504460A4600206946AFF30080002839
:1077B00008BF38BD02460099204600F091FA01202A
:1077C00038BD012000F09EBFF8B5AFF3008005463C
:1077D00000200C46102000BF0646A819A0420DD973
:1077E000324669460020AFF30080070008BF00F072
:1077F00089FF0098A04218BF0546C419FFF7C0FFD3
:1078000005600746F01D20F007004619284600F0E5
:107810000AF8B44208BFF8BDA21B31463868BDE87B
:10782000F84000F05DBA00210160C0E90110704726
:10783000102070470FB41CB5084B06AA7B4469465C
:107840000090059800F06DF804460020694600F0AD
:107850007BF820461CBC5DF814FB00000901000009
:107860002DE9F0470D4699469246044600F124085A
:107870000168880604D5E06921F01001216000E06C
:107880000120A84202DDA0EB050700E00027A16966
:1078900007EB050202EB0900A1EB0000A0612078D4
:1078A000C00602D42046FEF7E7FE002608E0D4E931
:1078B00001211AF806009047206A401C761C2062BD
:1078C0004E45F4DB2078C0060AD52046FEF7D4FEEC
:1078D00006E0D4E9012130209047206A401C206254
:1078E000381EA7F10107F4DC07E0D4E9012118F8FC
:1078F00005009047206A401C2062281EA5F1010562
:10790000F3DC2046FEF7CFFE2078000602D50220E9
:10791000BDE8F0870120FBE701694A1C0261087895
:10792000704700B58FB0CDE90131002105910549BF
:107930007944CDE9031011466846FFF73BF80FB0D4
:1079400000BD0000E5FFFFFF0A6802F8010B0A60B6
:10795000704710B5436913B1AFF3008001E0FEF743
:10796000C6FE012010BD127800F124010A70002229
:107970004A700122EDE711684FF0FF32E9E710B5D8
:10798000436913B1AFF3008001E0FEF72BFF012044
:1079900010BD128800F1240182840022C2840122D9
:1079A000EDE711684FF0FF32E9E73A2800D23038AE
:1079B00020F02002412A01D3A2F13700884201D3EE
:1079C0004FF0FF30704700000268114413780160E7
:1079D00018467047D160054979445161044979449A
:1079E000116200211161114600F0DAB9EDFFFFFFCD
:1079F00033030000426842B1016811F8013B23B132
:107A0000521EC0E90012184670470121C160881E4D
:107A1000704742685AB1C368016843B983688B42B2
:107A200005D0491E521CC0E90012002070474FF0DB
:107A3000FF3070472DE9F04791460F4680460446D7
:107A4000002614F8015B2DB100F042F90068405D9A
:107A5000C007F6D12B2D02D02D2D18D0641E4A461A
:107A60003946204600F054FB27B13968A14201D1C4
:107A7000C7F800804FF0020471050BD54042002882
:107A800003DDFFF785FE0460A007BDE8F08746F43C
:107A90008066E4E70028F8DAFFF77AFE04606FF00A
:107AA0000040F2E7007B00F08000704710B501460F
:107AB000C268900703D0900607D5886A0BE0FFF7ED
:107AC00067FE01210160881E10BD8B69486818445B
:107AD0000B69A0EB030091F8483023B191F84910ED
