:020000040000FA
:10000000B80A0010710100007501000077010000BE
:10001000790100007B0100007D010000000000006C
:100020000000000000000000000000007F01000050
:100030008101000000000000830100008501000034
:100040008701000087010000870100008701000090
:100050008701000087010000870100008701000080
:100060008701000087010000870100008701000070
:100070008701000087010000870100008701000060
:100080008701000087010000870100008701000050
:100090008701000087010000870100008701000040
:1000A000F90F0000870100008701000087010000B0
:1000B0008701000087010000870100008701000020
:1000C00087010000870100008701000000F002F8AE
:1000D00000F03AF80AA090E8000C82448344AAF1A8
:1000E0000107DA4501D100F02FF8AFF2090EBAE8A6
:1000F0000F0013F0010F18BFFB1A43F0010318475C
:1001000084180000A4180000103A24BF78C878C1F1
:10011000FAD8520724BF30C830C144BF04680C600D
:10012000704700000023002400250026103A28BF55
:1001300078C1FBD8520728BF30C148BF0B60704759
:100140001FB51FBD10B510BD00F05AF81146FFF7DE
:10015000F7FF01F037F900F044F803B4FFF7F2FFBE
:1001600003BC00F073F80000D0F800D0D0F804F021
:1001700008480047FEE7FEE7FEE7FEE7FEE7FEE78A
:10018000FEE7FEE7FEE7FEE703480449024A044BA8
:1001900070470000CD000000B8080010B80A001039
:1001A000B808001000F0EABC70477047704770470D
:1001B000022803D0032803D100F093BC00F0AEBCAA
:1001C0007047704770477047704770477047704777
:1001D0007047704770477047704770477047704767
:1001E00070470446AFF300802046FFF7B6FF0000DB
:1001F000004870475808001070470000443322112F
:100200007546FFF7F5FFAE4605006946534620F0F8
:100210000700854618B020B5FFF7B6FFBDE82040BF
:100220004FF000064FF000074FF000084FF0000BB2
:1002300021F00701AC46ACE8C009ACE8C009ACE865
:10024000C009ACE8C0098D4670470000014918207C
:10025000ABBEFEE726000200194810B5007810F08A
:100260001F011748C07829D115490839012806D03F
:10027000134A0228937806D003281FD112E01148B0
:100280000860122012E01048002204E004780CB14B
:1002900044882044521C9342F8D1027872B108601D
:1002A000408803E009481844086000788A88824240
:1002B00000D9888000F071FC012010BD002010BD25
:1002C00034000010B0170000C2170000E317000050
:1002D000EB3C904D53444F53352E30000202010049
:1002E000011000EC03F802000100010000002045AD
:1002F0004E41424C4500000000000000FFFFFFFFA0
:1003000070B553482021C0F8A01100BFD0F8A0114B
:100310004906FBD500F180000324C0F884404FF06B
:100320000003C0F82831C0F82C314FF00105C0F8A7
:100330008C504FF00B01416005604FF0AA01C16085
:100340004FF05502C260A0F1800000BFD0F8886075
:100350007601FBD540F8804FC160C260232646621B
:100360000562C162C262A0F1800000BFD0F8A8504F
:100370006D05FBD588308461416242623549C163B5
:10038000C0F8403150F888196FEA11618A07324984
:10039000D0F80C2102F0030207D082B3012A44D026
:1003A000022A48D0032A4FD139E02AB1012A11D0BC
:1003B000022A25D0032A47D150F8882FC2F30E0213
:1003C000521C53000268C2F30742521CB3FBF2F204
:1003D000224B0CE050F8882FC2F30E02521C53003F
:1003E0000268C2F30742521CB3FBF2F21C4B5A43A1
:1003F000C36F8838DBB25B1CB2FBF3F223E00EE084
:1004000050F8882FC2F30E02521C53000268C2F348
:100410000742521CB3FBF2F24FF4FA43E7E7D0F87D
:1004200004210E4BD2B2521C0BE0D0F804210C4B2D
:10043000D2B2521C05E0D0F804214FF4FA43D2B2F4
:10044000521CB3FBF2F20A6043F23A01016070BD44
:1004500000C00F40DE8728840000001000093D0026
:10046000001BB700FE490020087001207047FD49BD
:100470000020087001207047F0B5FB4C0023FB4DB5
:10048000A6683DE0B0F5007F23D213280DD01428D4
:1004900013D0B0F5FF7F18D0A0F58072FF3A16D0C8
:1004A0001D2828D8F24A125C26E06A6FA768D21B82
:1004B00002F60102C2F347221EE06A6FA768D21B50
:1004C00002F60102C2F3474216E0552214E0AA22C6
:1004D00012E0B0F5006F04D2E64A0244A2F50072C1
:1004E00007E0E54AE54F1268BA4204D13218A2F596
:1004F0000062127800E00022E14F401CFA545B1CBD
:100500008B42BFD3F0BD70B5D54DEC68402C00D9FF
:100510004024D648416FD4488068091AA86801F67B
:10052000010203199A4204D20C1A042104F60104B0
:1005300029702146FFF7A0FF2246D149822000F012
:1005400022FDA8682044A860E868011BCC48E96047
:1005500000F19F008268A2EB0402826005D0297836
:10056000022901D00021017370BD03212970F9E730
:10057000C34910B59F31C34808600D22822000F0A6
:1005800002FDB7490520087010BD2DE9F05F054652
:10059000B5480E46B5F5007F80682BD3B5F5006FE2
:1005A0002AD2B74FDFF8E0A20024DFF8CC92403720
:1005B000DFF8C0824FEA3A4B1AE0291901EB080232
:1005C000385DA2F50072E528107010D1D9F800301E
:1005D000534501D05B450AD1B1F5C46F07D1A0489E
:1005E000006920B900F036FE9D4901200861641CB5
:1005F000B442E2D3BDE8F09F2844BDE8F05F0A466C
:100600009F49A0F50060403100F0D8BD974810B573
:10061000416F9548924C80686378081AA16800F68B
:1006200001020B449A4207D2401A401C6070052018
:100630002070022000F062FC6178A068FFF7A5FF3F
:100640006178A0680844A060E068421A8C48E260C3
:1006500000F19F008368A3EB0101816002D0217843
:10066000052904D100210173BDE8104080E710BDC9
:100670002DE9F0417D487A4C416F7B486378806872
:10068000081AA16800F601020B449A4207D2401AE8
:10069000401C607005202070022000F02FFC784B79
:1006A0000020617803F14005A26808E016182F5C6D
:1006B0009E5DBE4202D00020606002E0401C884285
:1006C000F4D35018A060E068421A6D48E26000F16F
:1006D0009F008368A3EB0101816002D02178052986
:1006E00008D1616821B100210173BDE8F0413FE705
:1006F0000121F9E7BDE8F081614810B58030D0F8FC
:100700001110027D09BA21F0FF011143544A490238
:100710009160C18A49BA4902D160806888420DD08F
:10072000822000F0EBFB022000F0E8FB544902209D
:100730009F310873FFF71CFF002010BD012010BD82
:1007400070B54F4880300224816800F11F0529B13F
:10075000007B000607D4022000F0D0FB2C73FFF7CB
:1007600007FF002070BD012070BD10B544483C4C0F
:10077000803080686178884200D260704049627839
:100780004031822000F0FFFB032020703C4862785B
:100790009F308168891A81600021017310BD38483B
:1007A00010B58030816839B1007B000601D5822008
:1007B00000E0022000F0A2FB314900209F310873C5
:1007C000BDE81040D4E610B5FFF7BAFF00281FD0EF
:1007D0002B4870214030022201700021417082704C
:1007E000C1700171417181710A22C271017241723D
:1007F0008172C17230220273012242738173C1730C
:1008000001744174164912204870BDE81040ACE7ED
:1008100010BD70B5FFF794FF00285DD01848002286
:10082000403080230270437082700121C17020210A
:10083000017143718271C2714C2202722E22427286
:10084000502383726524C4726E2505736725457332
:1008500084737224C473462404744924447415E0D8
:1008600004000010F0060010941800000C1900009D
:10087000D002000044000010FC01000044332211AB
:100880004406001055534253214365875225857411
:100890004D24C47457240475412444758575452539
:1008A000C57501765526467683764423C37604774C
:1008B000542343778577C177312380F8203080F83F
:1008C0002120302280F8222080F82310A6492420FD
:1008D0004870BDE8704048E770BD10B5FFF730FFC5
:1008E00000280CD0A14803210170002141708170C3
:1008F000C1709D4904204870BDE8104035E710BD27
:1009000010B5FFF71DFF002810D0984800210622DF
:10091000017042708170C170017141718171C1714A
:10092000914908204870BDE810401EE710BD10B581
:10093000FFF706FF00281ED08D48416F8D48806864
:10094000081A00F601004FF0FF3101EB50218748F3
:100950000A0E02700A0C42700A0A8270C1700021ED
:100960000171417102228271C1717F490820487072
:10097000BDE81040F9E610BD10B5FFF7E1FE002814
:1009800021D07A4800210822017041708170C27024
:10099000774A0171536F774A92689A1A02F60102F8
:1009A000530E4371C2F347438371C2F34722C271AE
:1009B0000222027241728272C1726B490C2048702D
:1009C000BDE81040D1E610BD2DE9F041664D674C01
:1009D000002168784034654A02E0535C6354491C46
:1009E00003468142F9D31F2B72D1206862498842A5
:1009F0006ED15E4E60685F364FF001087060A0688F
:100A0000B060607B18B9A07B08B1102802D986F8C5
:100A10000C8059E0E07B1E28F9D00FDC12282ED084
:100A200005DC48B30328F2D1BDE8F041CBE6152838
:100A3000EDD01A28EBD1BDE8F0414EE702272A2875
:100A400028D010DC23281DD025281ED02828DED150
:100A5000FFF752FE002826D0207B000618D52F7005
:100A6000BDE8F0414FE52F281ED05528CFD05A2899
:100A7000CDD1BDE8F04143E7BDE8F0418FE6BDE8E8
:100A8000F041C6E6BDE8F04176E7BDE8F0414EE74B
:100A9000022016E0FFF730FE002804D0207B00067D
:100AA0000ED485F8008025E6FFF726FE0028FAD050
:100AB000207B000604D485F80080C5F8048019E680
:100AC000822000F01BFA3773BDE8F04150E5FFE7E4
:100AD000822000F013FA022000F010FA062028709D
:100AE00008E6214810B50178022908D003290ED064
:100AF00004290FD0052901D10021017010BD1B4828
:100B00004030C07B2828F9D1BDE81040FBE4BDE8A7
:100B100010402DE5822000F0F1F9F8E710B51349F7
:100B2000022000F0FFF910494870087858B10128F8
:100B30000CD0022000F0E2F90C4902205F3108736A
:100B4000BDE8104014E5BDE810403DE707484030DF
:100B5000C07B2A2804D02F2805D1BDE8104087E5A6
:100B6000BDE8104052E510BD0400001084060010DE
:100B70000C190000941800005553424366480021A8
:100B80004FF00112818001704170C0E9022170476D
:100B900061491C31002000F0C5B910B55E4C143419
:100BA000A288402A00D940228020216800F0EBF979
:100BB000216801442160A188081AA08010BD10B5E9
:100BC000554C00201434216800F0ACF92168014430
:100BD0002160A188081AA08010BD00221146802043
:100BE00000F0D1B94D49002000F09CB92DE9F04149
:100BF000494E00271C36484D3178A6F108040828D4
:100C000063D2DFE800F06204647262628381FFF7FE
:100C1000BFFF3078C00900F052F9F088A08030782A
:100C2000C0F34111F1BB71780C294AD2DFE801F021
:100C30000609490B49101A1D1F25314200F0F0FB2F
:100C40004DE0002000E0012000F02AFC50B306E057
:100C500010F01F0F35D1B07840F080002870BDE84B
:100C6000F041BAE7FFF7F8FA39E000202AE010F087
:100C70001F0F26D12848401C1AE010F01F0F20D16A
:100C800000F056FC70B1FFF7A8FFBDE8F041FFF798
:100C90008DBA00F01F00012813D1687810B13079A7
:100CA000A97800E00DE088420BD21B4910310844BE
:100CB00020601CE000F01F00012802D100F0E0FCE1
:100CC000C4E7802000F01AF9A780BDE8F08108068B
:100CD00008D4A0880028F8D0FFF771FFA08800286A
:100CE000EFD0F2E7BDE8F0417CE7080602D5BDE8A9
:100CF000F04152E728780106E7D500F07F00287020
:100D0000BDE8F04100F043B8802000E00020BDE8DD
:100D1000F04100F0FDB8000018000010F0060010CF
:100D200001464FEA00704FEAD060090600D5401C2A
:100D30007047E0491022C1F80822C1F8100200BF34
:100D4000D1F80002C006FBD57047DA4A1023C2F87A
:100D50000832C2F8100200BFD2F80002C006FBD56C
:100D6000C2F80832C2F81012D2F80002C006FBD551
:100D70007047D0493022C1F80822C1F8100200BFE4
:100D8000D1F800028006FBD5D1F81402704730B5C7
:100D9000C949CA4D41EA004421462846FFF7D5FF1C
:100DA00021462846BDE83040CFE7C5480021016014
:100DB00040214160012202604160A0F5127000BF35
:100DC000D0F80012C905FBD500F501704FF0FF31D6
:100DD0004163016341600C2101607047B94900B56E
:100DE0001A200860091D0A6830EA0202FBD1B648E1
:100DF000016921F440210161016941F4802101610F
:100E0000C16821F04051C160C16841F00051C1602A
:100E1000416821F070514160416841F0A05141604A
:100E2000AA484FF080710160FFF7BFFF00205DF816
:100E300004EBACE700B101204FF4807141EA0041BE
:100E4000A34882E770477047A2480078800702D520
:100E5000A1499F4879E77047704710B500B101205C
:100E60004FF4807444EA00419C48FFF76EFF9148BC
:100E70000321C0F8441200BFD0F80012C905FBD509
:100E8000C0F8084210BD10B502468078FFF748FF51
:100E90008B49091F0B68012404FA00F423430B60FB
:100EA000486090888860A1F5117100BFD1F80002F8
:100EB000C005FBD54FF48070C1F8080210BD704723
:100EC00000B5FFF72DFF86495DF804EB41EA0040CD
:100ED00089133AE700B5FFF723FF81495DF804EB7A
:100EE00041EA00407F4930E700B5FFF719FF7C4930
:100EF0005DF804EB41EA0040891326E700B5FFF7EF
:100F00000FFF77495DF804EB41EA004072491CE7A6
:100F100000B5FFF705FF72495DF804EB41EA0040B8
:100F2000891312E700F00F02012370B503EB82036F
:100F3000604AC2F8283200BFD2F820321C05FBD527
:100F4000C3F309030024DD1C05E000BFD2F81862DA
:100F500041F8046B641CB4EB950FF7D30021C2F881
:100F6000281241F24821C140C9070AD1FFF7D8FE33
:100F70004FF4A06141EA0040FFF7DBFE5A48FFF75B
:100F8000D8FE184670BD70B513460546494C00F0B2
:100F90000F00022202EB8000C4F82802C4F82432B9
:100FA0000020DA1C05E000BF51F8046BC4F81C6295
:100FB000401CB0EB920FF7D30020C4F8280228465B
:100FC000FFF7AEFE4FF4A06141EA0040FFF7B1FE2B
:100FD0004648FFF7AEFE184670BD10B54448FFF70F
:100FE000A8FE444C2046FFF7C4FE03462046FFF708
:100FF000C0FE43EA002010BD2DE9F0412D4DD5F88B
:101000000032C5F8083218071BD53148FFF791FEAA
:101010003948FFF7AEFEC10605D5FFF7C6FEBDE8AD
:10102000F041FFF7BFB8810710D4010709D5400789
:1010300003D5BDE8F041FFF7B7B8BDE8F041FFF7D1
:10104000B4B82E4E58074FF001071DD4BDE8F0810B
:101050005FF00004D5F8301207FA04F0014210D016
:101060004FEA5401C5F83802D5F800028006FBD5D6
:10107000D5F81402E2070CD056F8211009B103206C
:101080008847641C202CE5D3D5F830020028DFD136
:10109000DCE744B9400706D5306820B1014601209D
:1010A00088470124D6E756F821100029E9D002200C
:1010B000E6E7000000C00050000180000005D000FD
:1010C00048C20050F4CF005000C0024000E100E0F0
:1010D0000005FE001C000010000101000005D80002
:1010E00000054000000120000005F2000005FA00A4
:1010F0000005F5000002F5000002FE005418000093
:1011000062B670475B4A104772B6704710B572B648
:101110003324594B03F1040C1C60ACE8070057481A
:101120004FF47A710068B0FBF1F0186103F114011B
:101130001846FFF7E7FF62B610BD4F4A322313602F
:10114000C2E901014D484FF47A710068B0FBF1F03B
:10115000D06002F114011046D4E7474A34231360EB
:10116000C2E9010145484FF47A710068B0FBF1F023
:10117000D06002F114011046C4E710B572B6022423
:101180003F4900BF51F82420824212D93C497839A6
:1011900051F82410814207D121460846FFF7CDFFC0
:1011A00021460846FFF7D9FF21460846FFF7C5FF4D
:1011B00002E0641C1D2CE5D962B610BD2DE9F0419A
:1011C000304C236803B920602B4D0020283563681C
:1011D00003E00F5C1E18401CAF559042F9D39818DD
:1011E0004FF480766060B04213D12068FFF7C5FFEE
:1011F000214D1435286800B1FEE71F4932462831D9
:101200002068FFF783FF286800B1FEE700206060D8
:1012100020600020BDE8F0811B494FF400500860B9
:10122000FEF7A2BF144810B53521016002214160CC
:10123000816000F11401FFF765FF0F48143000686A
:10124000002800D0012010BD1048406BC00200D51E
:10125000E2E7704710B51D210220FFF76EFF1D2148
:101260000220FFF77AFF044814300068002800D0FD
:10127000FEE710BDF11FFF1F300700100000001037
:101280000C1900003C00001008ED00E000C009202F
:10129000002201E004C0091F0029FBD170478142F0
:1012A00003D1704708C8121F08C1002AFAD170473D
:1012B000FFF726F84C48016A41F480210162C16BB6
:1012C00041F48021C163494908684FF2FF02104090
:1012D000474A40F480701043086046490020464B5E
:1012E0000860F8201870FF20587098704348444AEE
:1012F0000325406F92682946801A00F601040222F5
:1013000002EB942617E000BF4FF0FF3202EB94226D
:101310008A4202D140F6FF7200E04A1CC1F3032763
:1013200047EA021C59555F19C2F3071287F801C03A
:10133000ED1CBA70891C8E42E6D8324A00215D1835
:10134000545C491C85F800444029F8D32E492F4CA1
:101350000A68A24221D02E4CA24203D1264C31224F
:1013600084F803242B4C0A68A24203D1224C322277
:1013700084F803240968284A914203D11E4A332184
:1013800082F80314254A042154185D1814F8044CFB
:10139000491C85F800440B29F6D31749401C164A0E
:1013A00081F83C04010A82F83D14010C82F83E14D5
:1013B0001146000E81F83F04FFF710FD0120FFF7F2
:1013C00039FDFEE7104814490068884204D1FFF750
:1013D00029FF08B1FFF720FFFFF724FF08B1FFF74F
:1013E00033FFFFF765FF000000C009200CED00E0AF
:1013F0000000FA0514000010440000100C19000051
:101400009418000070170000FC0100004433221102
:10141000785634122143658765872143EE02000028
:1014200070B51D481C4D0078A5F1080510F01F048B
:101430000AD01948A5F11401184B4A780079012CFB
:1014400006D0022C26D109E01348183828601DE088
:1014500002B3897888421DD2002015E000F08F0485
:10146000200605D504F00F064FF48030B04001E0AF
:101470000120A0400AB922070CD18A68024209D093
:10148000C9680142E8D0012018802B60FFF785FB76
:10149000012070BD002070BD34000010F006001067
:1014A00070B502462148A0F11C04017811F01F0319
:1014B0000146498804D0012B29D0022B27D111E005
:1014C000012924D132B10120FFF7C6FCA08840F0E9
:1014D000020005E00020FFF7BFFCA08820F002001A
:1014E000A08021E0007900F08F00030605D500F010
:1014F0000F034FF480359D4001E00125854063785E
:101500002BB1030703D0A3682B4200D009B1002000
:1015100070BD22B1FFF7F2FCE068284303E0FFF75B
:10152000F7FCE068A843E060012070BD34000010C3
:101530002DE9F84F504F00200090B8784FF0000987
:101540004FF0010A4FF4803BA7F11C0600286AD037
:101550004A4C64E06078022804D0042840D0052872
:101560005BD140E06179B878814237D170702079E1
:10157000B070414900200C3901F80090401C04284B
:10158000FAD301254FEA06080AFA05F0D8F8081040
:10159000084202D02846FFF79DFCD8F808100BFA45
:1015A00005F0084203D045F08000FFF793FC6D1C66
:1015B000102DE9D34FF00110C8E902090120FFF70F
:1015C0004CFCE0794006B8F8040002D540F0010078
:1015D00001E020F00100A8F804001EE060881DE092
:1015E000E078009019E00098B8B9A07800F08F0575
:1015F000280604D505F00F010BFA01F001E00AFA04
:1016000005F0B16801432046B160FFF73CFC284675
:10161000FFF756FC2846FFF767FC20780444207843
:10162000002897D11FE086F8019001245546D8463E
:10163000B16805FA04F0084202D02046FFF74AFCE0
:10164000B16808FA04F0084203D044F08000FFF7C4
:1016500041FC641C102CEBD34FF00110C6E90209C9
:101660000020FFF7FAFBB8787178884202D1012098
:10167000BDE8F88F0020FBE734000010C21700001F
:101680002DE9FC5F384D00273E466878BB46B846DA
:10169000002866D0BA46354C05F11C095DE060783B
:1016A000022804D0042808D0052854D119E0607914
:1016B000697888424FD060884EE0A77899F8041086
:1016C000E6784FF00008B94245D199F80200B042DF
:1016D00041D125484FF0010A103010F807B0C65527
:1016E00039E099F80410B94235D1A17801F08F01A1
:1016F0000191090605D5019901F00F024FF48031DF
:1017000001E0019A01219140009199F80200B04254
:1017100013D1A8680843A860E9680098814320466F
:10172000E960FFF7B0FB0198FFF7CAFB0198FFF7EC
:10173000DBFB009948EA01080DE05E450BD118EA91
:10174000010F08D1A8688843A860E8688843E8606A
:101750000198FFF7BFFB20780444207800289ED131
:101760005046BDE8FC9F000018000010C2170000A2
:101770004352502044495341424C45280000000048
:101780000000000000000000000000000000000059
:101790004649524D5741524542494E2018BC419747
:1017A0003738373800003D6E2B38020000D0070074
:1017B000120110010000004051C203130001042077
:1017C00048010902200001010080320904000002E2
:1017D0000806506207058202400000070502024029
:1017E000000000040309041C034C00500050005288
:1017F000006F006A00650063007400730020002021
:1018000000200028034600690072006D0077006127
:1018100000720065002000750070006400610074B3
:1018200000650020002000200020001A034C002E3C
:1018300000500065006E0067006500720020002007
:1018400000200020000E034D0065006D006F007247
:1018500000790000ED0B000000000000B101000065
:101860000000000000000000000000000000000078
:101870000000000000000000000000000000000068
:101880000000000000000000000000000000000058
:101890000000000000000000001000000020000018
:1018A0000030000000400000005000000060000018
:1018B00000700000008000000090000000A0000008
:1018C00000B0000000C0000000D0000000E00000F8
:1018D00000F0000000000100008001000000020094
:1018E00000800200000003000080030000000400EC
:1018F00000800400000005000080050000000600D4
:10190000008006000000070000800700FF0F0000B5
:10191000FF1F0000FF2F0000FF3F0000FF4F0000EF
:10192000FF5F0000FF6F0000FF7F0000FF8F0000DF
:10193000FF9F0000FFAF0000FFBF0000FFCF0000CF
:10194000FFDF0000FFEF0000FFFF0000FF7F01004E
:10195000FFFF0100FF7F0200FFFF0200FF7F030087
:10196000FFFF0300FF7F0400FFFF0400FF7F05006F
:10197000FFFF0500FF7F0600FFFF0600FF7F070057
:10198000FFFF0700A4190000000000104400000041
:1019900008010000E819000044000010740A00006B
:1019A0002401000000093D000000000000000000CC
:1019B0000000000000000000000000000000000027
:1019C0000000000000000000000000000000000017
:1019D0000000000000000000000000000000000007
:0819E0000000000000000000FF
:04000005000000CD2A
:00000001FF
