:020000040000FA
:10200000906B0010653A00006D3A00006F3A0000D6
:10201000713A0000733A0000753A000000000000B9
:10202000000000000000000000000000773A0000FF
:10203000793A0000000000007B3A000019230000FC
:102040007F3A00007F3A00007F3A00007F3A0000AC
:102050007F3A00007B460000E54600007F3A000022
:102060007F3A00007F3A00007F3A00007F3A00008C
:102070007F3A00007F3A00007F3A00007F3A00007C
:102080007F3A00007F3A00007F3A00007F3A00006C
:102090007F3A00007F3A00007F3A00007F3A00005C
:1020A0007F3A00007F3A00007F3A00007F3A00004C
:1020B000554000007F3A00007F3A00007F3A000060
:1020C0007F3A00007F3A00007F3A000000F002F8FB
:1020D00000F05BF80AA090E8000C82448344AAF167
:1020E0000107DA4501D100F050F8AFF2090EBAE865
:1020F0000F0013F0010F18BFFB1A43F0010318473C
:10210000D4C60000F4C60000103A24BF78C878C1D5
:10211000FAD8520724BF30C830C144BF04680C60ED
:10212000704700000023002400250026103A28BF35
:1021300078C1FBD8520728BF30C148BF0B60704739
:102140006E2902F06B84702902F07E84642902F00B
:102150002984732903F03782002070471FB59DE85A
:10216000030003F047F902F098FF04F05BF8040065
:10217000002000210BF032F8401C606003F08AFF61
:102180001FBD10B503F0EFFF10BD04F026F8114697
:10219000FFF7E4FF00F0BCFA04F076F903B4FFF7B0
:1021A000F0FF03BC01F07BFD0B49D1F800C04A6889
:1021B0005CF8043B1068184442F8040B8C4528BFB7
:1021C000A1F1DC0C8A4228BFA1F1DC02C1F800C0F9
:1021D0004A6020F000407047285E0010FEA006F024
:1021E000A7BB00B5C5B00020ADF8040102E0684609
:1021F00006F08EFA6946F9A006F0BAFA0028F6D081
:1022000045B000BD4FF4E131002002F0A5B90A4607
:102210000146002002F017BA10B5044602F07CFF18
:1022200021460246BDE81040002002F00CBA0146EB
:10223000002002F0F8B9EA48016A21F48011016235
:102240007047E748016E41F000710166016E41F090
:1022500080610166816F41F000718167816F41F09B
:10226000806181677047DE4920B1C86F40F000701F
:10227000C8677047886F40F0007088677047D8491A
:1022800020B1C86F40F08060C8677047886F40F029
:10229000806088677047D248406F00F00070E2E7C6
:1022A000CF48406F00F08060E9E7F8B50646174672
:1022B0000C4688B20AF098FD05462246314602F0E7
:1022C0004AFFA0B20090C7482B4643F60E0239469B
:1022D00000780AF085FEF8BD70B5049D642D0AD81B
:1022E000C04C08682A4660651946BF4802F033FFB3
:1022F0000120E5616062012070BD10B5AFF22702D8
:10230000032100200AF080FDB6490870BDE81040A6
:1023100043F60E010AF0A6BD70B5B24CA06A0025C6
:10232000142803DBA56200F0CDFF02E0A06A401C88
:10233000A062E06A0A2821DBE56201266664206B60
:102340000A2817DB2563A664606B0A280EDB656329
:10235000E6640AF029FDE663A06B0A2802DBA563A8
:10236000266570BDA06B401CA06370BD606B401CF7
:10237000606370BD206B401C206370BDE06A401C30
:10238000E06270BD10B5974CE06B01280BD10020C6
:102390000146E0630422954809F024F9216C0843C2
:1023A00001D10120206410BD00B587B00020049049
:1023B00005900DF11500821EC31E05A9CDE902107E
:1023C000CDE900328A48CB1E04AA806889A102F0B8
:1023D0002DFC9DF81010FF2901D031BB15E09DF8B0
:1023E0001100FF2821D19DF81200FF281DD19DF872
:1023F0001300FF2819D19DF81400FF2815D19DF86E
:102400001500FF2811D107B000BD9DF8110060B97B
:102410009DF8120048B99DF8130030B99DF81400DA
:1024200018B99DF815000028EDD07A4801709DF884
:10243000111041709DF8121081709DF81310C17039
:102440009DF8141001719DF815104171DBE72DE91D
:10245000FF470025664C029503956FA1206A02F0A4
:1024600025FE002848D004F0A1FF0DF10B077E1EC9
:10247000CDE900670DF10808731E424667A1E068C8
:1024800002F0D4FBDFF86491029908F10103C9F866
:1024900000100096CDE9017502AA60A1206902F042
:1024A000C5FB0299C9F808100096CDE9017508F13D
:1024B000010302AA59A1606902F0B8FB0299C9F8A8
:1024C00004100096CDE9017508F1010302AA53A199
:1024D000A06902F0ABFB0299C9F80C100096CDE997
:1024E000017508F1010302AA4CA1E06902F09EFB0C
:1024F0000299C9F810100295BDE8FF8710B501F0E8
:10250000C6FF494842F210710068B0FBF1F0401E6E
:10251000B0F1807F09D24FF0E0214861434AF820B2
:1025200010700020886107200861002006F04EFA34
:10253000FFF787FEFFF766FE01F014F9052002F0B1
:1025400022F92B4948603AA102F0C2FD01F0EDF8F2
:10255000FFF72AFF08F032FDFFF779FFFFF76BFE68
:10256000FFF7CBFE43F60E0001F07DF800F0B8FF58
:10257000BDE8104030A04FE62DE9F041194F00248E
:10258000D7E9040181426CDC2DA1786802F023FDBB
:102590002C4D06005AD079695A204143002230461A
:1025A00002F04EFC104833465A220121BE3803F097
:1025B00060FE0D48BE38002105EBC40201EBC403E8
:1025C000C35C5354491C0829F8DB641C082CF2DB5B
:1025D0003046BDE8F04137E0533A00002A2E2A0089
:1025E00000C0092000000010D2010010005D0010A2
:1025F00074000010256868783A256868783A25687C
:1026000068783A256868783A256868783A2568686D
:1026100078000000B00000103000000025642E2576
:10262000642E25642E256400C000001023ED00E018
:10263000342E302E30000000496E69740A0000000C
:10264000720000006805001002F0ECBC00220020BF
:1026500005EBC4010A54401C0828FBDB641C082C51
:10266000F5DBBDE8F08170B5C4B0AFF22C01B64C1B
:10267000606802F0B0FC4FF00005ADF804516561F0
:102680000600A56118D06946606806F071F860B967
:102690004098E0605A2808D30121A1605A21B0FB7C
:1026A000F1F02061FFF768FF02E0A8A0C4E901058E
:1026B000304602F0B7FC02E0A4A0C4E9010501F035
:1026C00034F844B070BD30B49F48A0A200214260ED
:1026D0009F4C0A468160002004EBC1031A54401C41
:1026E0000828FBDB491C0829F5DB30BC01F01DB8CC
:1026F00028B1012805D0022805D0032805D00120E3
:1027000070470A207047642070474FF47A70704712
:102710000027B946FFF7F2FEDFF82C82D8F8080050
:1027200008B1FFF7A0FFDFF82CB2002508F0BCFECF
:10273000FFF728FEDBF80010012911D186490A684D
:10274000012A0DD1CBF8005088480D6083A10068A4
:1027500002F0ACFC20B14FF4FA6001F0ADFA9BE05E
:10276000D8F84400444601281BD16564A068C0B174
:102770007F494878FFF7BCFF0978491C4843A169A5
:1027800088420CD8A561D4E90410491E884201DBB7
:10279000656101E0401C6061FFF7EEFE01E0491C4D
:1027A000A161A06C012800D1A564E06C012815D1BD
:1027B000704AE564506BC0020ED4B9F1050F0DDB11
:1027C0000120FFF750FD0120FFF759FD506BC002BB
:1027D000FCD5FFF706FD5FE04FF00009206D0128F2
:1027E00014D12565A06810B1FFF75AFD02E0002062
:1027F000FFF745FD0FB1012000E00020FFF733FD9A
:102800005C48406BC00201D409F10109606AA0462E
:10281000012834D15648C8F8245044466A30D8F8C4
:102820001C1001F00BF8012804D0022812D0032854
:1028300025D131E05048514902684D48801D01F0D2
:1028400026F801462062404A49485432801DFFF76D
:102850002CFD14E0A06890B9454A00213C4C6A3236
:10286000002004EBC10300BF00EBC1061644B6799B
:102870001E54401C0828F7DB491C0829F0DB002700
:10288000DFF8FCA03E4600BFC6EB46110AEB810410
:102890006079032802D002E000F049F80127606F58
:1028A000012800D16567A06F012800D1A567206FBE
:1028B00001282BD12567A01DE16E01F01FF801282A
:1028C00004D0022817D0032820D11DE0D8F8080032
:1028D000E0B91F4B0021002003EBC10C00EBC1024B
:1028E0002244127B0CF80020401C0828F6DB491C0F
:1028F0000829F0DB0AE0A01DE16E01F023F8C8F81A
:102900000400FFF7B0FE01E0FFF7DDFE761CF6B233
:10291000042EB9D31B4C206800283FF407AF0020D9
:1029200001F00CFE2560002001F00FFEFEE6BFF373
:102930004F8F15480168154A01F4E06111430160A9
:10294000BFF34F8FFEE70000000000100000000002
:10295000680500106000001064000010646576696E
:1029600063652E73657474696E6773006800001088
:102970006801001000C0092074000010005D001004
:102980000C060010C80000100CED00E00400FA0571
:102990009FA0704770B50546282003F08FFF0446BE
:1029A00028222146284607F00DFC0500F8D12046D4
:1029B000BDE8704006F064B82DE9F0410C460026F1
:1029C000174601003BD0994E01290BD03046022911
:1029D000006820D003291CD100281AD0BDE8F0419E
:1029E00002F020BB254603E05C2800D1651C641C76
:1029F00020780028F8D1287800280AD0002005F097
:102A0000E5FF08B1002003E089A1284602F0E3FABF
:102A10003060BDE8F0814FF400710028F9D088469D
:102A20003D00F6D0454500D945462A4601212046BD
:102A3000336803F0ACFC781B2C4487B2F0E7002A23
:102A4000E7D0282003F03AFF7A4F0546282229468E
:102A5000204607F0B7FB04462878002856D076A118
:102A6000284609F01CF9012812D077A1284609F060
:102A700016F9012811D079A1284609F010F901288A
:102A80000DD07BA1284609F00AF901281BD020E0CF
:102A900005F10C0005F03CFE1BE0012619E005F1F4
:102AA0001000804605F034FE98B97648006880B181
:102AB0004146386802F03AFC58B9FFF704FE08E0D6
:102AC000714805F025FE704970A005F051FE002800
:102AD000F6D070A1284609F0E2F8012806D072A1CC
:102AE000284609F0DCF801280ED00FE0284602F055
:102AF00013FB0F3801F047FE05F11001386002F0BA
:102B0000E7FAFFF7B0FD01E0FFF7DDFD002C9DD1F6
:102B1000284605F0B5FF012E7FF47BAFBDE8F041FC
:102B2000FFF75FBB2DE9F0430C460178002687B024
:102B30001D46422902D05A2965D15FE0807841289C
:102B400061D15E4FDFF8E48028684FF0000940B99A
:102B5000A7F804910020C8F8049005F037FF00287A
:102B600051D16868E8B12046544A554901F0B2FE97
:102B700086B24448006828B12E485049006802F0E7
:102B8000D5FBA0B3A0194D4A4E4901F0A3FE304435
:102B900080B2C5F80490296840F40046491C2960B9
:102BA00031E0464939A005F0E3FD60BB03AA0021EE
:102BB000D7F8000101F0CEFAD7F800015A21B0FB96
:102BC000F1F003A90097CDE90110D8F804203C49A1
:102BD00020463A4B4446521CBC3901F07BFE6168EA
:102BE00080B2491C61606968491C6960D3E7FFE7EE
:102BF0003349A019983101F06DFEC8E7204632A193
:102C000001F068FE86B207B03046BDE8F0830000F0
:102C1000746578742F786D6C3B206368617273659E
:102C2000743D7574662D380D0A00000058000010C0
:102C3000770000000400001066696C655F64656CD5
:102C40006574653D00000000666F726D61745F66BB
:102C50006C6173683D79657300000000616E695FA7
:102C600066696C655F64656C6574653D00000000B5
:102C700064656C6574655F616C6C5F616E693D79FC
:102C80006573000008000010380200102A2E616EE3
:102C900069000000616E696D6174696F6E5F7374C5
:102CA0006172743D00000000616E696D6174696F4E
:102CB0006E5F73746F703D79657300004803001098
:102CC000C4D20000F8D300003C6120687265663D04
:102CD00027696E6465782E636769273E416E696D6A
:102CE0006174696F6E733C2F613E3C62723E2026B8
:102CF000233134393B20000070B5694C0546002073
:102D0000206060600E46284602F006FA01F03BFDA6
:102D10002946A06002F0DCF931462846BDE8704043
:102D200002F059B910B502F07DF95D490120086043
:102D300010BD10B50C4603460121204603F099FA58
:102D400080B210BD70B5564C01230D46636003463A
:102D50000121284603F01BFB80B270BD10B505F0C1
:102D6000D7FC08B1002010BD012010BD10B505F042
:102D7000D3FE08B1002010BD012010BD2DE9F8439D
:102D8000484C90460D460746042802D20020A4F87D
:102D90000401002606F030F820B94249404605F00B
:102DA000E7FC48B106F028F8002874D03D493EA061
:102DB00005F0DEFC00286ED120782E2808D194F989
:102DC00001000028E6D02E28E4D1A0780028E1D028
:102DD000062F60D2DFE807F003071C231C2334A171
:102DE000D4F8002116E004F5847433A1E078009053
:102DF0002379E288284601F06DFD0646A078009010
:102E000063782278A81930A101F064FD064442E0FD
:102E1000244A31A1284601F05DFD06463BE0B4F8A6
:102E20000E016421B0FBF1F201FB1200009094F856
:102E30000B3194F80C212AA1284601F04BFD0646DF
:102E400094F808010C21B0FBF1F201FB120202B967
:102E50000C220C2801D226A000E026A0009094F8B5
:102E60000931A81924A101F035FD064494F80601A2
:102E7000C00603D5A81924A227A103E0A81928A1F8
:102E8000D4F8002101F026FD84192819054A26A14D
:102E900001F020FD0619B0B2BDE8F88300207047AC
:102EA00060000010580400102A2E616E69000000B6
:102EB00025640D0A0000000025303464253032649A
:102EC0002530326400000000253032642530326441
:102ED000253032640D0A000025730D0A0000000041
:102EE000253032642D253032642D253032640000C7
:102EF000414D0000504D00002020253032643A251D
:102F00003032642573000000202020202020203C47
:102F10004449523E00000000252D3231730000006C
:102F200025323164000000002025730D0A000000E6
:102F300019A102F050B802F075B810B50C4603465E
:102F40000121204603F095F980B210BD10B513465B
:102F50000C4602461946204601F03BFF002800D0EF
:102F6000012010BD70B506464FF4887003F0A6FC32
:102F700004460020A4F8040105462146304605F029
:102F8000F7FB20B904F5847007F01AF805462046CF
:102F900005F076FD284670BD72000000FC4902066F
:102FA00004D58A6D42F480528A6503E0CA6D42F40A
:102FB0008052CA65420604D58A6D42F400528A6581
:102FC00003E0CA6D42F40052CA65820604D58A69DC
:102FD00042F400628A6103E0CA6942F40062CA6195
:102FE000C20604D58A6D42F400628A6503E0CA6DA8
:102FF00042F40062CA65020704D58A6942F40012ED
:103000008A6103E0CA6942F40012CA61420704D52A
:103010008A6942F480028A6103E0CA6942F480024C
:10302000CA61820704D58A6D42F480728A6503E022
:10303000CA6D42F48072CA65C00704D0886D40F43E
:10304000007088657047C86D40F40070C8657047AF
:10305000CF4A49B308280DD2DFE800F004080D116B
:10306000151A1E22906D40F4805002E0906D40F4DD
:10307000005090657047906940F4006006E0906DE4
:1030800040F40060F5E7906940F4001090617047EB
:10309000906940F48000F9E7906D40F48070E8E7B3
:1030A000906D40F40070E4E70828F0D2DFE800F00B
:1030B00004080D11151A1E22D06D40F4805002E054
:1030C000D06D40F40050D0657047D06940F4006086
:1030D00006E0D06D40F40060F5E7D06940F40010E0
:1030E000D0617047D06940F48000F9E7D06D40F4BA
:1030F0008070E8E7D06D40F40070E4E7A44A41B383
:1031000008280DD2DFE800F004080D1115191D2163
:10311000906D40F0020002E0906D40F0010090657B
:103120007047906D40F00800F9E7906D40F00400A2
:10313000F5E7906D40F02000F1E7906D40F0100051
:10314000EDE7906D40F08000E9E7906D40F04000C1
:10315000E5E70828E4D2DFE800F004080D111519AE
:103160001D21D06D40F0020002E0D06D40F0010062
:10317000D0657047D06D40F00800F9E7D06D40F0A1
:103180000400F5E7D06D40F02000F1E7D06D40F08D
:103190001000EDE7D06D40F08000E9E7D06D40F021
:1031A0004000E5E77A49C20706D0D1F8982042F0FE
:1031B0008052C1F8982005E0D1F89C2042F080525E
:1031C000C1F89C20820706D5D1F8982042F0005221
:1031D000C1F8982005E0D1F89C2042F00052C1F8D7
:1031E0009C20420704D58A6942F020028A6103E0EC
:1031F000CA6942F02002CA61020704D58A6942F016
:1032000010028A6103E0CA6942F01002CA61C20674
:1032100004D58A6942F080028A6103E0CA6942F0FB
:103220008002CA61820604D58A6942F040028A613E
:1032300003E0CA6942F04002CA61420604D58A69C5
:1032400042F400728A6103E0CA6942F40072CA6102
:10325000000604D5886940F4807088617047C869A9
:1032600040F48070C86170472DE9F0410024204689
:10327000FFF794FE00BF474E002506EBC407785DBC
:10328000C043C0B2FFF78EFF00BF01212846FFF701
:1032900035FF00BF00212846FFF730FF00BF6D1C3F
:1032A000082DECDB01212046FFF7D2FE642000F060
:1032B0000DFD0020FFF772FE00BF641C082CDBDB55
:1032C000BDE8F08170B500252846FFF767FE00BF16
:1032D000304E314C206806EBC000405DC043C0B2A8
:1032E000FFF760FF00BF01212846FFF707FF00BF7F
:1032F00000212846FFF702FF00BF6D1C082DE9DB07
:1033000001212068FFF7A4FE642000F0DFFC00200C
:10331000FFF744FE00BF2068072801DA401C00E0E8
:103320000020206070BD10B500211A4C0B46002013
:1033300004EBC1021354401C0828FBDB491C08297C
:10334000F5DB10BD134B00210A4603EBC0004254CD
:10335000491C0829FBDB704710B500210D4CFF23E9
:10336000002004EBC1021354401C0828FBDB491C5D
:103370000829F5DB10BD07480721017041708170F5
:10338000017241728172017441748174704700004E
:1033900000C00920680500106C00001067480F226B
:1033A0000270092141708170C2700172C172017492
:1033B000C174027641768176C276E7E72DE9F04165
:1033C0000025DFF87881FF27002408EBC50600BF41
:1033D000FEF7EAFE90FBF7F107FB11003055641C85
:1033E000082CF5DB6D1C082DEEDB69E710B500211C
:1033F000524C0123002004EBC1021354401C082846
:10340000FBDB491C0829F5DB10BD00204B49FF22DE
:103410000A54401C0828FBDBB8E700204749FF227C
:1034200001F83020401C0828FADBAFE74449C20706
:1034300004D08A6D42F002028A6503E0CA6D42F050
:103440000202CA65820704D58A6D42F001028A65CC
:1034500003E0CA6D42F00102CA65420704D58A6DD5
:1034600042F008028A6503E0CA6D42F00802CA65AC
:10347000020704D58A6D42F004028A6503E0CA6D32
:1034800042F00402CA65C20604D58A6D42F02002E9
:103490008A6503E0CA6D42F02002CA65820604D53F
:1034A0008A6D42F010028A6503E0CA6D42F0100294
:1034B000CA65420604D58A6D42F080028A6503E03F
:1034C000CA6D42F08002CA65000604D5886D40F0DE
:1034D000400088655AE7C86D40F04000C86555E770
:1034E0001748016C41F46C510164026815490A43A4
:1034F0000260C26D42F46C52C265C2690A43C26185
:10350000016C41F0FF010164C16D41F0FF01C16533
:10351000016841F47C710160D0F8801041F04051A5
:10352000C0F88010816941F47C718161D0F89810F5
:1035300041F04051C0F89810F5E600006805001011
:1035400000C00920000860000221417100210160D3
:10355000C16670475A4A0121C1EB411302EB830354
:1035600013F8783C834201D1C8B27047491C042942
:10357000F2DD0020704773B506460124204608F0AE
:103580008FFC0546224601A901F0E5FD02B0224666
:1035900029463046BDE8704009F062BA2DE9F04195
:1035A000074694B20E46204608F07AFC05462246AD
:1035B000314601F0D0FD224629463846BDE8F041AB
:1035C00009F04EBA2DE9F04107460E46084601F0D3
:1035D000A3FD84B2204608F063FC0546224631462E
:1035E00001F0B9FD224629463846BDE8F04109F010
:1035F00037BA344902220D230A60314964390B700D
:103600000A234B70CAE72DE9F0411E4617468C4647
:10361000FFF7A0FF002824D02949C0EB401001EBA0
:1036200080047C3C0125BCF1060F19D2DFE80CF0C8
:10363000180803030C0F2046FFF786FFA5670FE06D
:103640000320607165670BE00020206008E0642EB5
:1036500006D832463946A01D01F07DFDC4E91B6540
:103660000120BDE8F0812DE9F0470025144F814687
:103670002E464CF2503A4FF0010800BFC5EB451002
:1036800007EB80042660E66626676667AFF289036B
:10369000524600210120A66708F034FC207184F80E
:1036A0000580C0B238B11FFA89F108F06FFC01281B
:1036B00001D1022060716D1C042DDFDBBDE8F087B5
:1036C0000C0600107000001070B5434D286801F022
:1036D00023FD01F058F8414C6062296801F0F8FCC4
:1036E000012001F050F83E49A0620968012903D089
:1036F0003CA10988018070BD3BA1FAE710B5374CA9
:10370000606A01F009FD01F03EF833490860616A22
:1037100001F0DEFC34A1A06A01F008FE304910B1CE
:103720000020086010BD0120FBE770B50024FFF702
:10373000CBFF2EA12EA001F04EFC050011D0274E8C
:10374000294656F8240001F069FB29462CA001F017
:1037500065FB641C0B2CF3DB2846BDE8704001F0D0
:1037600061BC70BD2DE9F041B2B0002425A120A0BC
:1037700001F031FC10B101F055FC01E0FFF7D5FF7D
:1037800020A11BA001F027FC050021D00027E8465E
:10379000124E11E0684601F0BFFC08EB0001401C2E
:1037A00001F8017C00F0EFFF46F82400694601F0C3
:1037B0008FFC641C0B2C06DC2A46C821684601F0ED
:1037C00008FB0028E6D1284601F02CFCFFF796FF05
:1037D00032B0BDE8F0810000040000107400001059
:1037E00008000010300000003100000077000000E9
:1037F0006465766963652E73657474696E677300BA
:103800000A00000072000000484000218C22C3071B
:1038100002D082EA500000E04008491C0829F6DB8B
:10382000704770B5064642200D46002403E0315D26
:10383000FFF7EAFF641CAC42F9D370BD30B5044613
:1038400000780D46EE281AD16078EE2817D1A078BE
:10385000CC2814D1691E2046FFF7E3FF611911F847
:10386000011C88420BD12079E17800EB0120A842AD
:1038700005D1607928B1012805D0022805D00020A3
:1038800030BD012030BD022030BD032030BD2DE908
:10389000F04104460F4690460026104601F03CFCDD
:1038A00000F10B05EE2020706070CC20A070FF208E
:1038B00095FBF0F0E070A0EB002028442071002080
:1038C00060713878A0717878E071B8782072F878F3
:1038D000607204E018F80600A119761C8872404650
:1038E00001F01AFCB042F5D8691E2046FFF799FF97
:1038F000611901F8010C2846BDE8F08130B5044695
:1039000000780D46EE281BD16078EE2818D1A078FB
:10391000CC2815D1691E2046FFF783FF611911F8E5
:10392000011C88420CD12079E17800EB0120A842EB
:1039300006D16079012804D0022802D0032800D0E3
:10394000002030BD70B506460C46881F00F01BFFF6
:103950000546E21FB11D01F0BEFC0020291901F847
:10396000070C284670BDFEE710B504F0F9FD07F01E
:103970009DFC07F03DFA09F069FA08F0FBFA06F041
:1039800057FC05F049FA07F037FE03F02DFDBDE8BE
:10399000104008F0C3B810B504F0FCFD07F08CFC33
:1039A00007F094FA08F0B6FB07F020F805F056FD92
:1039B00003F040FEBDE8104008F004B90020704755
:1039C0007047002070470020704700002148002108
:1039D0008160491EC160402101614FF04871416121
:1039E0001D4981611D4941601D49C16170474FF00A
:1039F000FF3070474FF0FF3070474FF0FF30704797
:103A00004FF0FF3070474FF0FF3070474FF0FF30FE
:103A100070474FF0FF3070474FF0FF307047002085
:103A2000014670474FF0FF3070474FF0FF3070474E
:103A3000012070470020704701207047FF20704729
:103A40000120704700207047012070470020704718
:103A500001207047DC300010E8E10000F0E30000D6
:103A600080F0FA020948804709480047FEE7FEE770
:103A7000FEE7FEE7FEE7FEE7FEE7FEE7FEE7FEE71E
:103A800004480549054A064B704700008F44000072
:103A9000CD200000905F0010906B00109067001028
:103AA0009067001010B5504C20688047002805D062
:103AB0006169BDE8104048F2E800084710BD4A4877
:103AC000406800477CB50D46E8218DF8001001469E
:103AD00016460DF1010000F079F8434C0020A16971
:103AE0008847E36808216846984722692946304696
:103AF0009047A1690120884701207CBDF8B50546A3
:103B00008DF800001E4617460DF1010000F05EF82A
:103B1000354C0020A1698847E26804216846904737
:103B2000842D03D1E268314638469047A1690120CF
:103B30008847A16900208847A168D7208847A168E5
:103B4000FF208847A168FF2088470006FAD5A169B1
:103B500001208847F8BD2DE9F04117460D4606467D
:103B60004FF404781DE000231A4631465320FFF736
:103B7000C5FFB6FBF8F108FB1160C0F50474AC4258
:103B800000D92C4623463A4631468420FFF7B6FF3B
:103B900000231A4631468320FFF7B0FF264427440E
:103BA0002D1B002DDFD10120BDE8F08170B5054649
:103BB000002400231A4629465020FFF79FFF641C6B
:103BC00005F58455402CF4D3012070BD4FF40473E7
:103BD000B1FBF3F203FB121141EA82210A0C0270DD
:103BE0000A0A4270817070471CE40000704770B58B
:103BF0000C4605462AA101F099FB78B12AA1284676
:103C000001F094FB68B12AA1284601F08FFB58B15E
:103C100021462846BDE8704002F044BD48F201004C
:103C200070BD48F2020070BD48F2030070BDB0F5EF
:103C3000004F01DD0020704702F0C6BCB0F5004F18
:103C400002DD4FF0FF30704702F0EABDB0F5004FE3
:103C500002DD4FF0FF30704702F08CBDB0F5004F31
:103C600001DD0120704700207047B0F5004F02DDF4
:103C70004FF0FF30704702F0ADBDB0F5004F02DDF0
:103C80004FF0FF30704702F0C9BCB0F5004F01DDC6
:103C90000020704702F0E6BC012070477047FEE745
:103CA000535444494E0000005354444F55540000AF
:103CB0005354444552520000002140F635425043CF
:103CC00000E0491CB1EBC00FFBD3704700EBC00212
:103CD000002102EB001000E0491C8842FCD870472C
:103CE000C1F12002904010B5FD4A4FF40074531505
:103CF0000EE0002801DA946500E0D46500BF00BF43
:103D000000BF936500BF00BF00BFD3654000491EE0
:103D10000029EED110BD70B50446F24800780128A4
:103D200013D04FF0A04044F48071816201214162C0
:103D300000210213436BDB0702D0491C9142F9D3E7
:103D400000214162046BA0B270BDE54D286C40F4C7
:103D50000070286420214FF0FF30FFF7C1FF0421DD
:103D60000620FFF7BDFF05210120FFF7B9FF052160
:103D70002046FFF7B5FF00F0CDF900242046691575
:103D80006400A96500BF00BF00BFE9656A6D9205C8
:103D900001D544F00104401C1028F1D300F0BAF919
:103DA000D1E770B50546CF480C46007801280ED003
:103DB0004FF0A04245F480709062D462002011134D
:103DC000536BDB0702D0401C8842F9D370BDC44856
:103DD000016C41F40071016420214FF0FF30FFF7C6
:103DE0007FFF04210520FFF77BFF05210120FFF75E
:103DF00077FF05212846FFF773FF02210846FFF7EA
:103E00006FFF10212046FFF76BFFBDE8704000F008
:103E100081B92DE9FC47B34C002536202570009070
:103E2000694662680846904701982521B1EB106FFA
:103E300001D101202070AC48016841F0804101604F
:103E4000AB48AA4981602178002961D0016921F439
:103E500070210161A248016C41F48071C0F84010EA
:103E60004FF0A0444FF44F4020607820C4F8000188
:103E70006220401EFDD14FF00208C4F800803020BF
:103E800060604001606143F20F7020611227E760BB
:103E90007801C4F800014FF40060A0616226761E2C
:103EA000FDD1A5614FF400410020FFF77AFF4FF4E8
:103EB00080190020FFF72FFF10F4084F02D0761C66
:103EC0004E45F6D30220FFF726FF06460320FFF7F4
:103ED00022FF4FF6F0710840864940EA06408842CA
:103EE0000DD14FF440510020FFF75BFF0026012069
:103EF000FFF711FF800602D4761C4E45F7D300264B
:103F00004FF480391020FFF706FFC10709D105E003
:103F1000C16821F00F01491DC160A1E7761C4E4523
:103F2000F0D341070CD5616841F001016160D4F81C
:103F3000001141F48061C4F800111521A16000E076
:103F4000A760800701D5A56102E04FF48070A061F1
:103F5000694881882164418861640088A064674B56
:103F6000674EA3F16402002002F1200100EB40073C
:103F700003EB472742F8307002EBC0077E6041F840
:103F8000305001EBC007401C7D600428EED3C4F81C
:103F90000821C4F80C110320C4F81001C4F818510A
:103FA00056490020574B243901F1180200EB400616
:103FB00003EB462641F8306001EBC006756042F81D
:103FC0002050401C0328F1D3AC3421676267C4F849
:103FD0007880E5672620C4F854014B4988200860A2
:103FE000091D4FF6FF700860606D40F003006065CA
:103FF00054F8AC0D40F001002060BDE8FC87434858
:104000004FF080510160704740484FF08051803040
:1040100001607047F0B54FF0A045D5F82811374E34
:104020000388243E021D56F83140DB1C9B0803D058
:1040300080CA5B1E80C4FBD1008806EBC102401E13
:1040400040F04040491C5060032900D10021C5F8D0
:104050002811F0BD2DE9F0412B4F4FF0A0463F1F36
:10406000DFF8A48034E02849091D086000072FD537
:10407000D6F8184128E02148443850F8340041006F
:104080001CD5C0F30A05ED1E40F2EA518D4215D849
:104090001F49084212D145F0004002F00FFC68B100
:1040A000164A011D643AED1C52F83430AA0803D0B8
:1040B00020CB521E20C1FBD107F05CFC641C042CF9
:1040C00000D10024C6F81841D6F81401A042D2D17C
:1040D0003868D8F800100840C5D1BDE8F08100006C
:1040E00000C00920B8000010C4C00F4005011550E1
:1040F00000C00240905C0020B0000010643100104D
:10410000FF05008064490010E40F005000E100E06A
:104110000000901B0748016C21F4007101644115F7
:10412000816500BF00BF00BFC16500BF00BF00BF09
:104130007047000000C0092070B5054600F0ECFF94
:10414000401C00F020FB040002D0294600F0C0FF14
:10415000204670BD2DE9F0411546314A2F4E821A96
:104160004FF47A7471F1000223D32D4A002300F03A
:1041700039FB1746024698462AA1284600F0AAFBBA
:104180000544384641463246002300F02BFB1646D4
:1041900002461F4624A1284600F09CFB05443046F9
:1041A00039462246002300F01DFB1346024620A19B
:1041B00027E01A4A821A71F1000215D33246002311
:1041C00000F010FB164602461F4616A1284600F0D6
:1041D00081FB0544304639462246002300F002FBAD
:1041E0001346024616A10CE04FF47A72821A71F15E
:1041F00000020BD32246002300F0F4FA13460246D5
:1042000013A12846BDE8F04100F064BB02462846F1
:10421000BDE8F04111A100F05DBB000040420F007D
:1042200000CA9A3B25642E00253033642E0000001E
:10423000253033642E2530336420474200000000CF
:10424000253033642E25303364204D4200000000B9
:1042500025642E25303364206B4200002564204203
:1042600000000000554951F86C0C40F4001041F872
:104270006C0C5348026842F480320260426942F496
:10428000803242614F48426822F003024260026875
:1042900022F040420260026842F00042026042683E
:1042A00022F03C024260426842F028024260C86F3D
:1042B00020F44060C867C86F40F48060C867424817
:1042C000FA2101610721016002214160012070474C
:1042D0003B48016821F4803101603A48416821F08F
:1042E00003014160016821F040410160416821F013
:1042F0003C01416031487C30016821F4406101603B
:104300003148016921F0FF01016101686FF30F017C
:104310000160416821F00F014160012070472A4986
:104320008860C868C006FCD48868C0B2704710B501
:104330000023254A06E0C45C9460D468A407FCD539
:1043400094685B1C8B42F6D300E09068D06810F054
:10435000140FFAD1012010BD30B500221A4BFF24F2
:1043600006E09C60DD686D07FCD59D688554521C95
:104370008A42F6D3012030BD00F5C3319F31B1FB35
:10438000F0F000B90220C10700D0401CFE2800D97F
:10439000FE200D49086101207047094A4FF4803121
:1043A00008B1916100E0D16101207047044900200B
:1043B00094310968890000D40120704730C10F4052
:1043C00000C0092000C002400080084070B5534C76
:1043D000D4F88800524D6FEA10608007D4F80C01C1
:1043E00000F003000CD028B1012841D0022845D0AC
:1043F00003282ED1D4F804014A49C0B2401C43E03E
:10440000002128B101280ED0022823D0032820D172
:1044100054F8880FC0F307422068521CC0F30E0006
:10442000401C414909E054F8880FC0F30742206856
:10443000521CC0F30E003D49401CA0FB01010023AB
:1044400000F0D0F9E26F0023D2B2521C00F0CAF99A
:10445000286070BD54F8880FC0F307422068521CD2
:10446000C0F30E00401C090441EA10410004E6E7D5
:10447000D4F804012E49C0B2401C05E0D4F8040170
:104480004FF40041C0B2401CB1FBF0F0E0E730B5A2
:1044900022482021C0F8A011D0F8A011890603D528
:1044A000D0F8A0114906FBD500F180000324C0F824
:1044B00084404FF00001C0F82811C0F82C114FF0D3
:1044C0000105C0F88C501B4A42604FF0AA02C2603E
:1044D0004FF05503C3600560C260C360A0F1800067
:1044E000D0F888506D01FBD540F8804FC260C360A2
:1044F000B0F18000D0F88820C2F30162032AF9D11C
:10450000C0F808110C4AC0F8C420C0F8C8110168EE
:1045100021F4704141F48041016030BD00C00F4082
:10452000C000001000093D0000127A0000366E0144
:10453000001BB70063000500DE872804062110B1C8
:104540008948416070478948FBE7072110B18648D8
:10455000416070478548FBE72DE9F047864A844E65
:10456000844F12684FF00308950854084FF0830CED
:104570004FF00709D30820B1012829D00020BDE859
:10458000F087306820F0F0003060306840F0500074
:104590003060D7F8A801C0F38110012808D00228A4
:1045A00003D0032803D02A4602E0224600E01A4640
:1045B0006E4E86F80CC01009B0FBF1F0010A3171A3
:1045C000307086F80C804C4686F80890052025E06F
:1045D000306920F00F003061306940F00A0030612E
:1045E000D7F8A801C0F30120012808D0022803D081
:1045F000032803D02A4602E0224600E01A465A4E1B
:1046000086F80CC01009B0FBF1F0010A317130706E
:1046100086F80C804C4686F80890062000F098F842
:1046200074600120ABE710B5544A002330B1145C2C
:10463000E407FCD04C4C2170135410BD145CE4070B
:10464000FCD04A4CF7E770B514460D46064605E027
:1046500029783046FFF7E7FF6D1C641E002CF7D168
:1046600070BD28B14048017DC907FCD00078704773
:104670003E48017DC907FCD0F8E770B53B49886822
:104680003E4DC0F342020C3500233D4CA5F108001D
:10469000032A0CD0022A13D0062A1CD0012A05D1E5
:1046A000087D810635481BD50121017070BD0A7D4A
:1046B00012F09E0F02D02A60087870BDD207FCD09D
:1046C00009780268A1540168491C016001686429E5
:1046D000F3D1036070BD286840F48070286070BD1D
:1046E000037070BD70B5204B9868244D244AC0F308
:1046F00042010C3500246432A5F1080003290CD0D6
:10470000022913D006291CD0012905D1187D810664
:104710001A481BD50121417070BD197D11F09E0F03
:1047200002D06960187870BDC907FCD01978436859
:1047300099544168491C416041686429F3D144603F
:1047400070BD686840F48070686070BD447070BD72
:1047500000F01F020121914040094FF0E02202EBDE
:104760008000C0F8001170470000014000C0004008
:1047700000C0024000C00F40C0000010C400001084
:10478000645B0010704770B5064600F013FE0568C4
:1047900006F10B0020F00704B4429CBF002070BD5E
:1047A0002B466A68BAB11068A04210D304F1080120
:1047B00088423CBF5068586007D351681019416067
:1047C0001168091B016058601460101D70BD13460C
:1047D0005268002AE7D12146284600F0F7FD00285C
:1047E000DED170BD53EA020C00F069802DE9F04B78
:1047F0004FF00006002B1FBFB3FA83F503FA05F450
:1048000024FA05F65E4012BF1643B2FA82F502FAA8
:1048100005F4C5F120051EBF22FA05FC44EA0C048C
:10482000203556EA044C4FEA144418BF641C4FF07C
:1048300000084FF00009904271EB030C39D30029B6
:1048400019BFB1FA81F701FA07F6B0FA80F700FA5A
:1048500007F6C7F120071EBF20FA07FC46EA0C0640
:104860002037B6FBF4FCA7EB0507103F07F01F0B42
:10487000CBF120060CFA0BFB2CFA06F644BFB3462C
:104880000026202FA4BF5E464FF0000B5BEA060C0B
:1048900008BF4FF0010B19EB0B09ABFB027C48EB97
:1048A0000608C01B06FB02CC0BFB03CC71EB0C0112
:1048B000C1E70B46024641464846BDE8F08B13B5BA
:1048C0004FF000004FF00001AFF30080BDE81C4046
:1048D000704700000FB41CB5084B06AA7B4469461C
:1048E0000090059800F045FE04460020694600F05F
:1048F00053FE20461CBC5DF814FB0000B90C000000
:1049000070B5044685690068C10601D5302600E00F
:104910002026C00708D070BDD4E901213046904759
:10492000206A00F1010020626D1EF5D570BD70B5E2
:10493000044685690078C00708D170BDD4E901211B
:1049400020209047206A00F1010020626D1EF5D5FD
:1049500070BD70B50C460546012A05D02878800642
:1049600000D5EA69002302E0012305E05B1C9342C5
:1049700002D2E05C0028F9D1A869E618C01AA86143
:10498000286A184428622846FFF7BAFF04E0D5E9F0
:10499000012114F8010B9047B442F8D32846FFF7E1
:1049A000C6FF70BD2DE9F041064600241068752948
:1049B000314616A511D0AFF30080002803DAC0F10C
:1049C000000013A507E031688A0701D511A502E0B0
:1049D000490704D510A5012401E0AFF300800021B0
:1049E0000A2306F1240707E0B0FBF3F203FB1200F1
:1049F000303078541046491C0028F5D123462A4609
:104A00003046BDE8F04100F052BD0000000000005B
:104A10002D0000002B00000020000000116802683B
:104A2000006A530501D508700BE0D30501D5088055
:104A300007E0130603D5C217C1E9000201E05206E0
:104A40000860012070470000F0B413680268082471
:104A5000C4610C4642F020020260110502D50F4AE3
:104A60007A4402E00D4A7A440E32002100F1240516
:104A700007E003F00F064FEA1313965D6E5401F141
:104A80000101002BF5D105782D0703D5702C01D13C
:104A900010320123F0BC00F00ABD0000D39C0000DE
:104AA0002DE9F05F894604464FF0000ADFF878B13F
:104AB000FB44C0F820A02046E1688847002875D054
:104AC000252806D0D4E901219047206A401C2062A5
:104AD000F1E700265F462046E16888472028054622
:104AE00008DB312D06D207EB050010F8200C08B1C9
:104AF0000643F0E7B00701D526F00406C4F81CA071
:104B00000027C4F818A02A2D09D0284601F0B4FEC9
:104B100038B304EB8708303DC8F8185019E059F84D
:104B2000041B204604EB87029161E1688847012F4E
:104B3000054618D1E069002820DA26F020061DE09D
:104B4000D8F8180000EB800005EB40003038C8F8BA
:104B500018002046E1688847054601F08DFE0028D0
:104B6000EED1012F0AD02E2D08D12046E1688847CA
:104B70007F1C0546022F46F02006C4DBA0690028F2
:104B800003DA404246F00106A061F00701D026F0AA
:104B900010066C2D0BD0682D09D04C2D39D06A2D04
:104BA00035D0742D35D07A2D33D016E038E0E16859
:104BB0002F4620468847B842054609D16C2F26D09B
:104BC0004FF48060E168064320468847054604E0CC
:104BD0006C2F1AD04FF4807006430DB3A5F141003D
:104BE000192802D8203546F400664A462946204650
:104BF00026604E46FDF7A4FA80B101280BD0F61DC1
:104C000026F0070000F1080955E74020E4E780207E
:104C1000D8E70020D6E706F104094CE7284651E71B
:104C2000206ABDE8F09F0000AB9C00000FB400B507
:104C30008DB010A9099000910B904FF0FF300A90B1
:104C400000200C90064878440690064878446A464E
:104C500007900F9909A800F0CFFC0DB05DF814FB88
:104C6000CF090000E70900002DE9FF5F1D464FF066
:104C7000FF3B91464FF000085F46D5E90146A96920
:104C800001987F1C8847296A824688470028F6D108
:104C90001AF101000CD0002E24F4C06419DD600666
:104CA00014D5BAF12B0F09D0BAF12D0F0ED103E0B4
:104CB000584604B0BDE8F09F44F48064A9690198A7
:104CC0007F1C8847761E8246002E02DDBAF1300F27
:104CD00003D0B9F1000F26D032E0A969761E019801
:104CE0007F1C44F400748847002E824605DDBAF12B
:104CF000780F06D0BAF1580F03D0B9F1000F10D0D9
:104D00001EE0B9F1000F02D0B9F1100F18D1A96956
:104D1000761E01987F1C24F4007488478246102078
:104D200002E0082000E00A20814609E0A96908FBAA
:104D30000908761E01987F1C44F400748847824657
:104D4000002E05DD4946504600F041FC0028EDDA12
:104D5000E96901988847A00502D46FF00100A8E72F
:104D6000E00727D1600614D5600502D5C8F1000020
:104D700000E04046296801F104022A600968220522
:104D800001D5087016E0220701D5088012E00860FE
:104D900010E0286800F1040129600068210502D5AF
:104DA00080F8008006E0210702D5A0F8008001E02D
:104DB000C0F8008038467CE770B5064600F0FEFA81
:104DC0000468054630460A22002100F045FC2C60AC
:104DD00070BD2DE9F04117460D46044606460129EF
:104DE00013DD384603F0E6FD411C0CD0C0B20A28A2
:104DF00004F8010B02D06D1E012DF2DC00202070A2
:104E00003046BDE8F081B44201D10020F9E73846D0
:104E100000F05AFC0028F1D00026EFE770B50D46EF
:104E2000044604E0294603F01EFE401C04D014F89A
:104E3000010B0028F6D170BD4FF0FF3070BD0000AF
:104E40002DE9F041044616460D464769007B800770
:104E50002ED03846FEF702FF50BB3EB3012E02D0E3
:104E6000022E25D104E0204600F032FC05441DE06E
:104E70003846FEF70AFFE168002841F01001E160C2
:104E800005DA204600F048FC0120BDE8F081C903A6
:104E90000BD56268E16A914200D81146A2691144BB
:104EA0002269891A814200DD08460544002D01DA95
:104EB0000220EAE7E16A6068E268814206D2910373
:104EC000E06203D522F4003141F01002A669002708
:104ED000AE4213DCE16A814201D90B4600E0034691
:104EE00003EB060C2369ACEB030CAC4506DD8142F9
:104EF00001D98C4600E084469C4505D1A760276017
:104F000042F02000A5620DE0AD1BE669AE1B8142B8
:104F1000A66000D90846C01A281A20605819606097
:104F200022F0200003490840E060002084F8487027
:104F3000ABE70000BFCFD7FF2DE9F0410C46074695
:104F40001646104600F06EF82078611C61280AD0E1
:104F5000722802D077283CD102E00125002405E028
:104F60000225042402E0082448F2020511F8010B8E
:104F70002B2806D0622809D011F8010C74280AD019
:104F80000BE045F0030544F00204EFE745F00405AB
:104F900044F00104EAE744F0100438462146FEF7E5
:104FA00026FE411C15D00021316171604FF4007163
:104FB000F560F1617061200704D5304602220021BE
:104FC000FFF73EFF306D40F0010030653046BDE830
:104FD000F0810020FBE72DE9F0410D460646104C1C
:104FE000206DC10704D0410804D020F00104F7E788
:104FF00022460EE05420FFF7C6FB07000ED0206DBE
:1050000047F00101084354212065384600F03CF97F
:105010003A4629463046BDE8F0418DE70020D6E704
:10502000305E00102DE9F04704464FF000094FF0C4
:10503000FF37C568D4E90486A80707D0204600F0EA
:105040009FFB3046FEF7F3FD002802DA3846BDE844
:10505000F087280502D5404600F002FA4C21204690
:1050600000F012F9206D20F0010020654846EEE7BF
:105070000B4910B5A1F17C020A4CC2E93712372165
:1050800006E000EB104342F82130074B00FB0340E1
:105090000B1EA1F10101F4DC10BD0120E8E70000C6
:1050A000C85D0010E119D666CD0D010030B505468A
:1050B0000B462A4613F8014B12F8010B08B1A04227
:1050C000F8D01CB1002802D06D1CF1E7284630BD95
:1050D00040EA0103024630B59B0710D14FF001347E
:1050E00000E008C208C91D1B9D4315EAC41FF8D083
:1050F00013F0FF0102F8011B0DD01B0AF8E711F8AD
:10510000013B002B02F8013B05D011F8013B002BBD
:1051100002F8013BF3D130BD10B5431C02E010F89A
:10512000011B71B18107FAD14FF0013202C88C1A0C
:105130008C4314EAC211F9D0C01A0A0603D0C01E6B
:1051400010BDC01A10BD0A0401D0801E10BD090296
:10515000FCD0401E10BD032A40F2308010F0030C3A
:1051600000F0158011F8013BBCF1020F624498BFBA
:1051700011F801CB00F8013B38BF11F8013BA2F157
:10518000040298BF00F801CB38BF00F8013B11F0D2
:10519000030300F02580083AC0F0088051F8043B72
:1051A000083A51F804CBA0E80810F5E7121D5CBFDF
:1051B00051F8043B40F8043BAFF30080D20724BF12
:1051C00011F8013B11F801CB48BF11F8012B24BFA6
:1051D00000F8013B00F801CB48BF00F8012B7047F5
:1051E00010B5203AC0F00B80B1E81850203AA0E882
:1051F0001850B1E81850A0E81850BFF4F5AF5FEAB6
:10520000027C24BFB1E81850A0E8185044BF18C968
:1052100018C0BDE810405FEA827C24BF51F8043B0F
:1052200040F8043B08BF7047D20728BF31F8023B63
:1052300048BF11F8012B28BF20F8023B48BF00F8F7
:10524000012B70474FF000020429C0F0128010F0CB
:10525000030C00F01B80CCF1040CBCF1020F18BF52
:1052600000F8012BA8BF20F8022BA1EB0C0100F0E5
:105270000DB85FEAC17C24BF00F8012B00F8012BB8
:1052800048BF00F8012B70474FF0000200B51346ED
:1052900094469646203922BFA0E80C50A0E80C5056
:1052A000B1F12001BFF4F7AF090728BFA0E80C5007
:1052B00048BF0CC05DF804EB890028BF40F8042B00
:1052C00008BF704748BF20F8022B11F0804F18BF6D
:1052D00000F8012B704710B5044610F0030F08BF0B
:1052E00011F0030F40F015804FF0013E121FC0F285
:1052F0000E8051F8043BA3EB0E0C2CEA030C1CEAC5
:10530000CE1C08BF40F8043BF0D0A1F1040102F12B
:105310000402521E08DB11F8013B002B00F8013B90
:10532000F7D11146FFF78EFF204610BD4FF0013C2C
:1053300050F8042B51F8043B9A4221D1A2EB0C0304
:10534000934313EACC1317D150F8042B51F8043BC4
:105350009A4215D1A2EB0C03934313EACC130BD161
:1053600050F8042B51F8043B9A4209D1A2EB0C03EC
:10537000934313EACC13DBD04FF00000704700BF1B
:10538000D01A01BAB1FA81F101F0180122FA01F044
:10539000CB40C1F12001DBB2C0B2C01A2CFA01F33C
:1053A000D11A914311EAC311E6D170477047704793
:1053B0007047000000487047345F00100048704795
:1053C0002C5F0010704770477047704738B504462F
:1053D0000A4600206946AFF30080002808BF38BDA8
:1053E00002460099204600F01BFA012038BD01203A
:1053F00000F0ECBEF8B5AFF30080054600200C4687
:10540000102000BF0646A819A0420DD932466946B1
:105410000020AFF30080070008BF00F0D7FE00981F
:10542000A04218BF0546C419FFF7C4FF0560074630
:10543000F01D20F007004619284600F00AF8B44293
:1054400008BFF8BDA21B31463868BDE8F84000F03F
:10545000E7B900210160C0E90110704710207047D2
:1054600070B50446051FFFF7A5FF0068002C14BFA8
:10547000446870BD002C18BFAC423CBF2046646835
:10548000F8D301680A18AA4218BF456003D12A68F8
:1054900005461144016028684119A1421CBF6C6097
:1054A00070BD6168696021680844286070BD2DE99D
:1054B000F0470D4699469246044600F124080168DB
:1054C000880604D5E06921F01001216000E0012088
:1054D000A84202DDA0EB050700E00027A16907EB69
:1054E000050202EB0900A1EB0000A0612078C006D4
:1054F00002D42046FFF704FA002608E0D4E901218F
:105500001AF806009047206A401C761C20624E451F
:10551000F4DB2078C0060AD52046FFF7F1F906E053
:10552000D4E9012130209047206A401C2062381EB7
:10553000A7F10107F4DC07E0D4E9012118F8050020
:105540009047206A401C2062281EA5F10105F3DC6B
:105550002046FFF7ECF92078000602D50220BDE8CE
:10556000F0870120FBE7000001694A1C026108780E
:10557000704700B58FB0CDE9013100210591054993
:105580007944CDE9031011466846FFF789FA0FB058
:1055900000BD0000E5FFFFFF0A6802F8010B0A608A
:1055A000704710B5436913B1AFF3008001E0FFF716
:1055B000D0F9012010BD127800F124010A700022F8
:1055C0004A700122EDE711684FF0FF32E9E73A280F
:1055D00000D2303820F02002412A01D3A2F1370056
:1055E000884201D34FF0FF30704700000268114439
:1055F0001378016018467047D160054979445161BC
:1056000004497944116200211161114600F02CB95E
:10561000EDFFFFFF4F020000426842B1016811F840
:10562000013B23B1521EC0E9001218467047012108
:10563000C160881E704742685AB1C368016843B9A7
:1056400083688B4205D0491E521CC0E9001200201D
:1056500070474FF0FF3070472DE9F04791460F46F5
:1056600080460446002614F8015B2DB100F0D0F806
:105670000068405DC007F6D12B2D02D02D2D18D02B
:10568000641E4A463946204600F0A6FA27B139681A
:10569000A14201D1C7F800804FF0020471050BD57B
:1056A0004042002803DDFFF789FE0460A007BDE843
:1056B000F08746F48066E4E70028F8DAFFF77EFE1C
:1056C00004606FF00040F2E7007B00F0800070475C
:1056D00010B50146C268900703D0900607D5886AC6
:1056E0000BE0FFF76BFE01210160881E10BD8B6986
:1056F000486818440B69A0EB030091F8483023B1C7
:1057000091F84910A0EB010010BD1103FCD5002851
:10571000FADD401E10BD0000C16821F4001141F007
:105720008001C16000218160016070472DE9F04770
:10573000814614460E464FF0FF383248D568576907
:10574000054209D03846A169FEF78FFA002811DB1F
:105750002C48C0430540E5602B4632464946384652
:10576000FEF76CFAA16920F00042B21A1144002839
:10577000A16103D02046FFF7CFFF4046BDE8F08788
:1057800070B504460569C06A6168884200D8084659
:10579000E16821F42011E160C90312D5A84208D0C4
:1057A0002246411B2846FFF7C1FF10B14FF0FF30E2
:1057B00070BD0020E562C4E90150E06820F480304B
:1057C000E060002070BD10B50446C06820F02000E5
:1057D000E060A16AA06988420DD02046FFF7D0FFA3
:1057E000E06820F4405040F01000E060A06AA06142
:1057F0002069E062606044F24001E0688843E06054
:1058000010BD000010000200004870472C5F00101F
:1058100010B500F007FD001D10BD00BFC1790000EC
:10582000034640688C46002818BF88423CBF0346A8
:105830004068F8D318681844884207D00CF1030078
:1058400020F00700001D411A521A0146081D0A6087
:10585000FFF706BE10B50446FFF7DAFF0068005DEB
:1058600000F0010010BD00002DE9F34F4FF0000AD9
:105870000C4656468DB001200C9001F10C000B90A7
:1058800062690B980121904705002DD0252D2CD061
:10589000216A8847C0B162690B9801219047216A4B
:1058A00088470028F7D16269411E0B98904700E0B5
:1058B000761CA1690D988847216A88470028F7D18E
:1058C000E1690D988847DBE7A1690D988847A842F0
:1058D000074601D1761CD3E7E1690D9888477F1C04
:1058E00002D1BAF1000F6FD06AE162690B9800270C
:1058F0003D46394690472A2804D162690B98012118
:1059000090470125DFF8CC8262690B98012190470E
:10591000A0F130010A290AD24745E5DC07EB8701EF
:1059200000EB4107303FDFD445F01005ECE7E90616
:1059300001D46FF000476C280AD04C2814D0682896
:1059400015D06A280DD074281CD07A281AD01DE0F2
:1059500062690B98012190476C2802D045F004053C
:1059600014E045F002050DE045F020050AE062690B
:105970000B9801219047682802D045F0080505E002
:1059800045F4006562690B9801219047C4E901570D
:1059900065283DD019DC582879D00CDC452837D053
:1059A00004DC252826D041289ED131E046282FD07E
:1059B000472899D12CE05B287FD0612828D0632824
:1059C0007BD0642890D159E0F5E06F2847D008DCFF
:1059D00066281DD067281BD0692821D06E2816D1D3
:1059E00027E0702844D0732867D0752846D07828DF
:1059F0000DD14CE0A1690D988847252805463FF454
:105A000069AFE1690D9888476D1C3FF46AAFD7E034
:105A10000D9923466A466FF00100AFF30080C4E0A1
:105A200045F0400023464FF000026060A80735D4DF
:105A30003DE0206800F1040121600068290501D5DE
:105A400006701DE7290701D5068019E7A90704D5C7
:105A50004FEAE671C0E9006112E7066010E745F021
:105A6000400023464FF008026060A80716D41EE0ED
:105A700040F60E0125EA0100606016E045F04000A6
:105A800023464FF00A026060A80707D40FE045F0F4
:105A900040006060A80708D5234610220D996FF0DA
:105AA0000100AFF3008080E007E0102223460D994B
:105AB0006FF00100FFF7D8F877E04FF00009632896
:105AC0004F46C8464B46CB4602D05B2806D038E04E
:105AD000E80601D40120A060012732E06269D4F811
:105AE0000CB00B98012190475E2807D14FF00109B7
:105AF00049466269D4F80CB00B989047216939B9CE
:105B000000210B4603AA42F82130491C0829FADB80
:105B1000D8B3216949B308F1010862690B980121E2
:105B200090475D28F4D1B9F1000F09D0002003A9F6
:105B300051F82020D24341F82020401C0828F7DBF0
:105B400003AB2069002820794FEA40701ED05B46E5
:105B50002246CDF80080CDE901970D9900286FF01D
:105B6000010020DAAFF300801FE0C11700EBD16223
:105B700003A9531122F01F0201EB8301821A0B6863
:105B80000120904003430B60C7E719E00D992246BE
:105B900000286FF00100009702DAAFF3008004E004
:105BA000AFF3008001E0AFF3008000280ADA401C68
:105BB00006D10C9820B14FF0FF300FB0BDE8F08F48
:105BC0005046FAE7E90701D10AF1010A064400202C
:105BD0000C9055E6CCCCCC0C2DE9F05F82461546F6
:105BE0008B4600270AF10104B9460078302801D01D
:105BF0009DB113E014F8010B0127782803D0582831
:105C000001D045B10AE00DB1102D07D1002714F8DD
:105C1000010B102502E0082500E00A250026B04609
:105C20000EE005FB080005FB06F101271FFA80F8CE
:105C300001EB1046B6F5803F00D3B94614F8010BCE
:105C40002946FFF7C4FC0028EBDABBF1000F05D0B2
:105C50000FB1641E00E05446CBF80040B9F1000FCC
:105C600006D0FFF7ABFB02210160C81EBDE8F09F24
:105C700048EA0640FAE770B50D4601461446D36877
:105C800050692A46FDF7E2FF002807DA411C07D0D9
:105C9000E16820F0004041F48041E160281A70BDC5
:105CA0002046FFF739FD4FF0FF3070BDC16800227C
:105CB000026021F4805141F0400111F4C06FC160D5
:105CC00001D08260704702694168891AC269891AE5
:105CD000816070472DE9F0470446C06840F48000B9
:105CE000E060010313D520F40020E060810607D4B2
:105CF000E26A61688A4200D80A46A2EB010121608B
:105D000040F40010E06094F82500BDE8F08720F42E
:105D10000010E060800602D52046FFF754FDE068E1
:105D200042F281014FF0FF390140012903D02046A2
:105D3000FFF7F2FCB8E02168002600290ADAC9431F
:105D400040F480502160C4E902606068411C6160D9
:105D50000078DAE744F2400108420ED020F4A04077
:105D600040F040002660E06021696068A0EB01001F
:105D7000E169A0EB0100A06096E0216991B9C00340
:105D800010D4E069FEF7FFFC2061B0B1E06840F498
:105D9000006010F4407FE06002D140F48070E06069
:105DA00020696060E068D4F814A0C1061AD5C00369
:105DB0000ED52046FFF7E4FC14E004F12400206136
:105DC0000120E061E06820F4407040F48060E6E784
:105DD00021696068401AA16901445046FDF745FFFA
:105DE0000028A4DBE068C0032AD56168E06A884225
:105DF00000D808462169451AE069471B1BD0204698
:105E0000D4F81880FFF7BCFC08EB05015046C4F835
:105E10001880FDF72AFF002889DBE06840F4003095
:105E2000E060000202D5A0692844A061E169206910
:105E3000C91B45180DE02046FFF7A2FCE769F5E70E
:105E400025696168D4E90607491BE5620844656075
:105E5000A061E06820F0100010F4C06FE06002D094
:105E6000204600F0F5FAE06840F48050C4E9026092
:105E7000000205D52069E06260606FF0010044E730
:105E8000224639462846FFF7F6FE411C0CD0291859
:105E9000E16258B1401E2060681C6060E06840F418
:105EA0000030E060287830E748462EE765602046FD
:105EB000FFF7FCFEF8E72DE9F04705460C46C868F9
:105EC00020F4201040F48000C860800602D5084607
:105ED000FFF779FCE06841F282014FF0FF390140A1
:105EE000022903D02046FFF717FCB8E000F4204158
:105EF000B1F5004F0FD1C00306D56168E06A884252
:105F000000D80846606006E02069E0626060606971
:105F1000FDF7BBFEA061A0680022EEB200280DDAFA
:105F2000E1688B050AD4C043A06041F49030226040
:105F3000E0606068411C61600670A9E0E06890461E
:105F4000226040F40050E060206968BB6069FDF7A2
:105F500085FE012704F12405A0B1A08910F4407F3B
:105F600008D0E069FEF70FFC206118B1E06840F44A
:105F7000006016E0E7612561E06820F4407040F4BD
:105F800080600EE0E069FEF7FEFB00282061F1D0A2
:105F9000E06840F4006010F4407FE06002D140F41B
:105FA0008070E06020696060E06825696FF0010A38
:105FB000C10521D56168E06A884200D80846411BC6
:105FC00004D022462846FFF7B1FBF0BBE06801028F
:105FD00003D5E562C4E9015858E005F10101E16229
:105FE0006160E16940F48030A1F10101C4E902106F
:105FF00030462E70BDE8F087010202D500F48032F1
:106000000AE06068411C61600670E0680A2E40F496
:106010008030E06006D00022E16A6068814203D9E6
:106020000B4602E00122F7E70346A789A3EB05032D
:106030007F0503D4E7699F4200DDEAB1814200D8C1
:1060400001460F1A002BE56200E008E0C4E90158A0
:1060500007DD224619462846FFF768FB08B1484687
:10606000C8E74FB1A069E5626560A0EB0700A061D9
:10607000E06840F01000E060E068000208D5616868
:10608000A069E562491B08446560A0615046B1E71C
:106090003046AFE710B542485421FFF7F5F84148C4
:1060A0005421FFF7F1F840485421FFF7EDF83F493C
:1060B0003B483C4A3F4B08603D490A603A491960F9
:1060C000531C0365481C1065012008653B48344A91
:1060D00039A17844FEF730FF20B9384878440A38AF
:1060E00000F0DDF937482F4A35A17844FEF724FF48
:1060F00020B9344878440A3800F0D1F932482A4AA5
:106100002FA17844FEF718FF20B92F4878440A38A9
:1061100000F0C5F940232248DC000021224600F0AF
:1061200085F820B125487844543800F0B8F91D4866
:1061300022464023002100F079F820B1214878441C
:10614000543800F0ACF9184822461023002100F022
:106150006DF8002806D01C487844BDE81040563839
:1061600000F09DB910BD104870B5006D20F001041D
:106170000B48FEF757FF0B48FEF754FF0A48FEF79F
:1061800051FF09E0206D20F001052046FEF74AFF8F
:106190002046FFF765F92C46002CF3D170BD0000B6
:1061A000305E0010845E0010D85E00100801001000
:1061B0000C0100101001001072000000328300007A
:1061C00077000000208300000F83000010B500F06E
:1061D0006DF9BDE8104000F05DB97546FFF714FB9E
:1061E000AE4605006946534620F00700854618B0C4
:1061F00020B5FDF745FCBDE820404FF000064FF00C
:1062000000074FF000084FF0000B21F00701AC46EB
:10621000ACE8C009ACE8C009ACE8C009ACE8C0090A
:106220008D467047004870474C5F001070B5C468D9
:10623000A50713D0650211D4B2F5807F09D0B2F55D
:10624000007F06D0B2F5806F08D1012300F1240150
:1062500006E05D1E6FF07F46B54201D3012070BDA0
:106260000161C361416024F470611143C160002089
:1062700070BD2DE9FF5F1C468B460646080068D0BE
:1062800000250299284627680BFB01F965E0002FDD
:1062900065DCE069484541DABAF1000F3ED0207B69
:1062A000800601D5A06A04E0A169606808442169FC
:1062B000401A2246A9EB050180463046FFF7DBFC79
:1062C000002814DD4FF000078044A8F101010644C6
:1062D000A161226916F8011C05441170216901F1C0
:1062E0000101E1626160E16841F40031E160411C5B
:1062F00003D010B1207B400644D52046FFF7D6FCE2
:10630000C4F8188020696060E062E068276020F4CB
:106310000030E060E0694042A06018E0484503DAE0
:10632000E06840F40000E0602046FFF7D3FCE1683D
:1063300021F40001E160411C08D0811C0CD02768C9
:10634000002809DB6D1C06F8010B1BE02760B5FB7C
:10635000FBF004B0BDE8F09F0120824612E0A9EBFB
:106360000500B846B84200DA8046304642466168C9
:10637000FEF7F1FE6168A7EB0807464401EB080051
:10638000454460604D4582DB27600298E1E72DE9D6
:10639000F0471C469246804602FB01F521B3A768F0
:1063A00000203FE0002F3FDCE069A8421FDAB9F18E
:1063B000000F1CD0224629464046FFF7B7F908B126
:1063C000A7602CE0E06810F4C06F01D000200AE064
:1063D00022696168C003A1EB0201E269A2EB01013D
:1063E000A16001D44842A0605046BDE8F087A842B1
:1063F00003DAE06840F40000E060214698F800000D
:10640000FFF759FDE16821F40001E160411C06D06D
:10641000A768002805DB6D1E08F1010813E00020C5
:10642000E3E7012081460EE0AF423E4600DD2E4606
:10643000414632466068FEF78EFE6068BF1BAD1BAA
:106440003044B0446060002DACDCA760CCE70000B5
:1064500070B5054640F202260A4C0FE094F8500051
:10646000C00708D0AC4206D0E06836EA000002D18E
:10647000204600F043F8206D20F00104002CEDD1FF
:1064800070BD0000305E00100446AFF3008020466F
:10649000FBF784FE002801D0FDF701BC704710B562
:1064A00000F078F8BDE81040FFF7F4BF10B5012800
:1064B00005D0002103A000F053F8012010BD09A170
:1064C000F8E7000053494752544D454D3A204F7567
:1064D00074206F662068656170206D656D6F7279DC
:1064E000000000003A2048656170206D656D6F7294
:1064F0007920636F727275707465640070B50446BC
:10650000C068810713D0800601D5A56A04E0A1699F
:10651000606808442169451A2046FFF731F90022D6
:10652000064629462046FEF78BFC304670BD00200B
:1065300070BD70B510B1BDE87040DFE70025074CB5
:106540006E1E07E02046FFF7D9FF00B13546206DEB
:1065500020F00104002CF5D1284670BD305E0010FB
:1065600070B505460C460A2000E06D1CFDF73EFBA9
:1065700035B128780028F8D102E0641CFDF736FB1D
:1065800014B120780028F8D1BDE870400A20FDF74A
:106590002DBB000010B5014602A0FFF7E1FF01206E
:1065A00010BD000053494752545245443A205265A9
:1065B0006469726563743A2063616E2774206F703A
:1065C000656E3A200000000070B504461148AFF334
:1065D0000080114904EBC40001EB80040025A08871
:1065E0006E1E8107002906D00ADA8006204604D5EF
:1065F000FDF703FA04E0344604E001F018FF30B17F
:10660000A58000240348AFF30080204670BDA5801C
:10661000F1E7000000000000BC2F001010B5044698
:106620000E48AFF300800E4904EBC40001EB80007C
:106630004FF0FF3481888A07002A0AD003DB41F03B
:106640001001818005E0890602D401F0C0FB00B191
:1066500000240248AFF30080204610BD0000000077
:10666000BC2F001010B504460C48AFF300800C4955
:1066700004EBC40001EB8004A088810703D08006EE
:1066800003D5E46805E0002403E0204601F0B6FCF1
:10669000A4680248AFF30080204610BD000000004F
:1066A000BC2F0010F8B507460E463148AFF3008006
:1066B000684602F0C5FA04004FF0FF352FD00146BE
:1066C000384602F0D9FA0746206840B3A088810610
:1066D00006D5324639462046FDF78CF9F8B93FE039
:1066E000B1071CD416F00C0104D0042908D00829E5
:1066F00015D102E040F0010005E040F00400A08068
:1067000080B240F00200A0802146384601F0F3FB41
:1067100000260128207904D0C00727D11AE02C4692
:106720001FE0800701D5032100E00221204602F08E
:1067300067FAD8B9A088410703D5204601F05EFC6E
:106740000EE0C00702D0E069206209E0204601F0B7
:10675000EEFA58B1A6822146384601F036FA28B141
:10676000009C0348AFF300802046F8BDA680D6E722
:10677000000000002DE9F041074615460E4613487B
:10678000AFF3008045F00044CEB1114907EBC700DC
:1067900001EB800081888A0711D001F00F02022AE4
:1067A00006D089062A46314605D5FDF729F904E0C9
:1067B0004FF0FF3403E001F06CFD00B12C1A0348E8
:1067C000AFF300802046BDE8F0810000000000002B
:1067D000BC2F001070B504460D460F48AFF3008083
:1067E0000E4904EBC40001EB80004FF0FF348188B8
:1067F0008A070BD08906294603D5FDF707F920B192
:1068000004E001F0ABFD012800D100240248AFF301
:106810000080204670BD000000000000BC2F00106A
:106820002DE9F041074616460D461148AFF30080AA
:106830004FF0FF34B5B10F4907EBC70001EB800003
:1068400081888A070ED001F00F02012A0AD089063A
:106850003246294602D5FDF7D6F801E001F009FEDF
:1068600000B100240248AFF300802046BDE8F0816B
:1068700000000000BC2F001030380A2801D201208F
:10688000704700207047000003498A68117801B9F9
:1068900002A206A1FEF71EB8ACE100004B65696CD0
:1068A0002D455745422F322E310000005365727638
:1068B00065723A2025730D0A000000002DE9F041B1
:1068C0002A4D0646E87B18B1B00F32D103202EE0E6
:1068D00026F040400F3020F00307002E03DBFDF7C9
:1068E00093FB0120E873B00F4FF000080BD028682D
:1068F00069683844884206D9E87BD0B185F80F80B2
:10690000FDF77DFB15E01A48046820686268011BEA
:10691000891AB94210D2044600680028F5D1E87BF4
:1069200018B185F80F80FDF76AFBB00F01D1FDF7B4
:106930001AF80020BDE8F081A2B1101921680160A9
:10694000206000F108044760286838442860E87B2C
:1069500018B185F80F80FDF752FB2680A4F802805D
:106960002046E7E767600834EEE70000F05C0010BF
:1069700068E100002DE9F0418846074600F0D0F9B3
:1069800000284CD0274D00262C680BE0207838B129
:106990000422394604F10A0004F0F8FD012833D03E
:1069A0000E34761C2879B042F0DC1F49384604F0DA
:1069B00071FDB0B91C48001D04F0E2FE00282ED085
:1069C00000262C680AE0207830B106224146201DBE
:1069D00004F0DCFD01281CD00E34761C2879B0426E
:1069E000F1DC012000F022F8002818D0C0EBC00034
:1069F0006FF00D0202EB4000296804220C183946A2
:106A000004F10A0004F0CEFD06224146201D04F0E8
:106A1000C9FD6879E070A879A07003202070BDE8F6
:106A2000F081000078E10000005D0010F0B5204921
:106A30000446012005460A6803E013784BB10E3284
:106A4000401C0B798342F8DA00204E7901220B6852
:106A50000CE015705470F0BD5F78012F04D1DF7821
:106A6000B74201D83E4610460E33521C0F7997426A
:106A7000F2DA90B94E7901220B6809E05F78022FB3
:106A800004D1DF78B74201D83E4610460E33521C7F
:106A90000F799742F2DA0028DDD00968C0EBC00216
:106AA0006FF00D0303EB420211440D704C70F0BD0A
:106AB00078E100002DE9F041224C88460646002787
:106AC00025680BE0287838B10422314605F10A0028
:106AD00004F05CFD012832D00E357F1C2079B842CD
:106AE000F0DC304600F01CF9002828D0164930466A
:106AF00004F0D0FC002822D00120FFF797FF05000A
:106B00001DD0114A3146002000F072FAC5EBC501D4
:106B10006FF00D0202EB4101206804224518314656
:106B200005F10A0004F03EFD06224146281D04F04E
:106B300039FDE079E870A079A87003202870BDE8DD
:106B4000F081000078E10000005D00102DE9F047C1
:106B500088468146274904F09DFC48B9254C201DF4
:106B600004F00EFE00283AD004F104094FF00008AA
:106B7000214D002702262C680BE0207838B1042232
:106B8000494604F10A0004F001FD012829D00E3421
:106B90007F1C2879B842F0DC4046FFF747FF04002D
:106BA0001CD0144A4946002000F022FAC4EBC4016C
:106BB0006FF00D0202EB4101286804224418494697
:106BC00004F10A0004F0EEFC06220C49201D04F03A
:106BD000E9FCA879A070E879E07026700020BDE893
:106BE000F08720780328F9D36078012800D16670F7
:106BF0002046F4E7005D001078E100002BE700007C
:106C00002DE9F041374D3849287810B90A7B9207B1
:106C100066D50122401C8A7328700027334E5AE043
:106C2000C0EBC0006FF00D02316802EB40000C18A1
:106C30002078D8B3E07820B1401E10F0FF00E0705B
:106C400046D1607878B10422294904F10A0004F0A1
:106C50009DFC012806D0607801280FD018B10228C9
:106C600001D035E067702078032823D0A07870B376
:106C7000401E10F0FF00A07029D01DE020780328EE
:106C800025D0A07818B3401E10F0FF00A0701ED0D1
:106C900002202070F079E07004F10A00054604F04B
:106CA0006FFD134A121F10B129460BE010E00021BE
:106CB000201D08E0042020700D4AF079E070121FBA
:106CC00004F10A010020BDE8F04100F091B92770FD
:106CD0002878401C28703179C0B28142A0D22F7030
:106CE000BDE8F081000100103C5D001078E100007B
:106CF000045D001030B5084B00210A4601241868D5
:106D000003E0027044700E30491C1D798D42F8DC9E
:106D10000248426030BD000078E100000001001030
:106D200001787F2912D00E22B2EB111F0ED000681D
:106D300060B1411C0AD006490A68896842400A428B
:106D400002D10143491C01D0012070470020704747
:106D5000005D00100649002048600648007A0028BF
:106D600004D0054A0020114600F042B970470000E7
:106D70000001001078E10000005D001003490022CE
:106D800048600146104600F033B9000000010010D1
:106D90002DE9F0471F4E0546002700F1080A00F1D3
:106DA0000E094FF0090834681DE02078012818D931
:106DB000E98898FA88F0B1EB104F0AD10622211D1C
:106DC000504604F0E3FB60B10422494604F10A0096
:106DD00011E0042204F10A01484604F0D7FB01281F
:106DE00006D00E347F1C3079B842DEDCBDE8F08777
:106DF00006225146201D04F0D5FB6078022801D1FF
:106E0000012060707079E070B079A070032020706C
:106E1000ECE7000078E100002DE9F04101882A2923
:106E200052D3418A012212BAB1EB124F4CD1818A5E
:106E30004FF4006212BAB1EB124F45D1817D0629A1
:106E400042D1C17D04293FD1018B00F1240709BA49
:106E50000A0C3D1FBE1D00F1120400F11A080A2A97
:106E600032D2DFE802F031054A313131313139684F
:106E700004223349304604F089FB28B141462846B4
:106E8000FFF778FD022133E004222946304604F062
:106E90007DFB002818D02B4E0027346818E020789E
:106EA000032813D306224146201D04F06FFB68B16E
:106EB0000422294604F10A0004F074FB7079E070A2
:106EC000B079A07003202070BDE8F0810E347F1CE3
:106ED0003079B842E3DCF7E706221B49384604F074
:106EE00055FB0028F0D041462846FFF743FD092115
:106EF0002046BDE8F04100F02BB8304604F040FCDD
:106F000058B104220E49304604F040FB0028DBD083
:106F10002046BDE8F041FFF73BBF0C4C61680029FB
:106F2000D2D00422284604F031FB0028CCD061687E
:106F300000200870C8E7062203493846E4E700004D
:106F4000005D001078E10000B000001000010010AA
:106F50002DE9F04105460E462A20FFF7AFFC044616
:106F600005F1080106220F46001D04F01BFB062256
:106F70001D4904F10A0004F015FB40F6060000BAB2
:106F8000000C2082012000BA000C60824FF40060E7
:106F900000BA000CA0820620A0750420E07530BA6B
:106FA000000C20830622394604F1240004F0FAFA8A
:106FB000042205F10E0104F12A0004F0F3FA06227E
:106FC000094904F11A0004F0EDFA0422074904F11A
:106FD000200004F0E7FA2046FDF71CF82046BDE843
:106FE000F04101F04DBD0000B0000010005D001048
:106FF0002DE9F041054616460F462A20FFF75EFCB4
:1070000004460DB1294600E024490622201D04F063
:10701000C9FA0622224904F10A0004F0C3FA40F634
:10702000060000BA000C2082012001BA090C61821E
:10703000C10209BA090CA1820621A1750421E175DA
:1070400005B1082000BA000C20830622144904F17F
:107050001A0004F0A7FA05B9124D0622294604F1D8
:10706000240004F09FFA0EB1314600E00D490422DD
:1070700004F1200004F096FA0FB1394600E0094906
:10708000042204F12A0004F08DFA2046FCF7C2FF26
:107090002046BDE8F04101F0F3BC00002BE7000002
:1070A000B000001031E70000054901EB80000A68DC
:1070B0004068824201D201207047002070470000E2
:1070C000F05C0010F0B500231D461C4600268A5DCA
:1070D000A2F14107192F01D83A4618E0A2F1610741
:1070E000192F01D8473A12E0A2F13007092F01D831
:1070F000121D0CE02B2A04D02F2A04D03D2A04D0E4
:1071000013E03E2203E03F2201E000226D1C761CCA
:1071100042EA8313042EDAD31A0C02701A0A427060
:107120008370E41CC01C091D15B1641B15B103E07C
:10713000392CCBD3002101702046F0BD00B50022D0
:1071400000F0ECF8C04380B200BA000C00BD0000B3
:107150002DE9F04705464079072802D30846BDE8E7
:10716000F0870C007BD0DFF844814FF0000950A17C
:10717000204600F005F9012806D051A1204600F074
:10718000FFF801286DD075E00E3452A1204604F0BE
:1071900086FD01280AD058A1204604F080FD012870
:1071A00008D0D8F8047026467F1E3FE0687940F08A
:1071B00001005EE02746464604E054A104F06FFD5E
:1071C000012806D03846716802F046FD0700F4D168
:1071D00050E03420FFF772FB342207F10901A86266
:1071E00003F0A2FDAA6A801E02F80090E880687988
:1071F00040F001006871688840F480602DE03078CC
:107200003B2808D00D2835D00A2833D02F2806D0A7
:107210002B2804D009E0707820282BD005E03EA16F
:10722000701C04F03CFD012803D0761CBE42E6D35E
:1072300020E04020FFF742FB40222146A86203F0F5
:1072400073FDAA6A801E02F80090E880687940F019
:1072500001006871688840F4805068800AE023E08B
:10726000FFE710342046FDF7A7FDE860687940F09D
:10727000020068712046D8F8041002F0D9FC08B169
:10728000044674E720780D280ED160780A280BD1C7
:10729000687940F004006871072805D1D8F8041017
:1072A000A01C81423FF65BAF002058E7F0000010C1
:1072B000436F6E74656E742D547970653A200000CA
:1072C000436F6E74656E742D4C656E6774683A20FA
:1072D000000000006170706C69636174696F6E2FEB
:1072E000782D7777772D666F726D2D75726C656E60
:1072F000636F6465640000006D756C746970617221
:10730000742F666F726D2D6461746100626F756EAB
:10731000646172793D000000786D6C0005E000BF8B
:1073200030F8023B891E5BBA1A440129F8DC11B11E
:10733000007802EB002290B200EB124000EB10400C
:1073400080B27047084400EB104080B2704710B51F
:1073500004468069002803D0FBF7E4FC0020A0610C
:1073600010BD08E00378534013F0DF0F01D0002078
:107370007047401C491C0A78002AF3D1012070474D
:1073800010B5DF220BE004785C40144201D00020ED
:1073900010BDFF222D2B00D1DF22401C491C0B7891
:1073A000002BF0D1012010BD7047000070B50C4CCF
:1073B0002078002812D0607805F000FD607805F094
:1073C000F7FD00256570042204F10801054804F06A
:1073D000E9F82570BDE87040FFF7BCBC70BD000047
:1073E0003C5C0010005D001070B5104A03210020C5
:1073F00005F00AFD0E4C00256070A0B1442105F097
:1074000031FD04220B4904F1080004F0CBF80422FA
:107410000021084804F0E1F80320207002F036FC57
:10742000A061658070BD257070BD000039740000DA
:107430003C5C0010005D00102DE9F05F794F88463C
:107440000A9E79781C46814274D13878062871D01A
:10745000432A6FD1EC2E6DD3207802286AD1607850
:10746000012867D1A07806287ED1201D04F088F974
:10747000B969884278D106226B4904F11C0004F0F6
:1074800085F8002871D004F1EC0004F079F967491F
:10749000884269D139780025891E04F1100B07F163
:1074A000080A4FF00609082943D2DFE801F086B93F
:1074B0000444B986860404220021381D04F08DF8A6
:1074C000F0210FE0605C342806D0352806D1601822
:1074D0008078022848D101E060188578204604F0C1
:1074E0001BFA0146B142EDD3E80706D06C212046D5
:1074F00004F012FA0146EC28F9D3A80706D52C218E
:10750000204604F009FA01466C28F9D3381D04F02E
:1075100037F9002829D005203870042259465046F2
:1075200004F040F8032000F067F90420B883082035
:10753000F88375E018E041460422B846381D04F08F
:1075400025F830B104225946504604F01FF80028AF
:107550000BD0F0271AE0E05D342810D0352810D188
:10756000E0198078052802D00020BDE8F09F88F857
:107570000090042251462E4804F014F801E0E0196E
:1075800085783946204604F057F90746B742E2D3DA
:10759000E80706D06C21204604F04EF90146EC289D
:1075A000F9D3A80706D52C21204604F045F9014659
:1075B0006C28F9D3FFF7CEFB32E0F0211CE0605CD1
:1075C000342813D0352813D160188078062802D0CB
:1075D000052808D00CE0032038700422002114484C
:1075E00003F0FBFFC0E787F8009001E060188578A2
:1075F000204604F0EDF80146B142E0D3E80706D09A
:107600006C21204604F0E4F80146EC28F9D3A807E1
:1076100006D52C21204604F0DBF801466C28F9D36E
:107620000120A2E73C5C0010B000001063538263AD
:10763000005D00102DE9F0476C4F3A78002A44D0E5
:1076400004250826012A24D069480024032A007B47
:107650002FD0800739D578883B46401C7880988B9E
:107660004FF6FF7C401E81B2D88B921E0CEA400878
:10767000D3F814C003254FF0050A4FF00A09ACF106
:10768000010C082A21D2DFE802F022202977808924
:10769000A03C02203870BD83FE83564804F070F889
:1076A00028B1524804225349083003F07BFF0320DD
:1076B0001DE0C00709D03D707C8002F0E7FAB86198
:1076C000012000F099F8BD83FE83BDE8F087B983FF
:1076D0000029FAD1202854D93D70F6E7B983002952
:1076E000F3D1202807D8B883A7F81E800120BDE871
:1076F000F04700F081B83C735820B88309203870F7
:10770000E3E7B98339B97820B88302F0BFFAB861EA
:10771000012000F071F8354E387B0C3660B1F88BE3
:107720000028D2D0401E0004000CF88315D030464B
:10773000BDE8F047FFF722BBFD8302F0A7FA010C7A
:10774000A9203873FE207873080AB873F97301D042
:10775000FF28ECD1801CB873E9E7042231462548A4
:1077600003F020FF2348FF21017241728472C4722A
:10777000BDE8F047FFF7EEBAB9830029A5D120286C
:10778000AAD2B883A7F81E8091E7C7F814C0386959
:10779000401E386199D10720387007E0C7F814C03F
:1077A000BCF1000F08D0B98300298ED1032000F06E
:1077B00023F8A7F81C9088E73E70032000F01CF81F
:1077C000A7F81CA0A7F81E907FE7B983002984D1F1
:1077D000401E0004A7F81CA0000CF883D4D13D7013
:1077E000BDE8F0470422034803F0F7BE3C5C0010FC
:1077F0003C5D0010005D00102DE9F84FDFF8EC81D2
:107800000746012698F80000062801D0072800D175
:10781000002677484FF496750068007808B14FF459
:10782000AA75284605F0E0FA04462A46002103F02E
:10783000D4FE4FF0010A84F800A084F801A00620CD
:10784000A0700020E0704546201DD8F8181003F005
:10785000A6FF698804F1080003F09DFF16B14FF4FC
:10786000004100E0002104F10A0003F094FF2878B1
:10787000A846062803D0072801D0082805D10422ED
:107880005C4904F10C0003F08DFE06225A4904F114
:107890001C0003F087FE594904F1EC0003F07FFF60
:1078A000352004F8F00F3D2184F801A0A770E170A5
:1078B0000721217184F805A0F03C06224E4904F10D
:1078C000F60003F06FFEFC25012F31D0032F01D00D
:1078D000042F74D198F800004FF0040907280FD046
:1078E00008280DD0322084F8FC00404984F8FD902F
:1078F00004F1FE000422083103F054FE4FF48175B8
:1079000098F80000012811D002280FD007280DD0C8
:1079100008280BD0362060556019042280F80190A9
:10792000801C08F1040103F03DFEAD1D042F46D07C
:1079300033484FF00C0B04F805B06719C168B81C48
:1079400004F08CF9C1B27970294FAD1C0D44386830
:10795000007868B13C20605504EB050909F102008C
:10796000396804F07BF9C1B2AD1C89F801100D44EF
:10797000372060556019032180F802A0C1700621EC
:10798000017180F805B0332181713A21C1713B2129
:1079900001723A790721D20706D005F10701214487
:1079A00043228A704FF008013A79920704D56B1888
:1079B0002A222344491C9A700D444170AD1CFF20BB
:1079C00060556D1C4FF49670854200D20546A8B2F2
:1079D00000900EB10B4901E008F1040198F8010094
:1079E0002346432205F0FCFABDE8F88F3C5C00100A
:1079F00084E10000005D0010B0000010635382635A
:107A000068E100003CE40000F8B50446C58A0027A0
:107A100049E00422816902EBC50289586A4600F0F8
:107A200028FC06462068C1680098814214D1E5828E
:107A30000020E061206804236A46806906F108019D
:107A400050F83500301A2062009880F00F00009046
:107A5000206800F0A5F811E080F00F0088421BD1EB
:107A60002946204600F06CFBB0B92946206800F09A
:107A700045FB28B1E582204600F0C5FB0120F8BD9A
:107A8000206804236A46C06806F1080180F0FF0000
:107A90000090206800F084F820686D1C0069854221
:107AA00000D100257F1C20680169B942B1D80020AF
:107AB000F8BD1CB50446016AC0690839814201D984
:107AC00000201CBD0090A08AADF80400208BADF80A
:107AD0000600208B0823401C20832068E28A8169ED
