:020000040000FA
:10000000C8040010A1020000A9020000AB02000019
:10001000AD020000AF020000B102000000000000CD
:10002000000000000000000000000000B30200001B
:10003000B502000000000000B702000069010000E6
:10004000BB020000BB020000BB020000BB020000BC
:10005000BB02000093100000FD100000BB02000076
:10006000BB020000BB0200002706000023070000BF
:1000700025080000BB020000BB020000BB0200001C
:10008000BB020000BB020000BB020000BB0200007C
:10009000BB020000BB020000BB020000BB0200006C
:1000A000BB020000BB020000BB020000BB0200005C
:1000B000BB020000BB020000BB020000BB0200004C
:1000C000BB020000BB020000BB02000000F002F80F
:1000D00000F03AF80AA090E8000C82448344AAF1A8
:1000E0000107DA4501D100F02FF8AFF2090EBAE8A6
:1000F0000F0013F0010F18BFFB1A43F0010318475C
:100100004812000068120000103A24BF78C878C175
:10011000FAD8520724BF30C830C144BF04680C600D
:10012000704700000023002400250026103A28BF55
:1001300078C1FBD8520728BF30C148BF0B60704759
:100140001FB51FBD10B510BD01F0C1F81146FFF776
:10015000F7FF00F084F801F0DFF803B4FFF7F2FFD7
:1001600003BC01F0E3F8000046480168491C016047
:100170007047444A116800E030BF13685B1A83423D
:10018000FAD370474FF4E131002000F0F1BE0A4687
:100190000146002000F063BF10B5044601F075F879
:1001A00021460246BDE81040002000F058BF01463D
:1001B000002000F044BF3448016E41F00071016638
:1001C000016E41F080610166816F41F000718167CD
:1001D000816F41F08061816770472B4920B1C86F02
:1001E00040F00070C8677047886F40F00070886703
:1001F0007047254920B1C86F40F08060C8677047DC
:10020000886F40F08060886770471F48406F00F03B
:100210000070E2E71C48406F00F08060E9E710B52D
:1002200000F0BDF819481A490068B0FBF1F0401E13
:10023000B0F1807F09D24FF0E0214861154AF820E3
:1002400010700020886107200861FFF79BFFFFF70F
:10025000B2FF00F07BFCBDE810400FA09CE71FB58B
:10026000FFF7DDFFFF258124002000F07BFB8123C9
:1002700000941A461946FF200194CDE9024500F08A
:1002800025FCF1E70000001000C009200400001068
:10029000A086010023ED00E0496E69740A000000A9
:1002A0000948804709480047FEE7FEE7FEE7FEE70A
:1002B000FEE7FEE7FEE7FEE7FEE7FEE70448054946
:1002C000034A054B704700009F030000CD0000006B
:1002D000C8020010C8040010C802001070B5534CCA
:1002E000D4F88800524D6FEA10608007D4F80C01F2
:1002F00000F003000CD028B1012841D0022845D0DD
:1003000003282ED1D4F804014A49C0B2401C43E06E
:10031000002128B101280ED0022823D0032820D1A3
:1003200054F8880FC0F307422068521CC0F30E0037
:10033000401C414909E054F8880FC0F30742206887
:10034000521CC0F30E003D49401CA0FB01010023DC
:1003500000F024FFE26F0023D2B2521C00F01EFF17
:10036000286070BD54F8880FC0F307422068521C03
:10037000C0F30E00401C090441EA10410004E6E706
:10038000D4F804012E49C0B2401C05E0D4F80401A1
:100390004FF40041C0B2401CB1FBF0F0E0E730B5D3
:1003A00022482021C0F8A011D0F8A011890603D559
:1003B000D0F8A0114906FBD500F180000324C0F855
:1003C00084404FF00001C0F82811C0F82C114FF004
:1003D0000105C0F88C501B4A42604FF0AA02C2606F
:1003E0004FF05503C3600560C260C360A0F1800098
:1003F000D0F888506D01FBD540F8804FC260C360D3
:10040000B0F18000D0F88820C2F30162032AF9D14C
:10041000C0F808110C4AC0F8C420C0F8C81101681F
:1004200021F4704141F48041016030BD00C00F40B3
:100430000400001000093D0000127A0000366E0131
:10044000001BB70063000500DE872804FE4910B5D5
:100450000A6842F080020A60FC494A6822F0707221
:100460004A604A6842F0A0724A60F94C6C22A2616C
:100470000028C86F04D040F00500C867082003E0DA
:1004800020F00500C8678020606120610A2000F02C
:100490005BFA4020206010BDEB4910B50A6842F4B9
:1004A00000220A60E94998B1486820F470704860F9
:1004B000486840F470704860486C20F4707048647C
:1004C000486C40F420704864886E40F4C01012E01C
:1004D000086820F00F000860086840F00F0008600E
:1004E000086C20F00F000864086C40F00A000864F3
:1004F000886E40F003008866D64C6C20A061802096
:10050000606120610B2000F01FFA4020206010BDC8
:10051000CD4810B5016841F080610160CB480168A9
:1005200021F470010160016841F420010160016C57
:1005300021F470010164016C41F420010164816EB9
:1005400041F440618166C44C6C20A06180206061F0
:1005500020610C2000F0F8F94020206010BDBF4958
:1005600010B5002241F82020BD4B202253F8203046
:100570001A60A1F10C026FF07F4400BF52F82030E6
:10058000012B05D051F82030A34203D3002010BD29
:10059000012010BD51F820305B1C41F82030EDE700
:1005A000AF49102251F820301A6051F8203008224B
:1005B0009A6151F820000168C906FCD401207047F7
:1005C00070B5A84A002188B1012812D0916051610C
:1005D000A34C202354F820100B60A04A06210C3AAB
:1005E00042F820109D496FF07F4512E01160D16004
:1005F000EEE751601161EBE751F82060AE4203D3A2
:100600000B2142F8201008E051F82060761C41F8D8
:10061000206052F82060062EEED054F820108B6136
:1006200052F8200070BD2DE9F04F8C484FF0000CBF
:10063000C0F800C086484168884CC9B211F0070F65
:10064000A4F10C044FF0080269D14FEAE10810252B
:100650000427844904F1180604F5D27A04F5CC790C
:100660004FF00C0B04F1D80EB8F10C0F57D2DFE8A5
:1006700008F0560609155223325635523F47C1F845
:100680000CC001E0C1F800C0CA68B318521CCA60AF
:100690001978816028218161BDE8F08FDAF8003097
:1006A000012B02D10560072113E0CB68F4185B1C15
:1006B000CB602178816030E0DAF80030CF68BB424F
:1006C000F3D8D9F8001011B12021016025E00560B0
:1006D0005946216021E005600921FAE7D9F8003088
:1006E0000968491C8B4201D9076016E0876114E054
:1006F00084680B680EEB03055B1C0B602C70EDE748
:1007000086680B680EEB03075B1C0B603E70C4F839
:1007100000B0056001E0056022608261BCE70A214B
:10072000D7E72DE9F04F4D484FF0000CC0F804C05A
:1007300048484168494CC9B211F0070FA4F10C04B4
:100740004FF008026CD14FEAE10810250427454913
:1007500004F1180604F5D27A04F5CC794FF00C0BAD
:1007600004F1D80EB8F10C0F5AD2DFE808F05906A0
:1007700009155524335936554049C1F810C001E0D8
:10078000C1F804C00A69B318521C0A6193F84010FA
:100790008160282181617FE7DAF80430012B02D1E2
:1007A0000560072114E00B69F4185B1C0B6194F8D9
:1007B0004010816032E0DAF804300F69BB42F2D8B1
:1007C000D9F8041011B12021016027E005605946D5
:1007D000616023E005600921FAE7D9F8043049682F
:1007E000491C8B4201D9076018E0876116E08468D4
:1007F0004B680EEB03055B1C4B6085F84040ECE753
:1008000086684B680EEB03075B1C4B6087F8406003
:10081000C4F804B0056001E00560626082613BE7F6
:100820000A21D5E72DE9F04F0C484FF0000CC0F835
:1008300008C009484168094CC9B211F0070FA4F17A
:100840000C044FF008020FE0C4C00F4000C002408B
:1008500000C0014000C0054000000A4040000010F8
:100860003C130000080000106CD14FEAE10810258D
:1008700004273B4904F1180604F5D27A04F5CC7933
:100880004FF00C0B04F1D80EB8F10C0F5AD2DFE880
:1008900008F0590609155524335936554049C1F811
:1008A00014C001E0C1F808C04A69B318521C4A617B
:1008B00093F88010816028218161EDE6DAF8083034
:1008C000012B02D10560072114E04B69F4185B1C71
:1008D0004B6194F88010816032E0DAF808304F699B
:1008E000BB42F2D8D9F8081011B12021016027E0ED
:1008F00005605946A16023E005600921FAE7D9F8AF
:1009000008308968491C8B4201D9076018E087616B
:1009100016E084688B680EEB03055B1C8B6085F822
:100920008040ECE786688B680EEB03075B1C8B60EE
:1009300087F88060C4F808B0056001E00560A26037
:100940008261A9E60A21D5E700F01F02012191404A
:1009500040094FF0E02202EB8000C0F80011704720
:10096000080000109A49C20704D08A6942F0400288
:100970008A6103E0CA6942F04002CA61820704D575
:100980008A6942F020028A6103E0CA6942F02002CB
:10099000CA61420706D5D1F8982042F08052C1F8CA
:1009A000982005E0D1F89C2042F08052C1F89C20AC
:1009B000020704D58A6942F010028A6103E0CA691D
:1009C00042F01002CA61C20604D58A6D42F00102EB
:1009D0008A6503E0CA6D42F00102CA65820604D549
:1009E0008A6942F400728A6103E0CA6942F40072C3
:1009F000CA61420604D58A6942F080028A6103E036
:100A0000CA6942F08002CA61000604D5886940F4D0
:100A1000807088617047C86940F48070C861704711
:100A20006B4A39B308280DD2DFE800F004080D0F37
:100A300013181C20906940F0400002E0906940F0DB
:100A4000200090617047983226E0906940F01000D5
:100A5000F7E7906D40F0010090657047906940F4B1
:100A60000070EEE7906940F08000EAE7906940F49A
:100A70008070E6E70828F0D2DFE800F004080D13E4
:100A8000171C2024D06940F0400002E0D06940F0FB
:100A90002000D06170479C32106840F08050106098
:100AA0007047D06940F01000F3E7D06D40F00100CE
:100AB000D0657047D06940F40070EAE7D06940F033
:100AC0008000E6E7D06940F48070E2E72DE9F04766
:100AD000914608AA9846F0CA0B460246C02100205B
:100AE00000F0C9F943464A46D021002000F0C3F97E
:100AF0002B462246C821002000F0BDF93B46324675
:100B0000BDE8F047D821002000F0B5B9102803DA7D
:100B10000B46C2B2C02115E0A0F11002102A03D288
:100B20000B46D2B2D0210DE0A0F12002102A03D250
:100B30000B46D2B2C82105E03038102805D20B464A
:100B4000C2B2D821002000F035B97047204810B556
:100B5000016841F47C710160D0F8801041F080514F
:100B6000C0F88010016C41F00101016400210846C9
:100B7000FFF756FF00210120FFF752FF002102205E
:100B8000FFF74EFF00210320FFF74AFF002104205A
:100B9000FFF746FF00210520FFF742FF0021062056
:100BA000FFF73EFF00210720FFF73AFFC02100209A
:100BB00000F036F8D021002000F032F8C8210020E3
:100BC00000F02EF8D821BDE81040002000F028B831
:100BD00000C00920014600208A0700D00C2011F037
:100BE0000C0F01D040F0030011F0300F01D040F0A5
:100BF000C000890901D040F03000704730B4D14DB9
:100C0000032445F82040D04D002445F82040CF4C27
:100C100004EB801421706270A37030BCFFF7D0BC6D
:100C200070B50D4604007DD0012C7CD0FFF770FC20
:100C300000231A4629462046FFF7E0FF0023012241
:100C400029462046FFF7DAFFFF23022229462046E5
:100C5000FFF7D4FFFF23032229462046FFF7CEFFEC
:100C6000FF23042229462046FFF7C8FFFF23052261
:100C700029462046FFF7C2FFFF23062229462046C9
:100C8000FFF7BCFFFF23072229462046FFF7B6FFE8
:100C9000FF23082229462046FFF7B0FFFF23092241
:100CA00029462046FFF7AAFFFF230A2229462046AD
:100CB000FFF7A4FFFF230B2229462046FFF79EFFE4
:100CC000FF230C2229462046FFF798FFFF230D2221
:100CD00029462046FFF792FFFF230E222946204691
:100CE000FFF78CFFFF230F2229462046FFF786FFE0
:100CF000FF23102229462046FFF780FFFF23112201
:100D000029462046FFF77AFFFF2312222946204674
:100D1000FFF774FF0023132229462046FFF76EFFDA
:100D2000002301E018E01BE0142229462046FFF7CB
:100D300065FF0023152229462046FFF75FFF0023A9
:100D4000162229462046FFF759FF29462046BDE8CE
:100D500070400023172251E70020FFF777FB67E779
:100D60000020FFF799FB63E72DE9F041754F04463A
:100D700002200E4647F82400DFF8CC81002148F815
:100D80002410724800EB84152E706A702046FFF71D
:100D900017FC012047F8240048F8240046F0010021
:100DA00028702046FFF70CFC694800EB841000789F
:100DB000BDE8F0812DE9F047570003251E46144693
:100DC00088468146042A0DD21422FFF7CDFF620027
:100DD0000321914016B10143CBB201E020EA0103A7
:100DE000142241E0201F04280FD215224846FFF7A5
:100DF000BBFF6200083A0321914016B10143CBB218
:100E000001E020EA010315222EE0A4F108000428E5
:100E100013D216224846FFF7A7FF103F0346BD40F6
:100E2000E8B21EB1FFF7D6FE034304E0FFF7D2FE9F
:100E3000C043C0B20340162216E0A2F10C04042CF9
:100E400017D217224846FFF78FFF183F0346BD40D1
:100E5000E8B21EB1FFF7BEFE034304E0FFF7BAFE9F
:100E6000C043C0B20340172241464846BDE8F047A0
:100E7000C4E6BDE8F0872DE9F04700251E46174679
:100E8000884681465FF0010404FA05F33B40EAB26C
:100E900041464846FFF78EFF6D1C082DF4DB082500
:100EA000A5F1080004FA00F33340EAB2414648468F
:100EB000FFF780FF6D1C102DF2DBDAE730B41C4623
:100EC000102A3AD2DFE802F0080B0E1114171A1D8F
:100ED000202326292C2F3235234602222BE02346BD
:100EE000032228E02346042225E02346052222E0AF
:100EF000234606221FE0234607221CE02346082241
:100F000019E02346092216E023460A2213E023466D
:100F10000B2210E023460C220DE023460D220AE0AE
:100F200023460E2207E023460F2204E02346102228
:100F300001E02346112230BC60E630BC7047134606
:100F400012225BE6D8010010CC0100104C0000100A
:100F50000C010010062110B1894841607047894892
:100F6000FBE7072110B18648416070478548FBE7E1
:100F70002DE9F047864A844E844F12684FF00308EB
:100F8000950854084FF0830C4FF00709D30820B19F
:100F9000012829D00020BDE8F087306820F0F0005B
:100FA0003060306840F050003060D7F8A801C0F3DE
:100FB0008110012808D0022803D0032803D02A4634
:100FC00002E0224600E01A466E4E86F80CC0100978
:100FD000B0FBF1F0010A3171307086F80C804C469C
:100FE00086F80890052025E0306920F00F00306178
:100FF000306940F00A003061D7F8A801C0F3012041
:10100000012808D0022803D0032803D02A4602E092
:10101000224600E01A465A4E86F80CC01009B0FB72
:10102000F1F0010A3171307086F80C804C4686F878
:101030000890062000F098F874600120ABE710B526
:10104000544A002330B1145CE407FCD04C4C2170AE
:10105000135410BD145CE407FCD04A4CF7E770B59C
:1010600014460D46064605E029783046FFF7E7FFAF
:101070006D1C641E002CF7D170BD28B14048017D65
:10108000C907FCD0007870473E48017DC907FCD0F5
:10109000F8E770B53B4988683E4DC0F342020C3515
:1010A00000233D4CA5F10800032A0CD0022A13D0DE
:1010B000062A1CD0012A05D1087D810635481BD59A
:1010C0000121017070BD0A7D12F09E0F02D02A60CE
:1010D000087870BDD207FCD009780268A154016875
:1010E000491C016001684029F3D1036070BD286884
:1010F00040F48070286070BD037070BD70B5204BE7
:101100009868244D244AC0F342010C350024403233
:10111000A5F1080003290CD0022913D006291CD000
:10112000012905D1187D81061A481BD5012141707E
:1011300070BD197D11F09E0F02D06960187870BDE6
:10114000C907FCD01978436899544168491C41602B
:1011500041684029F3D1446070BD686840F48070F4
:10116000686070BD447070BD00F01F0201219140A5
:1011700040094FF0E02202EB8000C0F800117047F8
:101180000000014000C0004000C0024000C00F400D
:101190000400001020000010E401001053EA020CCB
:1011A00000F069802DE9F04B4FF00006002B1FBFC7
:1011B000B3FA83F503FA05F424FA05F65E4012BF8C
:1011C0001643B2FA82F502FA05F4C5F120051EBFF6
:1011D00022FA05FC44EA0C04203556EA044C4FEA96
:1011E000144418BF641C4FF000084FF000099042EF
:1011F00071EB030C39D3002919BFB1FA81F701FA59
:1012000007F6B0FA80F700FA07F6C7F120071EBF0D
:1012100020FA07FC46EA0C062037B6FBF4FCA7EBE5
:101220000507103F07F01F0BCBF120060CFA0BFB54
:101230002CFA06F644BFB3460026202FA4BF5E4614
:101240004FF0000B5BEA060C08BF4FF0010B19EBE7
:101250000B09ABFB027C48EB0608C01B06FB02CC6B
:101260000BFB03CC71EB0C01C1E70B460246414678
:101270004846BDE8F08B13B54FF000004FF0000179
:10128000AFF30080BDE81C40704710B5431C02E07E
:1012900010F8011B71B18107FAD14FF0013202C879
:1012A0008C1A8C4314EAC211F9D0C01A0A0603D072
:1012B000C01E10BDC01A10BD0A0401D0801E10BD92
:1012C0000902FCD0401E10BD70477047704775463C
:1012D00000F028F8AE4605006946534620F00700A6
:1012E000854618B020B5FEF7E9FFBDE820404FF075
:1012F00000064FF000074FF000084FF0000B21F000
:101300000701AC46ACE8C009ACE8C009ACE8C009CC
:10131000ACE8C0098D4670470446AFF30080204614
:10132000FEF71BFF004870476402001001491820B7
:10133000ABBEFEE7260002007047000000C001407F
:1013400000C0054000000A406813000000000010C3
:1013500034000000080100009C130000340000105D
:1013600094040000240100000000000000E1F505E5
:10137000000000000000000000000000000000006D
:10138000000000000000000001010000000000005B
:0C13900000000000000000000000000051
:04000005000000CD2A
:00000001FF
