:020000040000FA
:10000000480E00104D4500005545000057450000C2
:10001000594500005B4500005D4500000000000000
:100020000000000000000000000000005F4500002C
:100030006145000000000000634500004B02000025
:100040006745000067450000674500006745000000
:10005000674500003B480000A548000067450000D8
:1000600067450000674500006745000067450000E0
:1000700067450000674500006745000067450000D0
:1000800067450000674500006745000067450000C0
:1000900067450000674500006745000067450000B0
:1000A00067450000674500006745000067450000A0
:1000B0006745000067450000674500006745000090
:1000C00067450000674500006745000000F002F842
:1000D00000F045F80AA090E8000C82448344AAF19D
:1000E0000107DA4501D100F03AF8AFF2090EBAE89B
:1000F0000F0013F0010F18BFFB1A43F0010318475C
:10010000244B0000444B0000103A24BF78C878C14B
:10011000FAD8520724BF30C830C144BF04680C600D
:10012000704700000023002400250026103A28BF55
:1001300078C1FBD8520728BF30C148BF0B60704759
:100140001FB504F0ACFC04F0E1FC04000020002129
:1001500004F052FD401C60601FBD10B510BD04F0DE
:10016000DAFC1146FFF7ECFF00F0BFF804F0F8FCF2
:1001700003B4FFF7F2FF03BC04F038FD0B49D1F8DC
:1001800000C04A685CF8043B1068184442F8040B4D
:100190008C4528BFA1F1DC0C8A4228BFA1F1DC020A
:1001A000C1F800C04A6020F000407047DC01001038
:1001B0004FF4E131002004F0AFBA0A4601460020B6
:1001C00004F021BB10B5044604F072FC214602463F
:1001D000BDE81040002004F016BB0146002004F0EA
:1001E00002BB5348016E41F000710166016E41F09F
:1001F00080610166816F41F000718167816F41F01C
:100200008061816770474A4920B1C86F40F0007033
:10021000C8677047886F40F000708867704744492E
:1002200020B1C86F40F08060C8677047886F40F0A9
:100230008060886770473E48406F00F00070E2E7DA
:100240003B48406F00F08060E9E770B54FF0E02078
:100250000069C0031BD5374C20680025142803DB38
:10026000256000F011FA02E02068401C2060606800
:100270000A2815DB656001202061A1680A290BDBD3
:10028000A5606061E1680A2902DBE560A06170BDDC
:10029000E068401CE06070BDA068401CA06070BDBC
:1002A0006068401C606070BD10B504F0D0F9224851
:1002B00042F210710068B0FBF1F0401EB0F1807F97
:1002C00009D24FF0E02148611C4AF820107000204C
:1002D000886107200861FFF76BFFFFF782FF00F0DE
:1002E000E1FABDE8104016A06CE7FFF7DDFF012042
:1002F000FFF789FF0120FFF792FF0E4C002512A0A7
:1003000001F08FFA14A001F0F0F901F07CFF01F088
:1003100024FD01F00EFE2069012800D125616069ED
:10032000012800D16561A0690128E8D1A561E6E74F
:1003300000C00920000000102800001023ED00E09C
:10034000496E69740A00000020206C7070726F6A38
:1003500065637473000000002032303134200000E7
:10036000FC49020604D58A6D42F480528A6503E096
:10037000CA6D42F48052CA65420604D58A6D42F4C1
:1003800000528A6503E0CA6D42F40052CA658206D3
:1003900004D58A6942F400628A6103E0CA6942F4C2
:1003A0000062CA61C20604D58A6D42F400628A65A1
:1003B00003E0CA6D42F40062CA65020704D58A6987
:1003C00042F400128A6103E0CA6942F40012CA6171
:1003D000420704D58A6942F480028A6103E0CA694F
:1003E00042F48002CA61820704D58A6D42F48072A9
:1003F0008A6503E0CA6D42F48072CA65C00704D002
:10040000886D40F4007088657047C86D40F40070D6
:10041000C8657047CF4A49B308280DD2DFE800F01D
:1004200004080D11151A1E22906D40F4805002E050
:10043000906D40F4005090657047906940F4006002
:1004400006E0906D40F40060F5E7906940F400101C
:1004500090617047906940F48000F9E7906D40F436
:100460008070E8E7906D40F40070E4E70828F0D26F
:10047000DFE800F004080D11151A1E22D06D40F4BB
:10048000805002E0D06D40F40050D0657047D069D4
:1004900040F4006006E0D06D40F40060F5E7D069FC
:1004A00040F40010D0617047D06940F48000F9E753
:1004B000D06D40F48070E8E7D06D40F40070E4E760
:1004C000A44A41B308280DD2DFE800F004080D115A
:1004D00015191D21906D40F0020002E0906D40F072
:1004E000010090657047906D40F00800F9E7906D4D
:1004F00040F00400F5E7906D40F02000F1E7906DCA
:1005000040F01000EDE7906D40F08000E9E7906D5D
:1005100040F04000E5E70828E4D2DFE800F00408F6
:100520000D1115191D21D06D40F0020002E0D06DB3
:1005300040F00100D0657047D06D40F00800F9E749
:10054000D06D40F00400F5E7D06D40F02000F1E7F9
:10055000D06D40F01000EDE7D06D40F08000E9E78D
:10056000D06D40F04000E5E77A49C20706D0D1F8E7
:10057000982042F08052C1F8982005E0D1F89C20E4
:1005800042F08052C1F89C20820706D5D1F898200D
:1005900042F00052C1F8982005E0D1F89C2042F0CA
:1005A0000052C1F89C20420704D58A6942F020021B
:1005B0008A6103E0CA6942F02002CA61020704D5D9
:1005C0008A6942F010028A6103E0CA6942F01002AF
:1005D000CA61C20604D58A6942F080028A6103E0DA
:1005E000CA6942F08002CA61820604D58A6942F073
:1005F00040028A6103E0CA6942F04002CA614206D1
:1006000004D58A6942F400728A6103E0CA6942F43F
:100610000072CA61000604D5886940F48070886160
:100620007047C86940F48070C86170472DE9F04197
:1006300000242046FFF794FE00BF474E002506EB3E
:10064000C407785DC043C0B2FFF78EFF00BF012131
:100650002846FFF735FF00BF00212846FFF730FF8F
:1006600000BF6D1C082DECDB01212046FFF7D2FEF8
:10067000642004F071F90020FFF772FE00BF641CD3
:10068000082CDBDBBDE8F08170B500252846FFF7BC
:1006900067FE00BF304E314C206806EBC000405D65
:1006A000C043C0B2FFF760FF00BF01212846FFF73B
:1006B00007FF00BF00212846FFF702FF00BF6D1CA7
:1006C000082DE9DB01212068FFF7A4FE642004F077
:1006D00043F90020FFF744FE00BF2068072801DA35
:1006E000401C00E00020206070BD10B500211A4CB5
:1006F0000B46002004EBC1021354401C0828FBDB0E
:10070000491C0829F5DB10BD134B00210A4603EBF9
:10071000C0004254491C0829FBDB704710B500217A
:100720000D4CFF23002004EBC1021354401C082889
:10073000FBDB491C0829F5DB10BD074807210170C8
:1007400041708170017241728172017441748174CF
:100750007047000000C00920400000101C0000107D
:1007600067480F220270092141708170C2700172C6
:10077000C1720174C174027641768176C276E7E770
:100780002DE9F0410025DFF87881FF27002408EBF0
:10079000C50600BFFFF7F2FC90FBF7F107FB110065
:1007A0003055641C082CF5DB6D1C082DEEDB69E769
:1007B00010B50021524C0123002004EBC102135458
:1007C000401C0828FBDB491C0829F5DB10BD002074
:1007D0004B49FF220A54401C0828FBDBB8E70020E5
:1007E0004749FF2201F83020401C0828FADBAFE718
:1007F0004449C20704D08A6D42F002028A6503E0D0
:10080000CA6D42F00202CA65820704D58A6D42F0C1
:1008100001028A6503E0CA6D42F00102CA6542071F
:1008200004D58A6D42F008028A6503E0CA6D42F081
:100830000802CA65020704D58A6D42F004028A657F
:1008400003E0CA6D42F00402CA65C20604D58A6D8F
:1008500042F020028A6503E0CA6D42F02002CA65B8
:10086000820604D58A6D42F010028A6503E0CA6DE3
:1008700042F01002CA65420604D58A6D42F0800239
:100880008A6503E0CA6D42F08002CA65000604D59D
:10089000886D40F0400088655AE7C86D40F0400020
:1008A000C86555E71748016C41F46C510164026852
:1008B00015490A430260C26D42F46C52C265C269B6
:1008C0000A43C261016C41F0FF010164C16D41F056
:1008D000FF01C165016841F47C710160D0F88010AE
:1008E00041F04051C0F88010816941F47C71816110
:1008F000D0F8981041F04051C0F89810F5E600008B
:100900004000001000C0092000086000FE4A662870
:100910007ED07EDC37287DD07DDC32287CD065DC43
:100920002E287AD037DC212878D026285DD112F8FD
:10093000020F08431070507808435070D078084375
:10094000D070D0790843D071907A08439072D07BF0
:100950000843D073507C08435074D07C0843D07453
:10096000107E08431076D07F0843D07792F821009C
:10097000084382F8210092F82700084382F82700F4
:1009800092F82A00084382F82A0092F830000843BF
:1009900082F83000FDE330287DD0312825D19078D1
:1009A00008439070D0780843D070107908431071D4
:1009B000D07A0843D072D07C0843D074D07E0843EC
:1009C000D07692F82300084382F8230092F82A0098
:1009D000084382F82A0092F82B00084382F82B0083
:1009E00092F83300084382F83300704733287DD0F3
:1009F00034287CD035287BD03628F6D112F8020F67
:100A0000084310705078084350709078084306E00F
:100A1000F2E288E07FE12AE0D3E024E2E7E19070AF
:100A2000D0790843D071D07A0843D072D07B084384
:100A3000D073D07C0843D074D07D0843D075107E2D
:100A400008431076507E08435076907E0843907697
:100A5000D07F0843D07792F82800084382F8280016
:100A600092F83100084382F831003232C5E3612840
:100A70007ED020DC38287CD039287BD03A287AD028
:100A80003F28B2D1D0781532084302F8120C12F880
:100A9000020C084300E060E002F8020CD079084341
:100AA000D071107C08431074107D08431075107EBF
:100AB00008431076B3E162287DD063287CD0642897
:100AC0007BD0652891D150780843507090780843C6
:100AD0009070D0780843D070107908431071507925
:100AE00008435071507A0843507202E082E0A7E058
:100AF000D2E0507C08435074507E08435076907E7C
:100B000008439076D07E0843D076107F0843107754
:100B100092F82100084382F8210092F82900084346
:100B200082F82900FDE367381428BFF45EAFDFE8E0
:100B300010F08502AE02E9021503340365038D034C
:100B4000CC030A041E042E0451048804AE04CA0413
:100B5000E40410054B057905A00512F8020F0843BF
:100B6000107050780843507090780843907003E0FC
:100B700086E1E9E019E15CE1D0790843D071D07AEF
:100B80000843D072D07B0843D073107C08431074A4
:100B9000D07C0843D074D07D0843D075507E084384
:100BA0005076D07E0843D076D07F0843D07792F835
:100BB0002200084302E099E1BFE1ECE182F8220063
:100BC000E2E0507808435070907808439070D078F5
:100BD0000843D07010790843107150790843507160
:100BE000907A08439072D07C0843D074107F0843F9
:100BF00010776BE190781532084302F8130C12F865
:100C0000120C084302F8120C12F8110C084302F8F7
:100C1000110C12F80C0C084302F80C0C12F8080C1A
:100C2000084302F8080C107808431070D079084384
:100C3000D071907B08439073D07D0843D07559E004
:100C400010790C32084302F8080C10780843107031
:100C5000507908435071907908439071D0790843D6
:100C6000D071107A08431072507A08435072507B4A
:100C700008435073107C08431074907D08439075AE
:100C8000107E08431076D07F0843D07792F820007A
:100C9000084382F8200016E390781532084302F8E2
:100CA000130C12F8120C084302F8120C12F8110C73
:100CB000084302F8110C12F80C0C084302F80C0C53
:100CC00012F8080C084302F8080C1078084310705A
:100CD000107A08431072107B08431073507B08434E
:100CE0005073907B08439073D07B0843D073107D82
:100CF00008431075107F08431077507F08435077E2
:100D0000907F0843907701E040000010D07F0843B7
:100D1000D077203271E290781632084302F8140C32
:100D200012F80C0C084302F80C0C12F8040C0843DF
:100D300002F8040C507908435071907B084390737B
:100D4000D07D0843D075BAE312F8020F0843107043
:100D5000507808435070907808439070D0790843D9
:100D6000D071D07A0843D072D07B0843D073D07C46
:100D70000843D074107E08431076507E08435076A6
:100D8000907E0843907621E392F82300084382F88E
:100D9000230000BF92F82700084382F8270092F84A
:100DA0002B00084382F82B00EFE0907815320843BF
:100DB00002F8130C12F8120C084302F8120C12F885
:100DC000090C084302F8090C107808431070507998
:100DD00008435071907908439071D0790843D071DD
:100DE000107A08431072107B0843107359E6D078CC
:100DF0001632084302F8130C507908435071507BA7
:100E000008435073107D08431075507D084350759A
:100E1000907D0843907552E3107F08431077507F10
:100E200008435077907F08439077D07F0843D0776E
:100E3000704712F80A0F084310705078084350703A
:100E4000107A08431072507A08435072107E08439B
:100E50001076507E0843507692F82000084382F8BE
:100E600020002132C9E1907A08439072D07A084379
:100E7000D072907C08439074D07C0843D074704743
:100E8000507808435070507908435071507A0843A5
:100E90005072507B08435073507C08435074907CD0
:100EA00008439074D07C0843D074107D08431075BB
:100EB000507D08435075507E08435076507F08435C
:100EC000507792F82100084382F8210092F825001B
:100ED000084382F8250092F82900084382F8290087
:100EE00092F82D00084382F82D0027E15078153242
:100EF000084302F8140C12F8130C084302F8130C00
:100F000012F8120C084302F8120C12F8110C0843E4
:100F100002F8110C12F80C0C084302F80C0C12F831
:100F2000080C084302F8080C12F8040C084302F8F5
:100F3000040C1078084310706AE212F8020F08439C
:100F40001070507808435070907808439070D07AB1
:100F50000843D072D0790843D071D07B0843D07356
:100F6000D07D0843D075D07F0843D07792F8270012
:100F7000084382F8270092F82B00084382F82B00E0
:100F800092F82700084382F8270092F830000843BF
:100F900082F8300064E550781432084302F8130CEC
:100FA00012F8120C084302F8120C12F8110C084344
:100FB00002F8110C12F80B0C084302F80B0C12F893
:100FC000080C084302F8080C12F8030C084302F856
:100FD000030C507808435070507908435071507A90
:100FE00008435072507B08435073507C0843507440
:100FF000507D084350755AE550781632084302F880
:10100000150C12F80D0C084302F80D0C12F8050C23
:10101000084302F8050CD0780843D07010790843D3
:101020001071507908435071907908439071D07ACB
:101030000843D072D07C0843D07440E212F8020F0B
:1010400008431070507808435070907808439070AF
:10105000D0780843D070D0790843D071D07A084353
:10106000D072D07B0843D073D07C0843D074D07D3D
:101070000843D075507E08435076907E08439076A2
:10108000D07E0843D076D07F0843D07782E6507870
:1010900008435070507908435071507A0843507299
:1010A000507B08435073507C08435074507D084374
:1010B0005075507E08435076907E08439076D07EDF
:1010C0000843D076107F08431077507F084350774D
:1010D00092F82100084382F8210092F82500084385
:1010E00082F8250092F82900084382F8290092F836
:1010F0002D00084382F82D0092F83100084382F851
:101100003100ECE2907808439070D0780843D070BA
:10111000107908431071D07A0843D072D07C08430C
:10112000D074D07E0843D07692F82300084382F82A
:10113000230092F82B00084382F82B0092F832002B
:10114000084382F8320092F83300084382F83300F3
:1011500092F83400084382F83400704790780843CE
:101160009070D0780843D070507A08435072107B4A
:1011700008431073107D08431075107F08431077E3
:1011800092F82400084382F8240092F82C000843C7
:1011900000E031E082F82C0097E25078121D0843FD
:1011A00002F8030C5078084350705079084350718E
:1011B000107A08431072507B08435073D07B084369
:1011C000D073507D08435075907D08439075507FD3
:1011D00008435077D07F0843D07792F82500084322
:1011E00082F8250092F82800084382F8280092F837
:1011F0002D00084382F82D00313236E25078084342
:101200005070907808439070D0780843D07010796F
:1012100008431071507908435071507A0843507256
:10122000507C08435074507E0843507692F8210059
:10123000084382F8210092F82900084382F8290027
:1012400092F83100084382F83100704750780D322F
:10125000084302F80C0C12F8080C084302F8080CBA
:1012600012F8040C084302F8040C107808431070BC
:10127000107908431071107A08431072107B0843EC
:101280001073907B08439073107C08431074107D9A
:1012900008431075907D08439075107E08431076C2
:1012A000107F08431077507F08435077D07F084362
:1012B000D07792F82000084382F8200092F82400AA
:1012C000084382F824002832CFE15078D21C08432A
:1012D00002F8020C9078084390709079084390715E
:1012E000907A08439072907B08439073507C084337
:1012F0005074907C08439074907D08439075107EE4
:1013000008431076907E08439076907F084390774C
:10131000D07F0843D07792F82200084382F8220059
:1013200000E0C8E192F82600084382F8260092F80F
:101330002A00084382F82A0092F82E00084382F817
:101340002E00FFF792BB12F8020F0843107050787E
:1013500008435070907808439070D0790843D0715A
:10136000D07A0843D072D07B0843D07325E0507800
:101370001532084302F8140C12F80C0C084302F85A
:101380000C0C12F8040C084302F8040C40E012F8AC
:10139000020F08431070507808435070D07808430B
:1013A000D070D0790843D071907A08439072D07B86
:1013B0000843D073507C08435074D07C0843D074E9
:1013C000D07D0843D075D07E0843D076D07F0843C7
:1013D000D077D9E450781532084302F8140C12F88B
:1013E000100C084302F8100C12F80C0C084302F819
:1013F0000C0C12F8090C084302F8090C12F8040C42
:10140000084302F8040C12F8020C084302F8020C1C
:10141000107908431071507908435071907908434E
:101420009071D0790843D071107B08431073107C01
:1014300008431074107D08431075107E0843107621
:10144000EAE4507808435070907808439070D07860
:101450000843D070107908431071507B08435073D3
:10146000507D08435075907E08439076D07E0843A7
:10147000D076107F0843107792F82100084382F855
:10148000210092F82900084382F8290018E1D07859
:101490001632084302F8130C12F80B0C084302F83A
:1014A0000B0C12F8030C084302F8030C50790843A4
:1014B0005071507B08435073507D08435075D07E67
:1014C0000843D076A8E412F8020F08431070507851
:1014D00008435070907808439070D0790843D071D9
:1014E000D07A0843D072D07B0843D073D07C0843B5
:1014F000D074D07D0843D0754AE0D0780A320843D2
:1015000002F8070C10780843107090780843907028
:10151000D0790843D071D07A0843D072D07B084389
:10152000D073D07C0843D074D07D0843D075D07E72
:101530000843D076D07F0843D07792F82300084341
:1015400082F8230092F82700084382F827002B3204
:101550008BE012F8020F08431070907808439070E7
:10156000D0790843D071507A08435072D07A08433A
:10157000D072D07B0843D073507C08435074D07C29
:101580000843D074D07D0843D075507E0843507610
:10159000D07E0843D076D07F0843D07792F82300DE
:1015A000084382F8230092F82700084382F82700B6
:1015B00092F82B00084382F82B0092F82F00084382
:1015C00082F82F00333250E05078521D084302F861
:1015D000040C107808431070107908431071107AC9
:1015E00008431072507B08435073D07B0843D0737C
:1015F000907D08439075507F08435077D07F084313
:10160000D07792F82400084382F8240092F828004A
:10161000084382F8280092F82C00084382F82C0036
:10162000303222E0D0781232084302F80F0C12F860
:10163000070C084302F8070C507808435070107AE2
:1016400008431072907A08439072D07B0843D0739D
:10165000D07C0843D074D07D0843D075D07E084339
:10166000D076D07F0843D0772332107808431070AB
:101670007047507808435070907808439070D07845
:101680000843D070107908431071507908435071A5
:10169000507A08435072907C08439074D07E08437F
:1016A000D07692F82400084382F8240092F82D00A6
:1016B000084382F82D0092F83100084382F8310087
:1016C00092F83200084382F8320092F8330008435F
:1016D00082F8330092F83400084382F8340092F81C
:1016E0003500084382F83500704770B5054601267D
:1016F00012E00824FEF7F9FF287803F0AEF9621E25
:10170000C0B206FA02F1FFF701F9642003F01AF9FA
:10171000641E002CEEDC6D1C28780028E9D170BD19
:1017200019214218491E12F8023D01295370F8DCB4
:101730000021017070472DE9F0410446FEF7D5FF06
:101740000522F84B0121C2F10C06002001FA06F532
:10175000A75C01FA00F6374204D003EBC006F77924
:101760002F43F771401C0828F2DB521C0B2AEADDDC
:101770000C200022C0F11205275C01FA02F6374264
:1017800005D003EBC206775D47F001077755521C81
:10179000082AF1DB401C1128EBDD1220A0F1110515
:1017A000002201FA05F6275C01FA02F52F4204D067
:1017B00013F83250354303F83250521C082AF2DB3A
:1017C000401C1828EADDBDE8F041C82003F0BAB893
:1017D0002DE9F0410D4606460024FEF786FF30460F
:1017E00003F03BF9C0B20121FFF790F8CD4F012182
:1017F000012007EBC40301FA04F21E5CF60706D0D1
:10180000C0F1050C15F80C60164305F80C60401C7F
:101810000628F2DB641C082CEADBBDE8F041FEF789
:1018200064BF30B587B000210A466B465A54491C44
:101830001929FBDB841C0DE06946FFF7C9FF002571
:101840006846FFF778FF6846FFF76AFF6D1C062DB4
:10185000F6DB641C20780028EED100246846FFF7F0
:101860006AFF6846FFF75CFF641C122CF6DB07B0CA
:1018700030BD2DE9F04700248146012505EB4400E9
:10188000C0B2FEF741FF6006000EFEF73DFF0020EC
:1018900009EB84060021325C05FA01F31A422CD0D0
:1018A000A04A02EB041313F810704FEA410C05FA3A
:1018B0000CF2174303F8107013F8107005EB410C8D
:1018C00005FA0CF847EA080703F8107003EB400329
:1018D0005F7817435F705F7847EA08075F701F7A89
:1018E00017431F721F7A47EA08071F725F7A174370
:1018F0005F725A7A42EA08025A72491C0429CADB0A
:10190000401C0428C6DB641C042CB7DBBDE8F04790
:10191000C82003F017B870B500EB81055C1EA85C09
:10192000012101FA04F4204201D0012070BD994048
:1019300088432043A854002070BD70B500EB81059A
:101940005C1CA85C012101FA04F4204201D00120B2
:1019500070BD994088432043A854002070BD30B525
:1019600000EB8104A518012015F8011C98400142E4
:1019700001D0012030BDA35C01438343A35405F88B
:10198000011C002030BD30B500EB8104A5180120FA
:1019900069789840014201D0012030BDA35C014329
:1019A0008343A3546970002030BD30B500EB81043F
:1019B000A518012015F8041C9840014201D001200F
:1019C00030BDA35C01438343A35405F8041C0020ED
:1019D00030BD30B500EB8104A5180120297998406D
:1019E000014201D0012030BDA35C01438343A354D5
:1019F0002971002030BD2DE9FF470025FEF775FE57
:101A000000226C46002004EB85010A54401C042887
:101A1000FBDB6D1C042DF5DB9DF803309DF8000009
:101A200043F0010C40F001029DF801009DF80430E4
:101A300040F0010143F001079DF802009DF80530D8
:101A400042F00E0243F001068DF8002041F00E0135
:101A50009DF806308DF8011040F00F008DF802005F
:101A600043F001054CF00E009DF807308DF803009F
:101A700047F008008DF8040046F008008DF80500D6
:101A800045F0080043F001038DF8060043F008001C
:101A90008DF807002046FFF7ECFE0027A0464FF028
:101AA000010900BFFEF76AFBC11700EB917121F03D
:101AB0000301401AC6B2FEF761FBC11700EB91713A
:101AC00021F00301401AC5B2FEF758FBC11700EB25
:101AD000917121F00301401AC4B208EB8500815DC9
:101AE00009FA04F0014269D0FEF748FB062190FB99
:101AF000F1F201FB1200062860D2DFE800F01021AD
:101B0000303F4E5D2346324629466846FFF761FF67
:101B1000002853D16846FFF7ACFE6D1CEDB2032DD3
:101B2000F0D34BE040000010234632462946684679
:101B3000FFF73BFF20BB6846FFF79BFE6D1EEDB233
:101B4000002DF1D13AE02346324629466846FFF798
:101B50001AFFA8B96846FFF78CFE761CF6B2032E72
:101B6000F1D32BE02346324629466846FFF7F7FEBD
:101B700030B96846FFF77DFE761EF6B2002EF1D131
:101B80001CE02346324629466846FFF7D6FEA8B930
:101B90006846FFF76EFE641CE4B2032CF1D30DE03F
:101BA0002346324629466846FFF7B5FE30B96846F7
:101BB000FFF75FFE641EE4B2002CF1D17F1CB7F585
:101BC000FA6FFFF66FAFBDE8FF8710B50024FEF790
:101BD0008CFDFF49FF2008550A191072641C082C5F
:101BE000F9DB3C2002F0AEFE0024032302211A465A
:101BF000084601F03FFA072303220621022001F0E4
:101C000039FA032307220221062001F033FA0723C1
:101C100006211A46084601F02DFA3C2002F092FEF9
:101C2000641C062CE1DB0024012300211A4608462F
:101C300001F020FA052301220421002001F01AFA04
:101C4000012305220021042001F014FA05230421B8
:101C50001A46084601F00EFA3C2002F073FE641C9E
:101C6000042CE1DB0024012303220021022001F0E7
:101C700001FA012307220021062001F0FBF90523C8
:101C800003220421022001F0F5F905230722042193
:101C9000062001F0EFF93C2002F054FE641C022CF7
:101CA000E1DB0024032307220221062001F010FAC1
:101CB0003C2002F047FE641C042CF3DB00240123CB
:101CC00005220021042001F003FA3C2002F03AFE34
:101CD000641C022CF3DB00240523032204210220D0
:101CE00001F0A4F93C2002F02DFE641C062CF3DB6D
:101CF0000024012303220021022001F0E9F93C2005
:101D000002F020FE641C022CF3DB002403230122DA
:101D10000221002001F08AF93C2002F013FE641C2D
:101D2000062CF3DB0024032301220221002001F012
:101D3000A1F93C2002F006FE641C042CF3DB002415
:101D4000052303220421022001F0F7F93C2002F0D0
:101D5000F9FD641C022CF3DB10BD2DE9F0410024D9
:101D6000FEF735FD642002F0EDFD0025984EFF27BB
:101D7000002006EBC4010D540A181772401C0828F5
:101D8000F9DB642002F0DEFD641C072CF0DB00248C
:101D9000072300211A46084601F09AF9642002F050
:101DA000D1FD641C072CF3DBBDE8F0812DE9F04781
:101DB0001824DFF81C8200254FF001090321EA1CDA
:101DC00012E0C1F10703032008EBC30308EBC106CF
:101DD00007E000BFC0F10707F4553454DC551C542C
:101DE000401C9042F6DD491C9142EADDC82002F019
:101DF000A9FDC5F1030109FA01F12B1D09FA03F24E
:101E0000114321436D1C4846CCB2042DD6DD00257C
:101E10004FEA0009C5F1030109FA01F12A1D09FA87
:101E200002F001438C430321C446EA1C12E0C1F1D5
:101E300007030CEBC30603200CEBC10307E000BF54
:101E4000C0F10707DC551C54F4553454401C904233
:101E5000F6DD491C9142EADDC82002F073FD6D1CDD
:101E6000042DD7DDBDE8F08710B5FEF73EFC01215B
:101E7000574C812004F8310004EBC102D071491C99
:101E80000729F7DB01216054621882F83800491CE9
:101E90000729F8DBFF20207084F83800E07184F80F
:101EA0003F00C82002F04EFD0221422004EBC10297
:101EB00050709071491C0629F8DB022162181072DB
:101EC00082F83000491C0629F8DB7E20607284F815
:101ED0003100A07384F83600C82002F033FD0320DF
:101EE0005FF0240104EBC00291705171401C052881
:101EF000F8DB03202218117482F82810401C0528F2
:101F0000F8DB3C2004F8120F2076E070E076C82061
:101F100002F018FD182060726074A072A074C820CE
:101F200002F010FDFEF7E1FBBDE81040C82002F012
:101F300009BD10B50024FEF7D8FB25480F2100BFCE
:101F400000F8341000EBC40251709170D170641C21
:101F5000032CF5DD0421FF2200EBC1031A715A7135
:101F60009A71DA71491C0729F6DD3C2002F0EAFC7F
:101F70000024032307220021042001F0A9F83C20BB
:101F800002F0E0FC641C032CF3DD00240323002199
:101F90001A46084601F04AF83C2002F0D3FC641CC3
:101FA000032CF3DD0024072303220421002001F089
:101FB00061F83C2002F0C6FC641C032CF3DD002415
:101FC000072304211A46084601F082F83C2001E06C
:101FD0004000001002F0B6FC641C032CF0DD00246D
:101FE000032300211A46084601F0DAF83C2002F0EB
:101FF000A9FC641C032CF3DD002403230722002129
:10200000042001F025F83C2002F09CFC641C032C09
:10201000F3DD0024032307220021042001F006F849
:102020003C2002F08FFC641C032CF3DD002407230A
:1020300004211A46084601F01DF83C2002F082FCFB
:10204000641C032CF3DD0024032300211A460846F8
:1020500001F073F83C2002F075FC641C032CF3DDE6
:102060000024032307220021042001F003F83C2070
:1020700002F068FC641C032CF3DD00240723032218
:102080000421002001F024F83C2002F05BFC641CD9
:10209000032CF3DD0024032300211A46084600F038
:1020A000D7FF3C2002F04EFC641C032CF3DD10BD76
:1020B0002DE9F047012400264FF00109DFF83CA488
:1020C000FEF713FB002512E0FEF758F800F00708B2
:1020D000FEF754F800F00707FEF750F800F007018C
:1020E0000AEBC70209FA01F002F808006D1CA542CC
:1020F000EADB502002F026FC761C122EE0DB641C8A
:102100001E2CD8DBAEE670B50025FEF7EEFA3C20BB
:1021100002F018FCF94C0126207806FA05F1084374
:10212000207014F8350040F0010004F83500605DBF
:1021300040F0010060553C2002F004FC6D1C082DAD
:10214000EADB012594F8381006FA05F0014384F81B
:102150003810611911F8382F42F001020A7014F892
:10216000351041F0800104F83510615D41F08001C7
:102170006155E1790143E17104EBC500C17941F09A
:102180000101C1713C2002F0DDFB6D1C082DD9DB83
:102190000125601910F8381F41F08001017094F892
:1021A0003F0006FA05F1084384F83F0004EBC50040
:1021B000C17941F08001C1713C2002F0C3FB6D1C6C
:1021C000082DE6DB1E2002F0BDFBFEF78EFA7E2016
:1021D0006072A07384F8310084F836000220422136
:1021E0002218117282F8301004EBC0025170917104
:1021F000401C0628F4DB1E2002F0A4FBBDE8704062
:10220000082001F001B870B50025FEF76EFABB4C4E
:10221000072300211A46084600F0C2FFE07FFF2096
:10222000E0773C2002F08EFB072300211A46084687
:1022300000F0B6FFE07DFF20E0753C2002F082FB5D
:10224000072300211A46084600F0AAFFE07BFF2082
:10225000E0733C2002F076FB072300211A46084673
:1022600000F09EFFE079FF20E0713C2002F06AFB65
:10227000072300211A46084600F092FFE079FF206C
:10228000E0713C2002F05EFB072300211A4608465D
:1022900000F086FFE07BFF20E0733C2002F052FB61
:1022A000072300211A46084600F07AFFE07DFF2050
:1022B000E0753C2002F046FB072300211A46084641
:1022C00000F06EFFE07FFF20E0773C2002F03AFB59
:1022D000072300211A46084600F062FF94F8270001
:1022E000FF2084F827003C2002F02CFB072300216C
:1022F0001A46084600F054FF94F82F00FF2084F897
:102300002F003C2002F01EFB072300211A4608463E
:1023100000F046FF94F83700FF2084F837003C2097
:1023200002F010FB072300211A46084600F038FF90
:1023300094F83F00FF2084F83F003C2002F002FBAD
:10234000072300211A46084600F02AFF94F83F00B0
:10235000FF2084F83F003C2002F0F4FA072300211C
:102360001A46084600F01CFF94F83700FF2084F856
:1023700037003C2002F0E6FA072300211A460846FF
:1023800000F00EFF94F82F00FF2084F82F003C206F
:1023900002F0D8FA072300211A46084600F000FF91
:1023A00094F82700FF2084F827003C2002F0CAFAA6
:1023B0006D1C0A2DFFF62CAF70BD2DE9F84F0020E3
:1023C0004FF005094FF0800B4FF0180A4B4D00906D
:1023D000FEF78BF93C2002F0B5FAFDF7CFFE90FB3B
:1023E000F9F209FB1200C6B2FDF7C8FEC11700EBF7
:1023F000517121F00701401A401CC4B2032E7CD851
:10240000FEF773F90020D84603E000BF05F83080DE
:10241000401CA042FADB002703E000BF02F055F8A1
:102420007F1CB742FADB502002F08CFAFEF75DF910
:1024300000204146402205E005F8302005EBC003AE
:102440005970401CA042F7DB002702E002F03DF883
:102450007F1CB742FADB502002F074FAFEF745F910
:1024600000204FF0200808E005F8308005EBC0029E
:1024700082F80180C0219170401CA042F4DB00274B
:1024800003E000BF02F021F87F1CB742FADB5020C6
:1024900002F058FAFEF729F9434600204FF01008E1
:1024A0000AE000BF05F8308005EBC00282F8018029
:1024B0009370C021D170401CA042F3DB002702E0E2
:1024C00002F003F87F1CB742FADB502002F03AFA20
:1024D000FEF70BF90020C02230230AE0082705F898
:1024E000307005EBC0014F7081F80280CB700A712B
:1024F000401CA042F2DB002705E0B7E040000010DE
:1025000001F0E3FF7F1CB742FADB502002F01AFA19
:10251000FEF7EBF800200DE0042205F8302005EB73
:10252000C0014A708A700822CA7081F80480E022D3
:102530004A71401CA042EFDB002702E001F0C5FF1A
:102540007F1CB742FADB502002F0FCF9FEF7CDF811
:10255000434600204FF0020810E000BF05F830802D
:1025600005EBC00181F8018081F802800422CA7065
:1025700008220A714B71E0228A71401CA042EDDBF7
:10258000002702E001F0A1FF7F1CB742FADB5020D8
:1025900002F0D8F9FEF7A9F80021E02253460FE037
:1025A000012705F8317005EBC1004770877080F88E
:1025B000038080F80480042747718371C271491C2D
:1025C000A142EDDB002702E001F07FFF7F1CB74254
:1025D000FADB502002F0B6F9FEF787F80020082257
:1025E000042308E005EBC00101270F7181F8058085
:1025F0008B71CA71401CA042F4DB002703E000BFCE
:1026000001F063FF7F1CB742FADB502002F09AF919
:10261000FEF76BF8424600204FF0010806E000BFCD
:1026200005EBC00181F80680CA71401CA042F7DBAF
:10263000002702E001F049FF7F1CB742FADB50207F
:1026400002F080F9FEF751F80020414604E000BF97
:1026500005EBC002D171401CA042F9DB002402E06E
:1026600001F033FF641CB442FADB6FE0FEF73DF883
:102670000020564605E000BF05EBC001CE700E718C
:10268000401CA042F8DB502002F05CF9FEF72DF868
:102690000020242707E000BF05EBC0018E70CF703B
:1026A0000F714E71401CA042F6DB502002F04AF937
:1026B000FEF71BF800214FF042080AE005EBC100CD
:1026C0004670877080F8038080F8048047718671B7
:1026D000491CA142F2DB502002F034F9FEF705F864
:1026E0000021662281270DE005F8316005EBC1006D
:1026F000427080F80280C770077180F8058082718F
:10270000C671491CA142EFDB502002F01BF9FDF716
:10271000ECFF00203E4608E005F8308005EBC001E4
:102720004E708E7181F80780401CA042F4DB50206F
:1027300002F008F9FDF7D9FF002005E005F8306048
:1027400005EBC001CE71401CA042F7DB502002F027
:10275000F9F80098401C00900A28FFF639AEBDE851
:10276000F88F10B5FDF7C1FF0121F94C812000BFA2
:1027700004F8310004EBC102D071491C0729F7DBD2
:1027800001216054621882F83800491C0729F8DBDF
:10279000FF20207084F83800E07184F83F008C201E
:1027A00002F0D0F80221422004EBC1025070907177
:1027B000491C0629F8DB02216218107282F83000E9
:1027C000491C0629F8DB7E20607284F83100A07372
:1027D00084F836008C2002F0B5F803205FF0240165
:1027E00004EBC00291705171401C0528F8DB0320F6
:1027F0002218117482F82810401C0528F8DB3C20B0
:1028000004F8120F2076E070E0768C2002F09AF83F
:10281000182060726074A072A074BDE810404FF47C
:10282000AF6002F08FB82DE9F0410446FDF75DFF7F
:102830000522C74B0121C2F10C06002001FA06F562
:10284000A75C01FA00F6374204D003EBC006F77923
:102850002F43F771401C0828F2DB521C0B2AEADDDB
:102860000C200022C0F11205275C01FA02F6374263
:1028700005D003EBC206775D47F001077755521C80
:10288000082AF1DB401C1128EBDD1220A0F1110514
:10289000002201FA05F6275C01FA02F52F4204D066
:1028A00013F83250354303F83250521C082AF2DB39
:1028B000401C1828EADDBDE8F041642002F042B86F
:1028C0002DE9F047C022002403276FF00705A04B35
:1028D000661F06EBC00A05EBC00907EBC00603EB59
:1028E000C0050F6817F805C01CEA020F2BD007EBD4
:1028F000030818F809C01CEA020F24D017F805C015
:102900002CEA020C07F805C00F681F4417F809C02D
:102910002CEA020C07F809C00F6807EB030C02272A
:1029200007EBC0081CF8087017430CF808700F6814
:1029300007EB030C6FF0050707EBC0081CF80870E5
:1029400017430CF808700F681F4417F806C01CEAFC
:10295000020F29D017F80AC01CEA020F24D017F87A
:1029600006C02CEA020C07F806C00F681F4417F8CF
:102970000AC02CEA020C07F80AC00F6807EB030C28
:10298000052707EBC0081CF8087017430CF80870FF
:102990000F686FF0020C1F440CEBC00C17F80C8092
:1029A00048EA020807F80C80D210641C032C98DB5C
:1029B0000868401C0860BDE8F0872DE9F047C02298
:1029C000002401270425261F06EBC00A6FF0060C21
:1029D0005F4B05EBC0060CEBC00907EBC0050F68A9
:1029E0001F4417F805C01CEA020F2AD017F809C0C7
:1029F0001CEA020F25D017F805C02CEA020C07F8D4
:102A000005C00F681F4417F809C02CEA020C07F82C
:102A100009C00F684FF0FF3C1F440CEBC00C17F8C7
:102A20000C8048EA020807F80C800F686FF0080C69
:102A30001F440CEBC00C17F80C8048EA020807F89A
:102A40000C800F681F4417F806C01CEA020F2AD03A
:102A500017F80AC01CEA020F25D017F806C02CEAA6
:102A6000020C07F806C00F681F4417F80AC02CEACA
:102A7000020C07F80AC00F684FF0020C1F440CEB61
:102A8000C00C17F80C8048EA020807F80C800F68A1
:102A90006FF0050C1F440CEBC00C17F80C8048EAD3
:102AA000020807F80C80D208641C032C97DB086826
:102AB000401E08607FE770B5C022254B00240568E2
:102AC00003EBC5056E5C164219D06E5C96436E54DE
:102AD000056803EBC5050D446E7896436E70056876
:102AE00003EBC5056E1816F8105D154335700568C3
:102AF00003EBC5056E1816F80F5D154335700568B4
:102B000003EBC5050D44EE78164219D0EE789643D6
:102B1000EE70056803EBC5050D442E7996432E71C2
:102B2000056803EBC5050D4415F80D6D16432E70B1
:102B3000056803EBC5056E1816F80C5D1543357076
:102B4000D210641C032CBADB0168491E016070BD01
:102B5000400000102DE9F05F05460C460068FC4976
:102B60001E4617464FF0010907287DD2401C8A46B1
:102B700001EBC00328602178C1F3031213F802C0EF
:102B800001F00F0809FA08F11CEA010F7AD0401E83
:102B90004FF0070B2FE000BF22780AEBC001C2F311
:102BA00003130B4493F801C002F00F08A8F10108C9
:102BB0000BFA08F24CEA020C83F801C02378C3F345
:102BC000031C11F80C2003F00F08A8F101080BFA00
:102BD00008F31A4301F80C202278C2F303131944B6
:102BE00011F8013D02F00F0CACF1010C0BFA0CF2E4
:102BF00013430B70401C2968491C814201D30828EB
:102C0000CADB3C2001F09EFE2868401E33E000BF76
:102C100022780AEBC001C2F303130B4493F801C0FE
:102C200002F00F08A8F101080BFA08F22CEA020CD6
:102C300083F801C02378C3F3031211F802C003F034
:102C40000F08A8F101080BFA08F32CEA030C01F8AD
:102C500002C02278C2F30313194411F8013D02F0B7
:102C60000F0CACF1010C01E01FE00BE00BFA0CF2D1
:102C700093430B70401C2968491C81422AD30828C1
:102C8000C6DB27E01A4412F8083D8B43137029680D
:102C900022780AEBC105C2F303116B5C02F00F024C
:102CA00009FA02F003436B5411E008280FD222788E
:102CB00001EBC001C2F303121144401C28600A78E2
:102CC000207800F00F0309FA03F082430A703C20D9
:102CD00001F038FE9F4C06210025206890FBF1F2A0
:102CE00001FB1200E0B93068032801DA616829B1FC
:102CF00001280FDB6068012805D008E031463868FC
:102D0000FFF7DEFD03E031463868FFF756FE306816
:102D1000032801D018B103E0C4F8049000E0656016
:102D20002078400606D13868022803D93846316831
:102D3000FFF7C1FE2068FF2803DA401C2060BDE8D1
:102D4000F09F2560FBE77FB50720009000200190F1
:102D500001250920CDE902054324FDF7C6FC7C4886
:102D6000C1781E3041F01C0100F81B1C10F81A1C21
:102D700041F01C0100F81A1C10F8191C41F01C014C
:102D800000F8191C10F8121C41F0080100F8121C80
:102D9000C17C41F0DB01C174C17E41F0DB01C17631
:102DA000017D41F0DB010175017F41F0DB0101771D
:102DB000817D41F0DB018175817F41F0DB0181770D
:102DC000C17D41F0DB01C175C17F41F0DB01C177FD
:102DD0005FE00026FDF7D2F9C11700EB917121F0F9
:102DE0000301401A06D0012810D002281AD0032867
:102DF0002FD123E004F0F00060282AD20021012323
:102E00000722084600F099F9103422E004F0F0009F
:102E100010281ED9002101230722084600F0C0F91E
:102E2000103C16E004F00F00012812D900210723FE
:102E30000122084600F00CF9641E0AE004F00F00BD
:102E4000062806D2002107230122084600F0EEF8EA
:102E5000641C03AB6A4601A902A8FFF77BFE03AB23
:102E60006A4601A902A8FFF775FE761C142EB1DB95
:102E70000220CDE901403648C4F303121030815CD2
:102E800004F00F0305FA03F3194381543C2001F0C9
:102E900059FD009802289CD87FBD70B52C4C0825A0
:102EA00004EBC50010F8081DFF210170C179FF2156
:102EB000C17108300121421812F8083D43F0810326
:102EC0001370491C0729F6DB322001F03BFD6D1E13
:102ED000E6D108250026002004EBC5010A1802F8F7
:102EE000086C401C0828F9DB322001F02BFD6D1E18
:102EF000F1D12CE670B5164C0025072300211A46A7
:102F0000084600F01AF9002014F830104FF0FF3195
:102F100004F83010401C0828F6DB322001F012FDC6
:102F20006D1C082DE9DB322001F00CFD0825002680
:102F30005FF0000004EBC001294401F8016C401C63
:102F40000828F7DB322001F0FDFC6D1EF0D1FEE514
:102F500040000010200000102DE9F0410024FDF792
:102F6000C4FB314E0127307807FA04F10843307072
:102F7000F27BC4F1070307FA03F00243F273327CD9
:102F80000A433274F27F0243F27796F820200A4314
:102F900086F8202096F82F20024386F82F2096F8F6
:102FA00030200A4386F8302096F83F10014386F817
:102FB0003F103C2001F0C6FC641C082CD3DB01252B
:102FC000FDF793FBC5F1070000223044715D07FA5D
:102FD00002F421437155017A21430172711911F8EC
:102FE000103F23430B70037E234303760B7C234364
:102FF0000B7490F82830234380F8283091F8203063
:10300000234381F8203090F83810214380F838109D
:10301000521C082ADADB3C2001F094FC6D1C082DC0
:10302000CEDBBDE8F081000040000010F0B5754E29
:103030000BE00C4606EBC00503E02F5D7F002F552B
:10304000641C9C42F9DD401CC0B29042F1D9F0BD35
:10305000F0B56C4E0BE00C4606EBC00503E02F5DAF
:103060007F082F55641C9C42F9DD401CC0B2904281
:10307000F1D9F0BD2DE9F04FDFF888918B46072795
:103080004FF0010A01461CE05D4617E009EBC70C52
:103090000CEB010616F8088C0AFA05F418EA040F7E
:1030A00005D01CF8018048EA04080CF8018016F8E5
:1030B00008CC2CEA040C06F808CC6D1C9D42E5DD1A
:1030C000491C9142E0DD7F1E002FDBDCBDE8F08F64
:1030D0002DE9F04F0126DFF82C918B46B2460146D0
:1030E00025E05C4620E000BF09EBC60515F801C0ED
:1030F0000AFA04F71CEA070F0ED005EB010C1CF8C6
:10310000088C48EA07080CF8088C15F801C02CEA6E
:10311000070C05F801C006E00D4415F808CC2CEAB0
:10312000070C05F808CC641C9C42DDDD491C91426B
:10313000D7DD761C082ED2DBC8E72DE9F047DFF893
:10314000C4904FF0010A27E0072405461EE000BFA7
:1031500009EBC10707EB040C1CF8018C0AFA05F611
:1031600018EA060F0BD017F8048048EA060807F89B
:1031700004801CF8017CB7430CF8017C05E017F8CB
:1031800004C02CEA060C07F804C06D1C9542DFDD74
:10319000641E002CD9DC491C9942D5DDBDE8F087BE
:1031A0002DE9F047DFF85C904FF0010A26E000249B
:1031B00005461DE009EBC10707EB040C9CF80180F4
:1031C0000AFA05F618EA060F0BD017F8048048EA49
:1031D000060807F804809CF80170B7438CF801706A
:1031E00005E017F804C02CEA060C07F804C06D1CB3
:1031F0009542DFDD641C072CDADB491C9942D6DDE1
:10320000CCE70000400000102DE9F14F90B0002005
:103210001099814688427CDAFF4C00216D460020DF
:1032200005EBC10304EBC102165C1E54401C0828C8
:10323000FADB491C0829F2DBFDF757FA5FF00000C2
:1032400015F830104A0705D514F8303043F008035C
:1032500004F830300A0705D514F8303043F0100375
:1032600004F83030CA0605D514F8303043F0200396
:1032700004F830308A0605D504EBC002537843F0D9
:1032800040035370490605D504EBC0014A7842F06B
:1032900080024A7005EBC0025178CB0705D014F8C4
:1032A000306046F0020604F830608B0705D514F84C
:1032B000306046F0040604F830604B0705D504EB97
:1032C000C0035E7846F008065E700B0705D504EB78
:1032D000C0035E7846F010065E70CB0605D504EBA1
:1032E000C0035E7846F020065E708B0605D504EBC1
:1032F000C0035E7846F040065E70490605D504EBD3
:10330000C0018B7843F080038B709178CB0707D096
:1033100000E0FDE304EBC0035E7846F002065E7059
:103320008B0705D504EBC0035E7846F002065E709D
:103330004B0705D504EBC0039E7846F004069E704B
:103340000B0705D504EBC0039E7846F008069E7077
:10335000CB0605D504EBC0039E7846F010069E70A0
:103360008B0605D504EBC0039E7846F020069E70C0
:103370004B0605D504EBC003DE7846F04006DE7050
:10338000090605D504EBC001CB7843F08003CB7070
:10339000D178CB0705D004EBC0039E7846F0010638
:1033A0009E708B0705D504EBC0039E7846F002069D
:1033B0009E704B0705D504EBC003DE7846F004068B
:1033C000DE700B0705D504EBC003DE7846F0080677
:1033D000DE70CB0605D504EBC003DE7846F01006A0
:1033E000DE708B0605D504EBC003DE7846F02006C0
:1033F000DE704B0605D504EBC0031E7946F040068F
:103400001E71090605D504EBC0010B7943F080035A
:103410000B711179CB0705D004EBC003DE7846F0C1
:103420000106DE708B0705D504EBC003DE7846F09D
:103430000206DE704B0705D504EBC0031E7946F08B
:1034400004061E710B0705D504EBC0031E7946F078
:1034500008061E71CB0605D504EBC0031E7946F0A5
:1034600010061E718B0605D504EBC0031E7946F0CD
:1034700020061E714B0605D504EBC0035E7946F0AD
:1034800040065E71090605D504EBC0014B7943F097
:1034900080034B715179CB0705D004EBC0031E7933
:1034A00046F001061E718B0705D504EBC0031E799B
:1034B00046F002061E714B0705D504EBC0035E798A
:1034C00046F004065E710B0705D504EBC0035E7978
:1034D00046F008065E71CB0605D504EBC0035E79A5
:1034E00046F010065E718B0605D504EBC0035E79CD
:1034F00046F020065E714B0605D504EBC0039E79AD
:1035000046F040069E71090605D504EBC0018B7993
:1035100043F040038B7191798B0705D504EBC00311
:103520005E7946F001065E714B0705D504EBC003DA
:103530009E7946F002069E710B0705D504EBC00389
:103540009E7946F004069E71CB0605D504EBC003B8
:103550009E7946F008069E718B0605D504EBC003E4
:103560009E7946F010069E714B0605D504EBC0030C
:10357000DE7946F02006DE71090605D504EBC001B0
:10358000CB7943F04003CB71D1798A0705D504EBA1
:10359000C002937943F0010393714A0705D504EB08
:1035A000C002937943F0020393710A0705D504EB37
:1035B000C002D37943F00403D371CA0605D504EBE6
:1035C000C002D37943F00803D371890605D504EB13
:1035D000C001CA7942F01002CA71401C0828FFF6E7
:1035E0002FAE502001F0AEF9FDF77FF85FF000003C
:1035F00015F830104A0705D514F8303043F01003A1
:1036000004F830300A0705D514F8303043F02003B1
:1036100004F83030CA0601E04000001005D504EB84
:10362000C002537843F0400353708A0605D504EB7B
:10363000C002537843F080035370490605D504EB6C
:10364000C0018A7842F080028A7005EBC00251788E
:10365000CB0705D014F8306046F0040604F830605B
:103660008B0705D514F8306046F0080604F8306082
:103670004B0705D504EBC0035E7846F008065E7084
:103680000B0705D504EBC0035E7846F010065E70AC
:10369000CB0605D504EBC0039E7846F020069E704D
:1036A0008B0605D504EBC0039E7846F040069E705D
:1036B000490605D504EBC001CB7843F08003CB70FD
:1036C0009178CB0705D014F8306046F0020604F874
:1036D00030608B0705D504EBC0035E7846F0040626
:1036E0005E704B0705D504EBC0035E7846F0080614
:1036F0005E700B0705D504EBC0039E7846F01006FC
:103700009E70CB0605D504EBC0039E7846F02006DC
:103710009E708B0605D504EBC003DE7846F04006AC
:10372000DE704B0605D504EBC003DE7846F040069C
:10373000DE70090605D504EBC0010B7943F0800368
:103740000B71D178CB0705D004EBC0035E7846F04F
:1037500002065E708B0705D504EBC0039E7846F029
:1037600004069E704B0705D504EBC0039E7846F017
:1037700004069E700B0705D504EBC003DE7846F007
:103780000806DE70CB0605D504EBC003DE7846F0F4
:103790001006DE708B0605D504EBC0031E7946F0DB
:1037A00020061E714B0605D504EBC0031E7946F0BA
:1037B00040061E71090605D504EBC0014B7943F0A4
:1037C00080034B711179CB0705D004EBC0039E78C1
:1037D00046F001069E708B0705D504EBC003DE782A
:1037E00046F00206DE704B0705D504EBC003DE7819
:1037F00046F00406DE700B0705D504EBC0031E7906
:1038000046F008061E71CB0605D504EBC0031E79F1
:1038100046F010061E718B0605D504EBC0035E79D9
:1038200046F020065E714B0605D504EBC0035E79B9
:1038300046F020065E71090605D504EBC0018B79C0
:1038400043F040038B715179CB0705D004EBC003E3
:10385000DE7846F00106DE708B0705D504EBC00369
:103860001E7946F002061E714B0705D504EBC00316
:103870001E7946F002061E710B0705D504EBC00346
:103880005E7946F004065E71CB0605D504EBC003F5
:103890005E7946F008065E718B0605D504EBC00321
:1038A0009E7946F010069E714B0605D504EBC003C9
:1038B0009E7946F020069E71090605D504EBC001ED
:1038C000CB7943F04003CB7191798B0705D504EB9D
:1038D000C0031E7946F001061E714B0705D504EBA7
:1038E000C0035E7946F002065E710B0705D504EB56
:1038F000C0035E7946F004065E71CB0605D504EB85
:10390000C0039E7946F008069E718B0605D504EB30
:10391000C0039E7946F010069E714B0605D504EB58
:10392000C003DE7946F01006DE71090605D504EB0A
:10393000C001CB7943F02003CB71D1798A0705D53B
:1039400004EBC002537943F0010353714A0705D5D4
:1039500004EBC002937943F0010393710A0705D584
:1039600004EBC002937943F002039371CA0605D5B4
:1039700004EBC002D37943F00403D371890605D563
:1039800004EBC001CA7942F00802CA71401C082841
:10399000FFF62EAE502000F0D5FFFCF7A6FE00206B
:1039A00015F830104A0705D514F8303043F02003DD
:1039B00004F830300A0705D504EBC002537843F011
:1039C00040035370CA0605D504EBC002537843F098
:1039D00040035370890605D504EBC0018A7842F094
:1039E00080028A7005EBC00251788B0705D514F868
:1039F000306046F0100604F830604B0705D504EB44
:103A0000C0035E7846F010065E700B0705D504EB28
:103A1000C0035E7846F020065E70CB0605D504EB49
:103A2000C0039E7846F040069E708B0605D504EBD9
:103A3000C003DE7846F04006DE70490605D504EB8B
:103A4000C0010B7943F080030B719178CB0705D04F
:103A500014F8306046F0040604F830608B0705D592
:103A600004EBC0035E7846F008065E704B0705D590
:103A700004EBC0035E7846F010065E700B0705D5B8
:103A800004EBC0039E7846F010069E70CB0605D569
:103A900004EBC003DE7846F02006DE708B0605D509
:103AA00004EBC0031E7946F040061E714B0605D597
:103AB00004EBC0031E7946F040061E71090605D5C9
:103AC00004EBC0014B7943F080034B71D178CB07F5
:103AD00005D004EBC0035E7846F002065E708B07EB
:103AE00005D504EBC0035E7846F004065E704B0714
:103AF00005D504EBC0039E7846F008069E700B07C0
:103B000005D504EBC003DE7846F01006DE7000E059
:103B1000FEE3CB0605D504EBC0031E7946F0100684
:103B20001E718B0605D504EBC0031E7946F02006F6
:103B30001E714B0605D504EBC0035E7946F04006C6
:103B40005E71090605D504EBC0018B7943F0400393
:103B50008B711179CB0705D004EBC0035E7846F07A
:103B600002065E708B0705D504EBC0039E7846F015
:103B700002069E704B0705D504EBC003DE7846F0C5
:103B80000406DE700B0705D504EBC0031E7946F072
:103B900008061E71CB0605D504EBC0031E7946F05E
:103BA00010061E718B0605D504EBC0035E7946F046
:103BB00010065E714B0605D504EBC0039E7946F0F6
:103BC00020069E71090605D504EBC0018B7943F0F0
:103BD00040038B715179CB0705D004EBC0039E786D
:103BE00046F001069E708B0705D504EBC003DE7816
:103BF00046F00206DE704B0705D504EBC0031E79C4
:103C000046F002061E710B0705D504EBC0031E79B2
:103C100046F004061E71CB0605D504EBC0035E79A1
:103C200046F008065E718B0605D504EBC0039E794D
:103C300046F010069E714B0605D504EBC0039E7935
:103C400046F010069E71090605D504EBC001CB793C
:103C500043F02003CB7191798B0705D504EBC003AA
:103C60001E7946F001061E714B0705D504EBC00313
:103C70001E7946F002061E710B0705D504EBC00342
:103C80005E7946F002065E71CB0605D504EBC003F3
:103C90009E7946F004069E718B0605D504EBC003A1
:103CA0009E7946F008069E71490605D504EBC001D1
:103CB000CB7943F01003CB71D1794A0705D504EBDA
:103CC000C002537943F0010353710A0705D504EB91
:103CD000C002937943F002039371CA0605D504EB41
:103CE000C002937943F002039371890605D504EB72
:103CF000C001CA7942F00402CA71401C0828FFF6CC
:103D00004FAE502000F01EFEFCF7EFFC5FF000000D
:103D100015F830108A0705D514F8303043F0200329
:103D200004F830304A0705D514F8303043F040032A
:103D300004F830300A0705D504EBC002537843F08D
:103D400040035370CA0605D504EBC002937843F0D4
:103D500080039370890605D504EBC001CA7842F050
:103D60008002CA7005EBC0025378990705D514F894
:103D7000306046F0100604F83060590705D504EBB2
:103D8000C0014E7846F020064E70190705D504EBA9
:103D9000C0018E7846F020068E70D90605D504EB5A
:103DA000C001CE7846F04006CE70990605D504EBEA
:103DB000C0010E7946F040060E71590605D504EB98
:103DC000C0010E7946F080060E71190605D504EB88
:103DD000C0014B7943F080034B719178CB0705D03C
:103DE00014F8306046F0080604F830608B0705D5FB
:103DF00004EBC0035E7846F010065E704B0705D5F5
:103E000004EBC0035E7846F010065E700B0705D524
:103E100004EBC0039E7846F020069E70CB0605D5C5
:103E200004EBC003DE7846F02006DE708B0605D575
:103E300004EBC0031E7946F040061E714B0605D503
:103E400004EBC0035E7946F040065E71090605D5B5
:103E500004EBC0018B7943F080038B71D178CB07E1
:103E600005D014F8306046F0040604F830608B0783
:103E700005D504EBC0035E7846F008065E704B077C
:103E800005D504EBC0039E7846F008069E700B072C
:103E900005D504EBC003DE7846F01006DE70CB06D5
:103EA00005D504EBC0031E7946F010061E718B0683
:103EB00005D504EBC0035E7946F020065E714B0623
:103EC00005D504EBC0035E7946F020065E71090655
:103ED00005D504EBC0018B7943F040038B71117958
:103EE000CB0705D004EBC0035E7846F002065E7097
:103EF0008B0705D504EBC0039E7846F004069E7040
:103F00004B0705D504EBC0039E7846F004069E706F
:103F10000B0705D504EBC003DE7846F00806DE701B
:103F2000CB0605D504EBC0031E7946F008061E71CA
:103F30008B0605D504EBC0035E7946F010065E7172
:103F40004B0605D504EBC0039E7946F010069E7122
:103F5000090605D504EBC001CB7943F02003CB71F2
:103F60005179CB0705D004EBC0035E7846F001061B
:103F70005E708B0705D504EBC0039E7846F0020601
:103F80009E704B0705D504EBC003DE7846F00206B1
:103F9000DE700B0705D504EBC0031E7946F004065E
:103FA0001E71CB0605D504EBC0035E7946F004060E
:103FB0005E718B0605D504EBC0039E7946F00806BA
:103FC0009E714B0605D504EBC0039E7946F00806AA
:103FD0009E71090605D504EBC001CB7943F01003AF
:103FE000CB719179CB0705D004EBC0039E7846F0E6
:103FF00001069E708B0705D504EBC003DE7846F002
:104000000106DE704B0705D504EBC003DE7846F0F1
:104010000206DE700B0705D504EBC0031E7946F0DF
:1040200002061E71CB0605D504EBC0035E7946F08F
:1040300004065E718B0605D504EBC0039E7946F03D
:1040400004069E71490605D504EBC001CB7943F007
:104050000803CB71D1794A0705D504EBC002137967
:1040600043F0010313710A0705D504EBC00253792D
:1040700043F001035371CA0605D504EBC0029379DE
:1040800043F0020393718A0605D504EBC002D3798D
:1040900043F00203D371490605D504EBC001CA7988
:1040A00042F00402CA71401C0828FFF631AE5020CD
:1040B00000F048FCFCF719FB5FF0000015F8301029
:1040C0008A0705D514F8303043F0400304F8303047
:1040D0004A0705D504EBC002537843F04003537000
:1040E0000A0705D504EBC002937843F08003937070
:1040F000CA0605D504EBC002D37843F08003D37021
:10410000890605D504EBC0010A7942F080020A71E4
:1041100005EBC00251788B0705D514F8306046F0E6
:10412000200604F830604B0705D504EBC0035E7829
:1041300046F040065E700B0705D504EBC0039E7881
:1041400046F040069E70CB0605D504EBC003DE7832
:1041500046F04006DE708B0605D504EBC0031E79E1
:1041600046F040061E714B0605D504EBC0035E7990
:1041700046F080065E71090605D504EBC0018B7917
:1041800043F080038B719178CB0705D014F8306031
:1041900046F0100604F830608B0705D504EBC00329
:1041A0005E7846F010065E704B0705D504EBC00341
:1041B0009E7846F020069E700B0705D504EBC003E1
:1041C000DE7846F02006DE70CB0605D504EBC00392
:1041D0001E7946F020061E718B0605D504EBC00340
:1041E0005E7946F020065E714B0605D504EBC003F0
:1041F0009E7946F040069E71090605D504EBC00184
:104200008B7943F040038B71D178CB0705D014F83C
:10421000306046F0080604F830608B0705D504EBE3
:10422000C0035E7846F008065E704B0705D504EBC8
:10423000C0039E7846F010069E700B0705D504EB70
:10424000C003DE7846F01006DE70CB0605D504EB21
:10425000C0031E7946F010061E718B0605D504EBCF
:10426000C0035E7946F010065E714B0605D504EB7F
:10427000C0039E7946F020069E71090605D504EB21
:10428000C001CB7943F02003CB711179CB0705D066
:1042900014F8306046F0040604F830608B0705D54A
:1042A00004EBC0035E7846F004065E704B0705D54C
:1042B00004EBC0039E7846F008069E700B0705D5F8
:1042C00004EBC003DE7846F00806DE70CB0605D5A9
:1042D00004EBC0031E7946F008061E718B0605D557
:1042E00004EBC0035E7946F008065E714B0605D507
:1042F00004EBC0039E7946F010069E71090605D5B1
:1043000004EBC001CB7943F01003CB71517900E08D
:10431000D8E0CB0705D004EBC0035E7846F0020678
:104320005E708B0705D504EBC0035E7846F002068D
:104330005E704B0705D504EBC0039E7846F004067B
:104340009E700B0705D504EBC003DE7846F004062B
:10435000DE70CB0605D504EBC0031E7946F00406DB
:104360001E718B0605D504EBC0035E7946F004068A
:104370005E714B0605D504EBC0039E7946F0080636
:104380009E71090605D504EBC001CB7943F0080303
:10439000CB719179CB0705D004EBC0035E7846F072
:1043A00001065E708B0705D504EBC0039E7846F0CE
:1043B00001069E704B0705D504EBC003DE7846F07E
:1043C0000206DE700B0705D504EBC0031E7946F02C
:1043D00002061E71CB0605D504EBC0035E7946F0DC
:1043E00002065E718B0605D504EBC0039E7946F08C
:1043F00002069E71490605D504EBC001CB7943F056
:104400000403CB71D1794A0705D504EBC002D378F8
:1044100043F00103D3700A0705D504EBC0021379FA
:1044200043F001031371CA0605D504EBC0025379AA
:1044300043F0010353718A0605D504EBC00293795A
:1044400043F002039371490605D504EBC001CA7914
:1044500042F00202CA71401C0828FFF62FAE50201D
:1044600000F070FAFCF741F90023AE464FF0800BE4
:104470004FF0010A344800210EEBC30700EBC304E0
:1044800000202BFA01F2C1F107053E5C164209D06B
:1044900014F805C0C0F107080AFA08F64CEA060C41
:1044A00004F805C0401C0828EFDB491C0829E7DB9D
:1044B0005B1C082BDEDB502000F044FA09F1010000
:1044C000FEF7A6BE11B0BDE8F08F2DE9F04F91B018
:1044D0001D4C00216D46002004EBC10205EBC10319
:1044E000165C1E54401C0828FADB491C0829F2DB24
:1044F000FCF7FBF80022A346AE464FF0800A0124E9
:1045000000210EEBC2070BEBC20600202AFA01F3D2
:10451000C1F1070517F800C01CEA030F09D016F80F
:1045200005C0C0F1070904FA09F84CEA080C06F8BE
:1045300005C0401C0828EDDB491C0829E5DB521C9E
:10454000082ADDDBBEE70000400000100948804774
:1045500009480047FEE7FEE7FEE7FEE7FEE7FEE765
:10456000FEE7FEE7FEE7FEE704480549054A064B7D
:10457000704700004F460000CD00000048020010C8
:10458000480E0010480A0010480A001070B5534C3D
:10459000D4F88800524D6FEA10608007D4F80C01FF
:1045A00000F003000CD028B1012841D0022845D0EA
:1045B00003282ED1D4F804014A49C0B2401C43E07C
:1045C000002128B101280ED0022823D0032820D1B1
:1045D00054F8880FC0F307422068521CC0F30E0045
:1045E000401C414909E054F8880FC0F30742206895
:1045F000521CC0F30E003D49401CA0FB01010023EA
:1046000000F0B4F9E26F0023D2B2521C00F0AEF910
:10461000286070BD54F8880FC0F307422068521C10
:10462000C0F30E00401C090441EA10410004E6E713
:10463000D4F804012E49C0B2401C05E0D4F80401AE
:104640004FF40041C0B2401CB1FBF0F0E0E730B5E0
:1046500022482021C0F8A011D0F8A011890603D566
:10466000D0F8A0114906FBD500F180000324C0F862
:1046700084404FF00001C0F82811C0F82C114FF011
:104680000105C0F88C501B4A42604FF0AA02C2607C
:104690004FF05503C3600560C260C360A0F18000A5
:1046A000D0F888506D01FBD540F8804FC260C360E0
:1046B000B0F18000D0F88820C2F30162032AF9D15A
:1046C000C0F808110C4AC0F8C420C0F8C81101682D
:1046D00021F4704141F48041016030BD00C00F40C1
:1046E0002800001000093D0000127A0000366E011B
:1046F000001BB70063000500DE872804062110B107
:104700008948416070478948FBE7072110B1864816
:10471000416070478548FBE72DE9F047864A844EA3
:10472000844F12684FF00308950854084FF0830C2B
:104730004FF00709D30820B1012829D00020BDE897
:10474000F087306820F0F0003060306840F05000B2
:104750003060D7F8A801C0F38110012808D00228E2
:1047600003D0032803D02A4602E0224600E01A467E
:104770006E4E86F80CC01009B0FBF1F0010A3171E1
:10478000307086F80C804C4686F80890052025E0AD
:10479000306920F00F003061306940F00A0030616C
:1047A000D7F8A801C0F30120012808D0022803D0BF
:1047B000032803D02A4602E0224600E01A465A4E59
:1047C00086F80CC01009B0FBF1F0010A31713070AD
:1047D00086F80C804C4686F80890062000F098F881
:1047E00074600120ABE710B5544A002330B1145C6B
:1047F000E407FCD04C4C2170135410BD145CE4074A
:10480000FCD04A4CF7E770B514460D46064605E065
:1048100029783046FFF7E7FF6D1C641E002CF7D1A6
:1048200070BD28B14048017DC907FCD000787047B1
:104830003E48017DC907FCD0F8E770B53B49886860
:104840003E4DC0F342020C3500233D4CA5F108005B
:10485000032A0CD0022A13D0062A1CD0012A05D123
:10486000087D810635481BD50121017070BD0A7D88
:1048700012F09E0F02D02A60087870BDD207FCD0DB
:1048800009780268A1540168491C01600168402947
:10489000F3D1036070BD286840F48070286070BD5B
:1048A000037070BD70B5204B9868244D244AC0F346
:1048B00042010C3500244032A5F1080003290CD038
:1048C000022913D006291CD0012905D1187D8106A3
:1048D0001A481BD50121417070BD197D11F09E0F42
:1048E00002D06960187870BDC907FCD01978436898
:1048F00099544168491C416041684029F3D14460A2
:1049000070BD686840F48070686070BD447070BDB0
:1049100000F01F020121914040094FF0E02202EB1C
:104920008000C0F8001170470000014000C0004046
:1049300000C0024000C00F40280000102C000010F2
:1049400080000010002140F63542504300E0491C31
:10495000B1EBC00FFBD3704700EBC002002102EBAC
:10496000001000E0491C8842FCD8704753EA020C52
:1049700000F069802DE9F04B4FF00006002B1FBFBF
:10498000B3FA83F503FA05F424FA05F65E4012BF84
:104990001643B2FA82F502FA05F4C5F120051EBFEE
:1049A00022FA05FC44EA0C04203556EA044C4FEA8E
:1049B000144418BF641C4FF000084FF000099042E7
:1049C00071EB030C39D3002919BFB1FA81F701FA51
:1049D00007F6B0FA80F700FA07F6C7F120071EBF06
:1049E00020FA07FC46EA0C062037B6FBF4FCA7EBDE
:1049F0000507103F07F01F0BCBF120060CFA0BFB4D
:104A00002CFA06F644BFB3460026202FA4BF5E460C
:104A10004FF0000B5BEA060C08BF4FF0010B19EBDF
:104A20000B09ABFB027C48EB0608C01B06FB02CC63
:104A30000BFB03CC71EB0C01C1E70B460246414670
:104A40004846BDE8F08B13B54FF000004FF0000171
:104A5000AFF30080BDE81C40704710B5044600F07D
:104A600049F80068005DC00602D504F1200010BDC1
:104A7000204610BD0B4910B5A1F17C020A4CC2E9D9
:104A80003712372106E000EB104342F82130074B84
:104A900000FB03400B1EA1F10101F4DC10BD01205D
:104AA000E8E700007C010010E119D666CD0D010099
:104AB00010B5431C02E010F8011B71B18107FAD157
:104AC0004FF0013202C88C1A8C4314EAC211F9D09B
:104AD000C01A0A0603D0C01E10BDC01A10BD0A04B9
:104AE00001D0801E10BD0902FCD0401E10BD7047D1
:104AF0007047704710B500F009F8001D10BD00BFE9
:104B0000F900000000487047E401001000487047B9
:104B10000402001070477546FFF7F4FFAE4605002B
:104B20006946534620F00700854618B020B5FFF7C8
:104B30001BFDBDE820404FF000064FF000074FF08E
:104B400000084FF0000B21F00701AC46ACE8C009AB
:104B5000ACE8C009ACE8C009ACE8C0098D467047B4
:104B60000446AFF300802046FBF702FB4FF0013C08
:104B700050F8042B51F8043B9A4221D1A2EB0C03CC
:104B8000934313EACC1317D150F8042B51F8043B8C
:104B90009A4215D1A2EB0C03934313EACC130BD129
:104BA00050F8042B51F8043B9A4209D1A2EB0C03B4
:104BB000934313EACC13DBD04FF00000704700BFE3
:104BC000D01A01BAB1FA81F101F0180122FA01F00C
:104BD000CB40C1F12001DBB2C0B2C01A2CFA01F304
:104BE000D11A914311EAC311E6D170470149182047
:104BF000ABBEFEE72600020010B500290AD00878F7
:104C0000002807D005487844FFF7B0FF002801D0FE
:104C1000002010BD0248784410BD00003E00000096
:104C200036000000544D000000000010400000005D
:104C300008010000944D000040000010080E000024
:104C4000240100001001000043000000F8FFFFFFF6
:104C5000004040404040404040404141414141408F
:104C60004040404040404040404040404040404044
:104C700040050202020202020202020202020202D3
:104C800002202020202020202020200202020202D8
:104C90000202909090909090101010101010101030
:104CA000101010101010101010101010020202023C
:104CB0000202888888888888080808080808080880
:104CC000080808080808080808080808020202027C
:104CD0004000000000000000000000000000000094
:104CE00000000000000000000000000000000000C4
:104CF00000000000000000000000000000000000B4
:104D000000000000000000000000000000000000A3
:104D10000000000000000000000000000000000093
:104D20000000000000000000000000000000000083
:104D30000000000000000000000000000000000073
:104D40000000000000000000000000000000000063
:104D50000000000000000000000000000000000053
:104D60000000000000000000000000000000000043
:104D700000000000010000000000000000E1F50557
:104D80000101000000000000000000000000000021
:044D9000000000001F
:04000005000000CD2A
:00000001FF
